:020000040800F2
:10000000383B0024E5030008DB48000847470008A8
:10001000D9480008671F000831550008000000009B
:10002000000000000000000000000000A54C0008D7
:10003000691F000800000000DD480008A74C000808
:10004000FF030008FF030008FF030008FF03000888
:10005000FF030008FF030008FF030008FF03000878
:10006000FF030008FF030008FF030008FF03000868
:10007000FF030008FF030008FF030008FF03000858
:10008000FF030008FF030008FF030008FF03000848
:10009000FF030008FF030008FF030008FF03000838
:1000A000FF030008FF030008FF030008FF03000828
:1000B000FF030008FF030008FF030008FF03000818
:1000C000FF030008FF030008FF030008FF03000808
:1000D000FF030008FF030008FF030008FF030008F8
:1000E000FF030008FF03000800000000FF030008F2
:1000F000FF030008FF030008FF030008FF030008D8
:10010000FF030008FF030008FF030008FF030008C7
:10011000FF030008FF030008FF030008FF030008B7
:10012000FF030008FF030008FF030008FF030008A7
:10013000FF030008FF030008FF030008FF03000897
:1001400000000000000000000000000000000000AF
:10015000FF030008FF030008FF030008FF03000877
:10016000FF030008FF030008FF030008FF03000867
:10017000FF030008FF030008FF030008FF03000857
:10018000FF030008FF030008FF030008FF03000847
:10019000FF030008FF030008FF030008FF03000837
:1001A000FF030008FF030008FF030008FF03000827
:1001B000FF030008FF030008FF030008FF03000817
:1001C000FF030008FF030008FF030008FF03000807
:1001D000FF030008FF030008FF030008FF030008F7
:1001E000FF030008FF030008FF030008FF030008E7
:1001F000FF030008FF030008FF030008FF030008D7
:10020000FF030008FF030008FF030008FF030008C6
:10021000FF030008FF030008FF030008FF030008B6
:10022000FF030008FF030008FF03000800000000B0
:10023000FF030008FF03000800000000FF030008A0
:10024000FF030008FF030008FF030008FF03000886
:10025000FF030008FF030008FF030008FF03000876
:10026000FF030008FF030008FF030008FF03000866
:10027000FF030008FF030008FF0300080000000060
:10028000FF030008FF030008FF0300080000000050
:1002900000000000FF03000800F002F800F092F8F0
:1002A0000AA090E8000C82448344AAF10107DA45D1
:1002B00001D100F087F8AFF2090EBAE80F0013F091
:1002C000010F18BFFB1A43F001031847B47B00006D
:1002D000D47B0000103A24BF78C878C1FAD85207FE
:1002E00024BF30C830C144BF04680C6070470000B0
:1002F0000023002400250026103A28BF78C1FBD82F
:10030000520728BF30C148BF0B6070476E2900F00C
:100310001084702900F0F181662907F0B084652906
:1003200007F0AD84672907F0AA84612907F0A98442
:1003300003681B0A28BF41F08001692900F062812F
:10034000642900F05F81752900F05C816F2900F05D
:10035000F684782900F0BD81E92900F09184E42930
:1003600000F08E84F52900F08B84EF2900F0F384EF
:10037000F82900F0BC810368DB0928BF41F0800147
:10038000632900F01284732900F01784E32901F037
:10039000C980F32901F0CE80002070471FB507F017
:1003A00069FC01F019F904000020002107F04CFC61
:1003B000401C60600020002107F030FCE0601FBDA1
:1003C00010B510BD01F0DAF81146FFF7E7FF06F0AF
:1003D00041FC01F0B7F903B4FFF7F2FF03BC01F0F1
:1003E000F3F900000948804709480047FEE7FEE7A7
:1003F000FEE7FEE7FEE7FEE7FEE7FEE7FEE7FEE7D5
:1004000004480549054A064B70470000554D000851
:100410009902000838350024383B0024383700247E
:100420003837002453EA020C00F069802DE9F04BC4
:100430004FF00006002B1FBFB3FA83F503FA05F453
:1004400024FA05F65E4012BF1643B2FA82F502FAAC
:1004500005F4C5F120051EBF22FA05FC44EA0C0490
:10046000203556EA044C4FEA144418BF641C4FF080
:1004700000084FF00009904271EB030C39D30029BA
:1004800019BFB1FA81F701FA07F6B0FA80F700FA5E
:1004900007F6C7F120071EBF20FA07FC46EA0C0644
:1004A0002037B6FBF4FCA7EB0507103F07F01F0B46
:1004B000CBF120060CFA0BFB2CFA06F644BFB34630
:1004C0000026202FA4BF5E464FF0000B5BEA060C0F
:1004D00008BF4FF0010B19EB0B09ABFB027C48EB9B
:1004E0000608C01B06FB02CC0BFB03CC71EB0C0116
:1004F000C1E70B46024641464846BDE8F08B13B5BE
:100500004FF000004FF00001AFF30080BDE81C4049
:10051000704700001CB50C46064B7B4469460090B2
:10052000204600F020FB04460020694600F02EFB28
:1005300020461CBD6F0600000FB41CB5084B06AA70
:100540007B4469460090059800F00DFB04460020AE
:10055000694600F01BFB20461CBC5DF814FB000044
:100560004906000070B5044685690068C10601D5DA
:10057000302600E02026C00707D070BDD4E9012155
:1005800030469047206A401C20626D1EF6D570BD33
:1005900070B5044685690078C00707D170BDD4E9FD
:1005A000012120209047206A401C20626D1EF6D554
:1005B00070BD70B50C460546012A05D02878800626
:1005C00000D5EA69002302E0012305E05B1C9342A9
:1005D00002D2E05C0028F9D1A869E618C01AA86127
:1005E000286A184428622846FFF7BCFF04E0D5E9D2
:1005F000012114F8010B9047B442F8D32846FFF7C5
:10060000C7FF70BD2DE9F04106460024106875292A
:10061000314616A510D000F021FA002802DA404237
:1006200013A507E031688A0701D512A502E0490742
:1006300004D511A5012401E000F019FA00210A22D5
:1006400006F1240709E0B0FBF2FCB0FBF2F302FB79
:100650001C00303078541846491C0028F3D123463A
:100660002A463046BDE8F04100F00ABA000000001A
:100670002D0000002B00000020000000F0B40D460B
:100680000188090502D5214C7C4402E01F4C7C44C2
:100690000E34002100F1240608E002F00F071209D1
:1006A000E75D42EA03721B097754491C52EA0307CB
:1006B000F3D102780023120704D5702D06D009B1BA
:1006C000022311342246F0BC00F0DAB901231034C1
:1006D000F8E770B504460D462146106800F0C7F9EA
:1006E000024629462046BDE870400023C6E7D21DD9
:1006F00022F00703D3E90023C0E70368126843F040
:10070000200303600823C3610023B7E7F6760000E7
:100710002DE9F05F894604464FF0000ADFF874B116
:10072000FB44C0F820A02046E1688847002874D028
:10073000252806D0D4E901219047206A401C206278
:10074000F1E700265F462046E168884720280546F5
:1007500007DB312D05D2781910F8200C08B10643BB
:10076000F1E7B00701D526F00406C4F81CA0002765
:10077000C4F818A02A2D09D0284604F03DFF38B34C
:1007800004EB8708303DC8F8185019E059F8041BED
:10079000204604EB87029161E1688847012F0546F6
:1007A00018D1E069002820DA26F020061DE0D8F8EC
:1007B000180000EB800005EB40003038C8F8180046
:1007C0002046E1688847054604F016FF0028EED170
:1007D000012F0AD02E2D08D12046E16888477F1CC2
:1007E0000546022F46F02006C4DBA069002803DA84
:1007F000404246F00106A061F00701D026F0100645
:100800006C2D0BD0682D09D04C2D39D06A2D35D0E8
:10081000742D35D07A2D33D016E038E0E1682F46BC
:1008200020468847B842054609D16C2F26D04FF4A0
:100830008060E168064320468847054604E06C2F47
:100840001AD04FF4807006430DB3A5F1410019286A
:1008500002D8203546F400664A46294620462660DE
:100860004E46FFF753FD80B101280BD0F61D26F050
:10087000070000F1080956E74020E4E78020D8E7A8
:100880000020D6E706F104094DE7284652E7206A22
:10089000BDE8F09F8676000010B5431C02E010F81A
:1008A000011B71B18107FAD14FF0013202C88C1AD5
:1008B0008C4314EAC211F9D0C01A0A0603D0C01E34
:1008C00010BDC01A10BD0A0401D0801E10BD09025F
:1008D000FCD0401E10BD032A40F2308010F0030C03
:1008E00000F0158011F8013BBCF1020F624498BF83
:1008F00011F801CB00F8013B38BF11F8013BA2F120
:10090000040298BF00F801CB38BF00F8013B11F09A
:10091000030300F02580083AC0F0088051F8043B3A
:10092000083A51F804CBA0E80810F5E7121D5CBFA7
:1009300051F8043B40F8043BAFF30080D20724BFDA
:1009400011F8013B11F801CB48BF11F8012B24BF6E
:1009500000F8013B00F801CB48BF00F8012B7047BD
:1009600010B5203AC0F00B80B1E81850203AA0E84A
:100970001850B1E81850A0E81850BFF4F5AF5FEA7E
:10098000027C24BFB1E81850A0E8185044BF18C931
:1009900018C0BDE810405FEA827C24BF51F8043BD8
:1009A00040F8043B08BF7047D20728BF31F8023B2C
:1009B00048BF11F8012B28BF20F8023B48BF00F8C0
:1009C000012B70474FF000020429C0F0128010F094
:1009D000030C00F01B80CCF1040CBCF1020F18BF1B
:1009E00000F8012BA8BF20F8022BA1EB0C0100F0AE
:1009F0000DB85FEAC17C24BF00F8012B00F8012B81
:100A000048BF00F8012B70474FF0000200B51346B5
:100A100094469646203922BFA0E80C50A0E80C501E
:100A2000B1F12001BFF4F7AF090728BFA0E80C50CF
:100A300048BF0CC05DF804EB890028BF40F8042BC8
:100A400008BF704748BF20F8022B11F0804F18BF35
:100A500000F8012B704770477047704709684A05D6
:100A600001D540B27047C905FCD500B2704709688E
:100A70004A0501D5C0B27047C905FCD580B27047A0
:100A80002DE9F0470D4699469246044600F12408A8
:100A90000168880604D5E06921F01001216000E0BA
:100AA0000120A84201DD471B00E00027A1697A1957
:100AB00002EB0900081AA0612078C00602D4204683
:100AC000FFF750FD002608E0D4E901211AF80600DE
:100AD0009047206A401C761C20624E45F4DB20784B
:100AE000C0060AD52046FFF73DFD06E0D4E9012106
:100AF00030209047206A401C2062381EA7F1010771
:100B0000F4DC07E0D4E9012118F805009047206AD9
:100B1000401C2062281EA5F10105F3DC2046FFF7EA
:100B200037FD2078000602D50220BDE8F0870120BD
:100B3000FBE711680268006A530501D508700AE0F6
:100B4000D30501D5088006E0130603D5C217C1E915
:100B5000000200E0086001207047000001694A1CA3
:100B600002610878704700B58FB0CDE901310021EE
:100B7000059105497944CDE9031011466846FFF710
:100B8000C7FD0FB000BD0000E5FFFFFF0A6802F8D7
:100B9000010B0A60704710B5436913B1AFF30080D1
:100BA00001E0FFF706FD012010BD127800F12401DD
:100BB0000A7000224A700122EDE711684FF0FF32FF
:100BC000E9E700002DE9FF5F15468A460446DFF895
:100BD000AC80F8440027D8E900103E46CDE900106B
:100BE00010E03AF816106A4602A800F0A7FC411C73
:100BF00007D02178890603D5E269391891420DD8CA
:100C00000744761C2078800602D5E069B84205DDED
:100C1000AE42E6DB3AF816000028E2D1A069C01B1C
:100C2000A0612046FFF79EFCD8E90010CDE9001036
:100C3000002017E03AF818106A4602A800F07EFC7F
:100C4000B0F1FF3F81460BD000250DF1080B05E008
:100C5000D4E901211BF8050090476D1C4D45F7D3E1
:100C600008F10100B0428046E4DB206A384420628B
:100C70002046FFF78DFCBDE8FF9F0000E6710000F5
:100C80002DE9F0418046D21D22F007020025D2E96D
:100C90000002F52915A614D0011E72F1000106DA32
:100CA0000023D0EB030063EB020211A608E0D8F8A2
:100CB00000108B0701D50FA602E0490701D50EA64B
:100CC00001251146002408F1240704E000F04EF845
:100CD00030323A55641C50EA0102F7D12B463246B5
:100CE00021464046BDE8F041FFF7CABE00000000C3
:100CF0002D0000002B0000002000000030B4002177
:100D000000F1240408E002F00705D208303542EA79
:100D10004372DB086554491C52EA0305F3D10468A9
:100D2000002310A2250707D5A40600D421B1C46969
:100D300001230DA2641EC46130BCFFF7A1BE10B533
:100D4000044621461068FFF792FE02462046BDE8A1
:100D500010400023D2E7D21D22F00701D1E9002381
:100D6000CCE70000000000003000000030B5B0F11A
:100D70000A024FEA900E71F100034EEA817EB0EB59
:100D80000E0061EB91014FEA101E4EEA017E10EB5E
:100D90000E0041EB11114FEA102E4EEA016E10EBDE
:100DA0000E0041EB11214FEA104E4EEA014E10EBBE
:100DB0000E0041EB1141401841F100014FEAD00013
:100DC00040EA41704FEAD10110EB80054FEA8104FF
:100DD00044EA907444EB01046D1944EB0404521B83
:100DE000A3414FF0000348BF0A3200D530BD401C7C
:100DF00041F1000130BD70472DE9FF4F0C461E4602
:100E00004FF0FF378BB0D2E90001DDF860800A9027
:100E10008A46C1F30A5505B93D46002108464FF000
:100E20000000BAF1000F00F4400005DA00EB80008A
:100E30004FF4400101EA50004FEA9059B9F1010F17
:100E400000DDB9460A9850EA4A000ED044F6105028
:100E5000A5F2FF3545432F14B8F1000F1ED075429F
:100E6000291E1EDDC9F100021CE0B8F1010F4FF090
:100E7000000001D0302103E0F24305E02154401C82
:100E8000B042FBDB30460022002121540B99C1F80F
:100E90000880C1E900200FB0BDE8F08FBD1B6D1CBC
:100EA000DEE74A4600DA694206A800F0D9FB06AB45
:100EB00093E8070003AB83E8070050460A9900F067
:100EC0008AFC8DE80700A0F500501F3800900398B9
:100ED000002D0ADD42F21F014A460844002303A9FF
:100EE0000390684600F0F3FE09E0A0F500504A4682
:100EF0001F38002303A90390684600F0FDFE8DE82B
:100F000007000004000C03D04FF0FF30410800E060
:100F10001046B8F1000F03D00022009215461EE0E3
:100F2000751E05D4FFF722FF303262556D1EF9D5CC
:100F3000B3460122084302D000227F1C04E020783F
:100F4000302801D100227F1E002A099784D01DE09D
:100F5000112D07DAFFF70AFF303262556D1C50EA97
:100F60000102F5D1084302D00098C8B10EE000217B
:100F7000681E05E0235C625C63542254401E491CD9
:100F80008142F7DBAB46A81B401E0990002004F805
:100F90000B000B98099AC0F80880C0E9002B7AE78B
:100FA00011264FF0000857E72DE9F04F8846044618
:100FB000D21D22F0070191B0D1E90001CDE90A016B
:100FC00004F0F2FA02460B98C00F01D02D2007E082
:100FD0002068810701D52B2002E0202101EAC00012
:100FE000032A099001D0072A05DB03464146204623
:100FF00000F0F6FA0BE12078800601D5E06900E008
:101000000620B8F1650F814606D0B8F1660F18D0FA
:10101000B8F1670F70D131E00020B9F1110F0090E5
:1010200001DB112301E009F101030AAA01A90CA8BF
:10103000FFF7E2FEDDE90C70002609F101058346A9
:1010400047E001204B4600904FF000470AAA01A953
:101050000CA8FFF7D1FEDDE90DB00C995D46002626
:1010600010B909F101000D18B9EB050003D4C0F166
:10107000FF3609F10105A5EB09002BE0B9F1010FDD
:1010800001DA4FF001090020B9F1110F0090484634
:1010900001DD112300E003460AAA01A90CA8FFF70D
:1010A000ABFEDDE90C704D46002683462078000734
:1010B0000AD4AB4500DA5D4601A8012D04DD4119D3
:1010C00011F8011C302907D04F4502DA17F1040F3F
:1010D00004DA012082460FE06D1EEEE7002F02DCED
:1010E000ED1B3E4403E0781CA84200DD7D1CB81BCC
:1010F00000F1010A4FF000472078000703D4AA4509
:1011000001DB4FF0FF3A0021B7F1004F0DF143082A
:101110008DF8431024D002202B23002F01DA7F42C8
:101120002D230A21021EA0F1010000DC5FB197FB14
:10113000F1FC97FBF1F201FB1C7C17460CF1300C23
:1011400008F801CDEEE7A8F1010003702188090538
:1011500001D5452100E06521A0F1010800F8011C3E
:1011600009980FA9A1EB0807FF1D00B10120411943
:1011700001EBEA70A1693844081A401EA06120788A
:10118000C00602D42046FFF7EDF9099828B1D4E94A
:1011900001219047206A401C20622078C00622D599
:1011A0002046FFF7DFF91EE0002E04DBB34502DD29
:1011B00001A8805D00E03020D4E901219047206A39
:1011C000401C2062761CAAF101005FEA000A0AD1E5
:1011D00000F002FAC0680168405CD4E90121904740
:1011E000206A401C2062281EA5F10105DCDC07E016
:1011F000D4E9012118F8010B9047206A401C2062B5
:10120000381EA7F10107F3DC2046FFF7C1F90320E0
:1012100011B041E62DE9F04F04460D46D21D22F0F3
:10122000070089B0D0E900974846394604F0BCF978
:101230000246F80F01D02D2307E02068810701D571
:101240002B2302E0202101EAC0038DF820300BB1EE
:10125000012000E00020032A824601D0072A04DB97
:101260002946204600F0BCF93FE12078800601D4F1
:101270000D2500E0E569C7F30A560D2D49DA002176
:101280004FEA175B08464FF00000002F00F44000C3
:1012900007DA00EB80004FF4400100EBD07001EA68
:1012A00060008115012901DD4FF0FF3100224FEA76
:1012B000850CBCF1180F06D31346ACF118004FF0A3
:1012C0008052C24003E04FF4801323FA0CF30CF178
:1012D0000C0CBCF1200F04D3ACF1200C09FA0CF07B
:1012E00001E007FA0CF000294FF0004801DD18B9C1
:1012F0000FE00ED140450CD319EB02095F4121B933
:10130000404502D19F4329EA0209BBEB175F00D099
:10131000761C2088000502D57B48784402E07A4894
:101320007844193808AA302302F80A30037C0AF1FD
:101330000101002E0AF1020A53546A4602DC4FF002
:10134000300101E04FF031014FF001088DF800103D
:1013500002D0A6F2FF3603E059EA470100D06B4EF7
:10136000002D02DC2178090704D54FF002082E2158
:101370008DF80110C44600210BE0C7F303433F0181
:10138000C35C491C6D1E02F80830052908F10108EC
:1013900001DA002DF1DC00210CE000EB1973491C8F
:1013A0001B786D1E082902F808304FEA091908F168
:1013B000010801DA002DF0DC21688B0602D516E069
:1013C000A8F10108E04505DD02EB080313F8013C34
:1013D000302BF5D0B8F1000F09DD02EB080313F84C
:1013E000013C2E2B03D1090701D4A8F10108002DDF
:1013F00005DD3E2102F808106D1E08F10108407C51
:10140000002E02F8080008F1010804DA2D207642C7
:1014100002F8080002E02B2002F808000A214FF42D
:101420007A70864208F101080BDB96FBF0F330334B
:1014300002F8083096FBF0F308F1010800FB136690
:1014400001E0642E0CDB642096FBF0F3303302F8ED
:10145000083096FBF0F308F1010800FB136601E089
:101460000A2E06DB96FBF1F0303002F8080008F196
:10147000010896FBF1F001FB1060303002F8080023
:10148000A16908F1010808EB050202EB0A00081A3D
:10149000A0612078C00602D42046FFF763F8216AD5
:1014A00008AE01EB0A00206204E0D4E9012116F83D
:1014B000010B9047BAF1010AF7D22078C00602D595
:1014C0002046FFF74FF86E4609E016F8010B3E285C
:1014D0000FD0D4E901219047206A401C2062B8F166
:1014E0000108F2D22046FFF753F809B00320BDE807
:1014F000F08F206A2844206203E0D4E901213020E3
:1015000090476D1EEBD3F8E7B96A000002FCFFFFBD
:1015100010B5436913B1AFF3008001E0FFF752FB50
:10152000012010BD128800F1240182840022C284AF
:101530000122EDE711684FF0FF32E9E770B516467A
:101540000C46054600F040F8036893F801010128B5
:1015500006D0FF2C0FD8185D68B101202C7070BD2B
:10156000D3F807013246214603F207130344284605
:10157000BDE8704018474FF0FF3070BD754600F071
:10158000EBF8AE4605006946534620F00700854655
:1015900018B020B5FEF734FFBDE820404FF000063C
:1015A0004FF000074FF000084FF0000B21F007014B
:1015B000AC46ACE8C009ACE8C009ACE8C009ACE88E
:1015C000C0098D467047000010B500F005F8001DF9
:1015D00010BD00BF7566000000487047F434002459
:1015E0002DE9F0411F46044603260168072A01F44D
:1015F000006004DB08B116A505E016A503E008B1FC
:1016000015A500E015A521F010002060A069C01EFE
:10161000A0610FB1401EA0612046FEF7A3FF4FB1AD
:10162000D4E9012138469047206A401C2062C01C42
:10163000206206E0206AFAE7D4E9012115F8010BDF
:101640009047761EF8D22046FEF7A2FFBDE8F08153
:101650004E414E006E616E00494E4600696E660056
:101660002DE9F047814616468AB0354878440DC8C2
:101670008DE80D0032487844801C03AC0DC884E826
:101680000D0041F69B300844372190FBF1F290FBAE
:10169000F1F5A5F1800501FB12041B3C02D5644263
:1016A000012000E00020DFF898A080460027FA44DF
:1016B000AAF1BE0A0EE0E0070AD03246684607EB00
:1016C000470101230AEB810100F016FB8DE80700BA
:1016D00064107F1C002CEED1194F7F44AE3F19E0FF
:1016E000E80715D007EB04100DF1180A90E80E007A
:1016F0008AE80E00C068F04201D19819089032467D
:10170000012306A903A800F0F7FA03AB83E807005A
:101710006D10641C002DE3D14FF001033246694681
:10172000B8F1000F03A802D000F0D1FA01E000F0F8
:10173000E3FAC9E90001C9F808200AB0BDE8F0875A
:10174000F867000010B50446AFF300802046BDE8FE
:101750001040FEF740BE000000487047D43400241B
:101760004FF0013C50F8042B51F8043B9A4215D13C
:10177000A2EB0C03934313EACC130BD150F8042BC8
:1017800051F8043B9A4209D1A2EB0C03934313EAAC
:10179000CC13E7D04FF00000704700BFD01A01BA59
:1017A000B1FA81F101F0180122FA01F0CB40C1F148
:1017B0002001DBB2C0B2C01A2CFA01F3D11A914356
:1017C00011EAC311E6D1704701491820ABBEFEE70C
:1017D0002600020070475FEA400C08BF91F0000F3E
:1017E0004FEA8C234FEAC12243EA51514FEA1C5081
:1017F00018BF00F5F0404FEA300018BF41F000413B
:101800005FEA6C5C00F02980BCF1FF3F08BF40F04C
:1018100080407047130C06BF12044FF0100C4FF0BD
:10182000000C130E04BF12020CF1080C130F04BFBE
:1018300012010CF1040C930F04BF92000CF1020C86
:10184000D30F04BF52000CF1010C11464FF00002FF
:10185000A0F11F00A0EB0C00704711F0004F08BF73
:10186000704731F000413FF4D5AF0B0C06BF0904BF
:101870004FF0100C4FF0000C0B0E04BF09020CF1DE
:10188000080C0B0F04BF09010CF1040C8B0F04BFF3
:1018900089000CF1020CCB0F04BF49000CF1010CC4
:1018A000CCF12003A0EB0C0022FA03F302FA0CF2B5
:1018B00041EA030100F10100704720F07F4C80EA0B
:1018C000030023F07F47ACEB070303F57C5300F0E4
:1018D000004003F1FF032DE980494FEA154B09B49D
:1018E0004FEA144325EA0B4E24EA03480FF204267C
:1018F00006EB132749083E785FEA320203FB0667CE
:10190000C7F5000707FB06F64FEA54374FEAD646FD
:1019100006F1020607FB066CCCF1005C4FEA1C479F
:101920002CEA074C07FB06F40CFB06F504EB154606
:101930004FEA961634BF00204FF000404FEAD137EF
:1019400006FB07FC4FEA1C4C0CFB0BF7D21B03FBFE
:101950000CF761EB07010CFB0EF7B0EB074072EBE5
:1019600017420CFB08F734BFA2EB0742B2EB074269
:1019700061EB17414FEA0C444FEA910706FB07FC65
:101980004FEA1C4C0CFB0BF7B0EBC74072EB573225
:1019900003FB0CF734BFA2EBC742B2EBC74261EBCB
:1019A00057310CFB0EF7B0EBC70072EB57720CFB14
:1019B00008F734BFA2EBC702B2EBC70261EB577165
:1019C000039F4FEA816141EA921104EBCC044FEA94
:1019D000D1374FEA826206FB07FC42EA90124FEAD7
:1019E00080604FEA1C4C0CFB0BF7D21B03FB0CF77F
:1019F00061EB07010CFB0EF7B0EB074072EB1742EF
:101A00000CFB08F734BFA2EB0742B2EB074261EBD5
:101A100017414FEA8C554FEA910704EB9C2406FBD3
:101A200007FC4FEA1C4C0CFB0BF7B0EBC74072EB0A
:101A3000573203FB0CF734BFA2EBC742B2EBC742ED
:101A400061EB57310CFB0EF7B0EBC70072EB57722E
:101A50000CFB08F734BFA2EBC702B2EBC70261EB85
:101A6000577115EB4C254FEA816141EA92114FEA1B
:101A700082624FEAD13742EA901206FB07FC44F13A
:101A800000044FEA80604FEA1C4C0CFB0BF7D21BA2
:101A900003FB0CF761EB07010CFB0EF7B0EB074003
:101AA00072EB17420CFB08F734BFA2EB0742B2EB14
:101AB000074261EB174115EB1C154FEA813141EAF2
:101AC00092414FEA823242EA90424FEA80304FEA36
:101AD0000C7644F1000448EA03434EEA0B484FF009
:101AE000000EB2EB080C71EB030724BF62463946C7
:101AF0004EEB0E0E4FF0000B0018524149414BEBDC
:101B00000B0BB2EB080C71EB03077BF1000B24BF4E
:101B1000624639464EEB0E0E4FF0000B0018524154
:101B200049414BEB0B0BB2EB080C71EB03077BF15C
:101B3000000B24BF624639464EEB0E0E51EA0207F7
:101B400018BF46F0010616EB0E7655F1000254F16F
:101B5000000103D5BDE88901BDE80088BDE8890121
:101B6000BDE80048B619524141EB0101A3F1010360
:101B7000704780807F7E7D7C7B7A797877767675FA
:101B80007473727171706F6E6E6D6C6C6B6A6A6972
:101B90006868676666656464636362616160605F0C
:101BA0005F5E5E5D5D5C5C5B5B5A5A595958585785
:101BB00057565655555554545353525252515150ED
:101BC00050504F4F4F4E4E4D4D4D4C4C4C4B4B4B40
:101BD0004A4A4A4949494848484747474746464686
:101BE00045454544444444434343434242424241C1
:101BF0004141002B9C4630D477002BD01CB54FEAD6
:101C0000370703B44FF010004FF01001BAF1000F86
:101C100006D0BCF1000FDCBF40F0080040F0080126
:101C20004FF000000FBCBDE810400BF1010BBBF101
:101C3000010F08BF5FEA170722BF12F1010211F17D
:101C400001014FF0004143F1000300F0004043EA7E
:101C500000007047F9D35708D0E746EA064613F16B
:101C6000400F4FEA16461FDD13F1200FDFBF16436A
:101C70000A46002120335B42BED0C3F1200746EA6A
:101C8000064602FA07F74FEA164646EA0706C3F188
:101C9000200722FA03F201FA07F721FA03F14FF0C5
:101CA000000342EA0702A7E746EA020646EA0646BA
:101CB0004FEA164646EA0106BCBF46EA0646360C1F
:101CC0004FF000034FF000024FF0000194E72DE9C0
:101CD000804C9A46934670B491E8380007C831EAC0
:101CE000400C48BF34EA430C03D5FFF7E6FDFFF78D
:101CF00080FFF0BCBDE8008C2DE9804C9A469346ED
:101D000070B491E8380007C810F0804F08BF13F096
:101D1000804F03D100F005F8FFF76BFFF0BCBDE882
:101D2000008C20F07F4780EA030023F07F4C07EB14
:101D30000C03A3F57C5300F00040A3F1FE0392F0E6
:101D4000000F00F0B38095F0000F00F077802DE9D0
:101D500001494FEA11404FEA144621EA004800FBCE
:101D600006FC24EA064708FB06F607FB08F800FB1A
:101D700007F718EB06484CEB164C4FEA124B18EBE2
:101D800007484FEA15464CEB174022EA0B4E0BFB77
:101D900006FC25EA06470EFB06F607FB0EFE0BFBCC
:101DA00007F71EEB064E4CEB164C4FF000061EEBF1
:101DB000074E4CEB174B18EB0B0840F1000018EBEB
:101DC0000E0B58EB000840F100008F1A4FF0000195
:101DD0003CBFC943661B14BFB5EB040C00213CBFDC
:101DE000C943F61B4FEA17444EEA8E0E27EA044514
:101DF0004FEA1C4704FB07622CEA074C05FB07F778
:101E00000CFB05F604FB0CFC16EB074642EB1742F5
:101E100016EB0C4642EB1C421BEB060658EB02028B
:101E2000414146EA9E0601D5BDE80189B6195241F5
:101E300041EB0101A3F10103BDE801894FEA14451B
:101E40004FEA114724EA054621EA074C05FB07F44F
:101E500006FB07F70CFB06F105FB0CFC11EB074139
:101E600044EB17444FEA124711EB0C4144EB1C447E
:101E700022EA074C05FB07F206FB07F70CFB06F608
:101E800005FB0CFC16EB074642EB174216EB0C4623
:101E900042EB1C456A1854F1000148BF7047B6195F
:101EA000524141EB0101A3F10103704795F0000F8E
:101EB00037D04FEA11424FEA144721EA024624EA9A
:101EC000074C02FB07F106FB07F70CFB06F402FBCD
:101ED0000CFC14EB074441EB17414FEA154714EB98
:101EE0000C4441EB1C4125EA074C02FB07F506FBBD
:101EF00007F70CFB06F602FB0CFC16EB074645EB5E
:101F0000174516EB0C4645EB1C42121951F1000126
:101F100048BF7047B619524141EB0101A3F10103DB
:101F200070474FEA14454FEA114724EA054621EA73
:101F3000074C05FB07F106FB07F70CFB06F24FF019
:101F4000000605FB0CFC12EB074241EB174112EBBC
:101F50000C4251EB1C4148BF7047921841EB010104
:101F6000A3F101037047FEE7704772B6FEE7002257
:101F7000AFF300800E4B30B505465C7A0120002C93
:101F800014D1587A1C54587A03EB800045605D7A6E
:101F900003F108002A54587A421C5A7230300870F3
:101FA0003A2048702F2088700020CC7030BD00008F
:101FB000C834002400B501208FB040A102F0A4FD78
:101FC0004FF48050444B00220090072143A003F0BF
:101FD0000BFE08B142A154E0012048A102F094FD9B
:101FE0004D4800223DA104F0BDF808B14BA100E02E
:101FF00051A1012002F088FD5948072255A104F0A3
:10200000DDF808B157A100E05BA1012002F07CFDE2
:102010005E4B0C2252485EA104F0D3FA5B48001FCD
:1020200040680C2813D05EA1012002F06DFD4C48E1
:1020300060A1027B012002F067FD342101A8FEF7B8
:10204000E3FC474803F0BCFD18B160A102E064A1C5
:10205000EAE768A1012002F057FD414801223DA1B5
:1020600004F0ACF808B13FA10BE0012042A102F05E
:102070004BFD3B480C220EAB01A904F0A7F928B197
:1020800061A1012002F040FD0FB000BD012063A15D
:1020900002F03AFD0E9A012065A102F035FD012003
:1020A00001AA6BA102F030FD2D4803F089FD00224A
:1020B0000AA1104604F056F86BA1E2E7E69687E421
:1020C000BBB6E7B3BBE7BB9FE6B58BE8AF95E5BC16
:1020D00080E5A78B2E000000A8240024303A0000E1
:1020E000E5889BE5BBBAE69687E4BBB6E7B3BBE7FA
:1020F000BB9FE5A4B1E8B4A52E000000E5889BE5F0
:10210000BBBAE69687E4BBB6E7B3BBE7BB9FE688FE
:1021100090E58A9F2E00000044040024E69687E4A0
:10212000BBB6E7B3BBE7BB9FE68C82E8BDBDE5A4C9
:10213000B1E8B4A52E000000E69687E4BBB6E7B38D
:10214000BBE7BB9FE68C82E8BDBDE68890E58A9F31
:102150002E000000303A2F746573742E747874006A
:1021600078140024E68993E5BC80E69687E4BBB644
:10217000E5A4B1E8B4A52E00E68993E5BC80E69617
:1021800087E4BBB6E68890E58A9F2E0034000024E1
:1021900048656C6C6F2C576F726C642100000000F6
:1021A000E58699E69687E4BBB6E5A4B1E8B4A52137
:1021B00000000000E69687E4BBB6E5A4A7E5B08F73
:1021C0003A25642042797465732E0000E69687E410
:1021D000BBB6E4BF9DE5AD98E5A4B1E8B4A52E007B
:1021E000E58699E69687E4BBB6E68890E58A9F2166
:1021F00000000000E69687E4BBB6E4BF9DE5AD981D
:10220000E68890E58A9F2E00E8AFBBE69687E4BBA0
:10221000B6E5A4B1E8B4A52100000000E8AFBBE634
:102220009687E4BBB6E68890E58A9F21000000000F
:10223000E8AFBBE588B0E695B0E68DAEE995BFE5C1
:10224000BAA63A25642042797465732E0000000016
:10225000E8AFBBE588B0E5A682E4B88BE695B0E6CA
:102260008DAE3A2573000000E69687E4BBB6E7B36F
:10227000BBE7BB9FE6B58BE8AF95E5AE8CE6AF95C7
:102280002E00000070B5044600F010F90546601CF1
:1022900002D004480078044400F008F9401BA04232
:1022A000FAD370BD000000242DE9F84F694C0022DC
:1022B0004FF0B04A4FF0010B4FF003084FF00F09F9
:1022C000C0E00BFA02F6334073D00D7905F0030538
:1022D000012D01D0022D15D18768550008FA05FCA3
:1022E00027EA0C07D1F80CC00CFA05FC4CEA070CE5
:1022F000C0F808C04568B5430E79C6F3001696408D
:102300002E4346600D79ED43AD0708D0C6685500F1
:1023100008FA05F7BE438F68AF403743C7600D79B1
:1023200005F00305022D11D1D50800EB85073E6AA3
:102330005507ED0E09FA05FC26EA0C06D1F810C087
:102340000CFA05FC4CEA060CC7F820C006685500DC
:1023500008FA05F7BE430F7907F00307AF4037438C
:1023600007604D6815F4403F6BD03B4D2E6846F03A
:1023700002062E602D6822F0030606F1B04605F035
:1023800002050095D6F8087495074FEA157C09FAFE
:102390000CF5AF43314DA84201D100252EE0304D60
:1023A000A84201D1012529E02E4DA84202D10225E3
:1023B00024E046E02C4DA84201D103251EE02B4D20
:1023C000A84201D1042519E0294DA84201D10525D3
:1023D00014E0284DA84201D106250FE0264DA84261
:1023E00001D107250AE0254DA84201D1082505E0C5
:1023F000234DA84201D1092500E00A2505FA0CF574
:102400003D43C6F80854DAF8005056464F689D43DD
:10241000FF0200D51D43356075684F689D43BF02BC
:1024200000D51D43756065684E689D43B60300D5B1
:102430001D43656025684E689D43F60300D51D4326
:102440002560521C0B6833FA02F57FF43AAFBDE801
:10245000F88F000080000058F44402580000025831
:102460000004025800080258000C025800100258DC
:102470000014025800180258001C0258002002588C
:1024800000240258426921EA02030A4043EA024159
:10249000816170470AB1816170470904FBE7000060
:1024A00001480068000C70470010005C014880681B
:1024B000704700000000002402488168027811443F
:1024C0008160704700000024032010B500F078F808
:1024D00001F050F80F4A11681268C1F303230E4946
:1024E000CB5C03F01F03D84002F00F02895C0B4A5B
:1024F00001F01F0120FA01F11160094908600F2065
:1025000000F010F808B1012010BD00F02BF80020F9
:1025100010BD000018440258AE7C000810000024D2
:102520000C00002470B50D4D04462A78A2B14FF47A
:102530007A700B49B0FBF2F00968B1FBF0F001F0E2
:10254000A6FF48B9102C07D200222146501E00F0E9
:1025500017F800206C6070BD012070BD00000024E1
:102560000C000024054808B5016841F00201016033
:10257000006800F00200009008BD0000F44402581A
:102580000E4BF0B41B68C3F30223C3F10704042C01
:1025900000D904241D1D072D01D2002300E0DB1EFD
:1025A000012606FA04F56D1E0D409D409E40761EE4
:1025B000164045EA0601F0BC03F00EB80CED00E051
:1025C000064A00F0070110684FF6FF03184040EA82
:1025D0000120034908431060704700000CED00E043
:1025E0000000FA05124970B50A68D243520705D5B2
:1025F000096801F00701814212D117E00A6822F050
:10260000070202430A60FFF751FF094D4FF47A7643
:102610000446083D06E0FFF749FF001BB04201D920
:10262000012070BD2868C0438004F4D4002070BD30
:102630000C48025810B500F057FF05490968054AD3
:10264000C1F30211515C01F01F01C84010BD000030
:1026500020440258AE7C0008484910B50A68096851
:1026600002F00302454B1B1DC1F305311B68434CAF
:102670001434C3F300132468C4F3CC0414FB03F331
:1026800000EE103AB8EE400AE9B33C4B9FED3C1A1D
:102690001033F7EE000A62B1DFED3A1A012A01D0D9
:1026A000022A5ED002EE101AF8EE422A81EEA22A29
:1026B0001AE0324A283A1468A4060DD51268C2F30B
:1026C000C104314AE24001EE902AF8EE612A01EE9F
:1026D000901AF8EE611A05E001EE901ADFED2B2A50
:1026E000F8EE611A82EEA12A1968C1F3080101EE21
:1026F000901A1968F8EE611A40EE011A31EEA00A3C
:1027000022EE000A00E033E0C1F3462101EE101A88
:10271000B8EE411A31EE201AC0EE011ABCEEE11AF1
:1027200080ED001A1968C1F3064101EE101AB8EEE7
:10273000411A31EE201AC0EE011ABCEEE11A80ED0A
:10274000011A1968C1F3066101EE101AB8EE411AB8
:1027500071EE200A80EE201ABCEEC10A80ED020A5A
:1027600010BD01EE901ADFED0A2AF8EE611AB9E702
:10277000002101604160816010BD000028440258C2
:10278000000000390024744A0090D0030024744CE7
:1027900020BCBE4B484910B50A68096802F0030224
:1027A000454B1B1DC1F305511B68434C1C34C3F33F
:1027B00000232468C4F3CC0414FB03F300EE103AA6
:1027C000B8EE400AE9B33C4B9FED3C1A1833F7EEE4
:1027D000000A62B1DFED3A1A012A01D0022A5ED066
:1027E00002EE101AF8EE422A81EEA22A1AE0324ACC
:1027F000283A1468A4060DD51268C2F3C104314A00
:10280000E24001EE902AF8EE612A01EE901AF8EE0D
:10281000611A05E001EE901ADFED2B2AF8EE611A3D
:1028200082EEA12A1968C1F3080101EE901A196815
:10283000F8EE611A40EE011A31EEA00A22EE000A0B
:1028400000E033E0C1F3462101EE101AB8EE411A60
:1028500031EE201AC0EE011ABCEEE11A80ED001A2A
:102860001968C1F3064101EE101AB8EE411A31EEB3
:10287000201AC0EE011ABCEEE11A80ED011A1968A7
:10288000C1F3066101EE101AB8EE411A71EE200A8A
:1028900080EE201ABCEEC10A80ED020A10BD01EEE6
:1028A000901ADFED0A2AF8EE611AB9E700210160FB
:1028B0004160816010BD00002844025800000039CA
:1028C0000024744A0090D0030024744C20BCBE4BFA
:1028D0002DE9FC5F044600680025FA4FC043DFF88D
:1028E000E8832E46010104F10800019004F128005C
:1028F00000901DD4A06E50B1B0F5801F0CD0B0F583
:10290000001F0ED0B0F5401F1ED001250FE0386823
:1029100040F40030386017E00198022101F0E0FF38
:1029200003E00098022102F065F805000CD02E4665
:102930002088C043C00523D4A06D05281ED2DFE83F
:1029400000F00C11161B1B00D8F80010A26E21F429
:1029500040111143C8F80010EAE7386840F400302D
:10296000386009E00198002101F0BAFF03E0009807
:10297000002102F03FF8054675B100E001252E4622
:102980002088C043800528D4E06D80281ED00CDC50
:1029900090B140280ED114E0D8F80010A26D21F0BB
:1029A00007011143C8F80010EAE7C02813D0B0F5BA
:1029B000807F10D001250FE0386840F40030386087
:1029C00009E00198002101F08BFF03E0009800214D
:1029D00002F010F805468DB12E462088DFF8EC9203
:1029E000C04340052CD4D4F8A800B0F5800F20D007
:1029F0000DDCA0B1B0F5001F0FD115E0D8F8001024
:102A0000E26D21F4E0711143C8F80010E5E7B0F57C
:102A1000C00F13D0B0F5000F10D001250FE03868BB
:102A200040F40030386009E00198002101F058FFBF
:102A300003E00098002101F0DDFF05467DB12E4640
:102A40002088C04300052DD4D4F8AC00B0F1007F3D
:102A500021D00EDCA8B1B0F1807F10D116E0D9F8FA
:102A60000010D4F8A82021F460011143C9F8001027
:102A7000E6E7B0F1407F13D0B0F1806F10D00125B0
:102A80000FE0386840F40030386009E00198002118
:102A900001F026FF03E00098002101F0ABFF05469E
:102AA00075B12E462068C04380011FD4E06CD8B1B8
:102AB00010280FD0202812D0302815D0012514E07E
:102AC000D9F80010D4F8AC2021F0E0611143C9F826
:102AD0000010E7E7386840F40030386004E00198FF
:102AE000022101F0FDFE054675B12E462088C04347
:102AF000C0042BD4206EB0F5005F20D00DDCA0B157
:102B0000B0F5805F0FD115E06F48001F0168E26CDF
:102B100021F0300111430160E8E7B0F5405F13D0C8
:102B2000B0F5804F10D001250FE0386840F4003038
:102B3000386009E00198002101F0D2FE03E000981E
:102B4000002101F057FF05468DB12E462088C04375
:102B5000800429D4606EB0F5403F23D010DC08B368
:102B6000B0F5803F14D0B0F5003F0FD115E0D8F894
:102B70000010226E21F4E0411143C8F80010E5E78F
:102B8000B0F5802F0ED0B0F5A02F0BD001250AE0B4
:102B90000198012101F0A4FE03E00098012101F059
:102BA00029FF054695B12E462088C04340042AD40B
:102BB000D4F8B000B0F1405F23D010DC08B3B0F11E
:102BC000805F14D0B0F1005F0FD115E0D8F800108D
:102BD000626E21F4E0211143C8F80010E4E7B0F17F
:102BE000804F0ED0B0F1A04F0BD001250AE0019824
:102BF000012101F075FE03E00098012101F0FAFEC9
:102C0000054675B12E462088C04300041FD4206FAE
:102C1000D8B1B0F1805F0ED0B0F1005F10D00125C7
:102C200014E0D9F80010D4F8B02021F0E0411143AD
:102C3000C9F80010E7E7386840F40030386004E075
:102C40000198012101F04CFE054675B12E46206821
:102C5000C043C0011ED4A06CD0B101280ED0022800
:102C600011D0032814D0012513E0D8F80010226FEA
:102C700021F040511143C8F80010E8E7386840F4EB
:102C80000030386004E00198022101F029FE054679
:102C90007DB12E462068DFF838B0C043400256D4DC
:102CA0000C48016841F480710160FFF7FFFB824628
:102CB00018E00548001F0168A26C21F003011143D0
:102CC0000160E7E72C440258504402585844025827
:102CD0001044025800480258FFF7E8FBA0EB0A0036
:102CE00064282CD8FE480068C005F5D545BBFD48D2
:102CF0000068B4F8B41000F4407001F440718842E8
:102D00000CD0F8480168026821F4407142F4803226
:102D10000260026822F4803202600160D4F8B400DC
:102D2000B0F5807F1AD1FFF7C1FB824609E0FFF7BB
:102D3000BDFBA0EB0A0141F28830814201D9032595
:102D400004E0E84800688007F1D53DB12E462078C0
:102D5000DFF894A3C043C00720D03BE0D4F8B40010
:102D6000C0F3012103290ED0DBF8001021F47C51BF
:102D7000CBF80010DB480168B4F8B420C2F30B02B2
:102D800011430160E3E7DBF80020D84B22F47C52CA
:102D900003EA10100243CBF80020EBE7E06F18289D
:102DA00016D005DCA0B1082808D0102804D10AE00C
:102DB00020280DD028280BD001250AE001980121F8
:102DC00001F08EFD03E00098012101F013FE05469D
:102DD00065B12E462078C04380071ED4A06F062818
:102DE00019D2DFE800F0160C11161616DAF80010EA
:102DF000E26F21F038011143CAF80010EAE70198A8
:102E0000012101F06DFD03E00098012101F0F2FDC8
:102E100005467DB100E001252E462078C0434007DD
:102E20001FD4D4F89400062819D2DFE800F0160C5D
:102E300011161616DAF80010A26F21F007011143DF
:102E4000CAF80010E9E70198012101F049FD03E00B
:102E50000098012101F0CEFD0546A5B100E0012555
:102E60002E462078C04380062BD4D4F89000B0F1D1
:102E7000405F24D011DC10B3B0F1805F15D0B0F109
:102E8000005F10D116E0D9F80010D4F8942021F09A
:102E900007011143C9F80010E3E7B0F1804F0ED0ED
:102EA000B0F1A04F0BD001250AE00198002101F0FC
:102EB00017FD03E00098022101F09CFD054695B145
:102EC0002E462078C04340062BD4D4F89C00B0F5A1
:102ED000406F24D011DC10B3B0F5806F15D0B0F581
:102EE000006F10D116E0DAF80010D4F8902021F02D
:102EF000E0411143CAF80010E3E7B0F5805F0ED05F
:102F0000B0F5A05F0BD001250AE00198002101F087
:102F1000E7FC03E00098022101F06CFD054695B145
:102F20002E462078C04300062BD4D4F8A000B0F57C
:102F3000C04F24D011DC10B3B0F5005F15D0B0F550
:102F4000804F10D116E0D9F80010D4F89C2021F45D
:102F5000E0511143C9F80010E3E7B0F5004F0ED07F
:102F6000B0F5204F0BD001250AE00198002101F0B7
:102F7000B7FC03E00098022101F03CFD054655B185
:102F80002E462078C04300071ED4D4F88400B0F544
:102F9000805F0AD00FE0D9F80010D4F8A02021F407
:102FA00060411143C9F80010EBE70098022101F0DD
:102FB00021FD00B10126DAF80010D4F8842021F4B4
:102FC00040511143CAF800102078C043C00613D402
:102FD000D4F89800B0F5807F05D10098022101F067
:102FE00009FD00B10126D9F80010D4F8982021F489
:102FF00040711143C9F800102068C043000316D483
:10300000D4F8A40038B1B0F5803F09D0B0F5003F46
:103010000BD001250AE00198002101F061FC03E0DA
:103020000098022101F0E6FC05468DB12E4620688D
:10303000C043400322D4D4F88800B0F5801F11D0DB
:10304000B0F5001F13D0B0F5401F15D0012514E0D6
:10305000D9F80010D4F8A42021F440311143C9F864
:103060000010E4E7386840F40030386004E000986D
:10307000012101F0BFFC05465DB12E462068C0432A
:10308000C0031CD4206D70B1B0F5803F10D0012575
:1030900014E0DAF80010D4F8882021F4401111432C
:1030A000CAF80010EAE7386840F40030386004E0FD
:1030B0000198022101F014FC05462DB32E4620682C
:1030C000C043800005D40098022101F093FC00B1B8
:1030D00001262068C043800324D4D4F8800007E090
:1030E000004802587044025854440258CFFFFF0071
:1030F000B0B1B0F5807F0FD0B0F5007F10D0B0F543
:10310000407F0DD001250CE05A480168226D21F462
:10311000803111430160D2E7386840F400303860F4
:10312000F5B32E462068C043C00207D4D8F800107B
:10313000626F21F000411143C8F800102068C043BD
:10314000C00008D4DBF80010D4F8B82021F4804186
:103150001143CBF800102068C043800207D4D8F890
:103160000010E26E21F080711143C8F80010206851
:10317000C04340000CD4DBF8001021F40041CBF830
:103180000010DBF80010D4F8BC201143CBF800107D
:103190002068C04308D43748016821F0405100E05E
:1031A00017E0626D114301602068C043000208D43B
:1031B000DAF80010D4F88C2021F440011143CAF849
:1031C000001020790025C04300F0010028430AD0F8
:1031D0000FE0DAF80010D4F8802021F44071114398
:1031E000CAF800109EE70198002101F079FB00B1B8
:1031F00006462079C04300F00200284305D101981B
:10320000012101F06DFB00B106462079C04300F0BA
:103210000400284305D10198022101F061FB00B1AF
:1032200006462079C04300F00800284305D10098E5
:10323000002101F0DFFB00B106462079C04300F019
:103240001000284305D10098012101F0D3FB00B103
:1032500006462079C04300F02000054304D10098C1
:10326000022101F0C7FB00B916B10120BDE8FC9FA7
:103270000020FBE74C4402582DE9F05F04000D46A6
:103280007ED0DFF84492D9F8000000F00F00A84289
:103290000CD2D9F8001021F00F012943C9F8001011
:1032A000D9F8000000F00F00A84269D12078874EBD
:1032B00040070AD52069316801F07001884204D9BD
:1032C000316821F07001014331602078DFF800821D
:1032D00000070CD560694146D8F8002002F0700262
:1032E000904204D90A6822F0700202430A602078F2
:1032F000C0060CD5A0694146D8F8002002F4E0626F
:10330000904204D90A6822F4E06202430A602078FD
:10331000DFF8C0B180060CD5E0695946DBF8002023
:1033200002F07002904204D90A6822F0700202434F
:103330000A60207880070AD5E068316801F00F0143
:10334000884204D9316821F00F01014331602078AF
:10335000C0073DD03068A16820F470600843306039
:103360005A4960681839022818D0032819D009680A
:10337000012819D04907002949DADFF850A100E0F7
:1033800045E0AAF1080ADAF8001021F0070101432C
:10339000CAF80010FFF78AF8074611E009688903A8
:1033A000E9E709688901E6E7C905E4E7FFF77EF880
:1033B000C11B41F28830814202D90320BDE8F09F51
:1033C000DAF80000616800F03800B0EBC10FEDD111
:1033D000207880070AD5E068316801F00F01884243
:1033E00004D2316821F00F0101433160D9F8001097
:1033F000484601F00F01A9420BD9016821F00F01E5
:1034000029430160006800F00F00A84201D00120AC
:10341000D4E7207840070AD52069316801F07001AF
:10342000884204D2316821F0700101433160207874
:1034300000070CD560694146D8F8002002F0700200
:10344000904204D20A6822F0700202430A60207897
:10345000C0060CD5A0694246D8F8001001F4E0611E
:10346000884204D2116821F4E061014311602078A0
:1034700080060CD5E0695946DBF8002002F07002A6
:10348000904204D20A6822F0700202430A6000F0FF
:1034900071F83168C1F303220F498A5C02F01F0200
:1034A000D040326802F00F02895C0C4A01F01F0123
:1034B00020FA01F111600A4908600A480068BDE875
:1034C000F05FFFF72FB800000020005218440258A8
:1034D0001C44025820440258AE7C0008100000240E
:1034E0000C0000240400002400B500F043F80B4A4F
:1034F00011681268C1F303230949CB5C03F01F0371
:10350000D84002F00F02895C064A01F01F0120FA40
:1035100001F11160044A1060084600BD18440258C9
:10352000AE7C0008100000240C00002400B5FFF75A
:10353000DBFF05490968054AC1F30211515C01F03E
:103540001F01C84000BD00001C440258AE7C0008AA
:1035500000B5FFF7C9FF05490968054AC1F3022113
:10356000515C01F01F01C84000BD00001C4402581E
:10357000AE7C0008434830B50068444C10F0380178
:10358000414808D00211082903D010290BD018296E
:103590000BD0104630BD21688906FBD52168C1F3E8
:1035A000C101C84030BD3A4830BD364918310A68BB
:1035B000096802F00302334B1C33C1F305111B6889
:1035C000304D03F0010324352D68C5F3CC0515FB00
:1035D00003F300EE103AB8EE400AE9B3294BDFEDF1
:1035E0002D0A2033B7EE001A62B1DFED2B1A012A43
:1035F00001D0022A3CD002EE101AF8EE422A81EEE7
:10360000A22A17E0226892060CD52268C2F3C102F2
:10361000D04001EE900AF8EE612A01EE901AF8EE21
:10362000611A05E001EE901ADFED1C2AF8EE611A2E
:1036300082EEA12A1868C0F3080001EE900A18680B
:10364000F8EE611A40EE201A31EE810A22EE000AED
:10365000C0F34620401C00E011E000EE900AF8EEB6
:10366000600A80EE201ABCEEC10A10EE100A30BDCE
:1036700001EE901ADFED0A2AF8EE611AD8E7002071
:1036800030BD0000104402580090D003004402589E
:1036900040787D01000000390024744A0024744CF5
:1036A00020BCBE4B2DE9F05F040079D02078DFF814
:1036B000F8A3FE4EFE4DC00747D0DAF8000031688F
:1036C00000F03800102815D0182803D101F00300AD
:1036D00002280FD06068B0F5803F12D010B1B0F56D
:1036E000A02F18D0286820F480302860286820F4A3
:1036F000802009E02868800327D560680028D4D09E
:1037000023E0286840F480302860606888B1FEF7C4
:10371000CDFE074609E0286840F480202860F0E7E5
:10372000FEF7C4FEC01B642872D828688003F7D552
:103730000BE0FEF7BBFE074604E0FEF7B7FEC01B3A
:103740006428F1D828688003F7D4207841F203096F
:10375000D84F800766D5DAF80000316810F03800DD
:103760000ED0182801D188070AD0E06880B32968F4
:1037700021F0190101432960FEF798FE80462EE0F2
:103780002868400702D5E06800288ED02868E168E4
:1037900020F0190008432860FEF788FE804606E006
:1037A000D8E0FEF783FEA0EB08000228BCD828680A
:1037B0004007F6D5FEF774FE48451AD82069402820
:1037C00011D0396821F47C3141EA0030386029E0B9
:1037D00016E0FEF76BFEA0EB08000228A4D82868CC
:1037E0004007F6D5E6E7386820F47C3040F4003036
:1037F000ECE73868217C20F0FE4040EA0160E5E714
:10380000286820F001002860FEF750FE804606E0A0
:1038100000E1FEF74BFEA0EB0800022884D82868E0
:103820004007F6D42078C0065AD5DAF8000031688F
:1038300000F03800DFF870B20828ABF1040B10D0AC
:10384000182803D101F0030001280AD0E0690028FC
:10385000286836D040F080002860FEF727FE8046BA
:1038600021E02868C00521D5E069802872D11DE0DB
:10387000206A20281FD0396821F0F84141EA806091
:1038800038602DE0DBF8001094F8202021F07C5106
:1038900041EA0261CBF8001022E0FEF707FEA0EB40
:1038A000080002289AD82868C005F6D5FEF7F8FD6A
:1038B0004845E7D8DCE7386820F0F84040F0804021
:1038C000DEE720F080002860FEF7F0FD074604E008
:1038D000FEF7ECFDC01B0228A0D82868C005F7D46D
:1038E0002078000728D5714960694C310028884646
:1038F0000846096810D041F001010160FEF7D6FDCD
:10390000074604E0FEF7D2FDC01B022886D8D8F88F
:1039100000008007F6D50FE021F001010160FEF7FD
:10392000C5FD074604E0FEF7C1FDC01B022871D8A3
:10393000D8F800008007F6D42078800623D5A06947
:103940000028286810D040F480502860FEF7AEFDB3
:10395000074605E038E1FEF7A9FDC01B022859D84B
:1039600028688004F7D50EE020F480502860FEF728
:103970009DFD074604E0FEF799FDC01B022849D8CB
:1039800028688004F7D4207840074DD5DFF82881D7
:10399000D8F8001041F48071C8F80010FEF786FDD9
:1039A000074604E0FEF782FDC01B642832D8D8F831
:1039B0000000C005F6D53D4FA068483701280AD061
:1039C00008B1052813D0386820F001003860386845
:1039D00020F0040002E0386840F001003860A06880
:1039E00041F2883990B1FEF761FD80460AE03868FF
:1039F00040F004003860EEE7FEF758FDA0EB080148
:103A0000494507D838688007F6D50DE0FEF74EFD2A
:103A1000804606E083E0FEF749FDA0EB080149453A
:103A20007DD838688007F6D4616AD9B3DAF8000027
:103A30004FF6F87BDFF8748008F10808C0F3C20085
:103A4000032808F10409A8F1040A69D028680229AA
:103A500020F08070286003D0FEF728FD044688E03F
:103A6000FEF724FD074604E0FEF720FDC01B0228F8
:103A70007CD828688001F7D4306840F2F33188435D
:103A8000E16A40EA0110A16A0843306094F834000A
:103A9000218E4002491EA0F5007080B2C1F30801DA
:103AA00008430BE0B3E000001044025828440258D9
:103AB000004402580444025800480258218F4FF431
:103AC000FE02491E02EA0141084394F83C1012022A
:103AD000491E02EA01610843C8F80000DAF8001044
:103AE000504621F00101CAF80010D9F80020A36C5B
:103AF00022EA0B0242EAC302C9F80020DAF80010F9
:103B0000226C21F00C011143CAF80010DAF8001001
:103B1000626C21F0020111430160016801E025E0BF
:103B20002BE041F480310160016841F40031016013
:103B3000016841F480210160016841F001010160E8
:103B4000286840F080702860FEF7B0FC044604E06E
:103B5000FEF7ACFC001B022808D828688001F7D5C6
:103B600055E0FEF7A3FC001B022802D90320BDE8A4
:103B7000F09F28688001F4D449E03268D8F800004A
:103B8000012921D0A36A02F0030199421CD1E16A04
:103B9000C2F30512914217D1216BC0F30802491EEE
:103BA0008A4211D1616BC0F34622491E91420BD16A
:103BB000A16BC0F30642491E914205D1E16BC0F3EF
:103BC0000660491E814201D00120D0E7D9F80000EB
:103BD0004F46A16CC0F3CC00814218D0DAF8000047
:103BE000564620F00100CAF80000FEF75FFC0546CB
:103BF000FEF75CFCA842FBD03868A16C20EA0B0001
:103C000040EAC1003860306840F0010030600020B8
:103C1000ADE700002DE9F041040027D00025A562A2
:103C2000554F2068554A564BB84206D0904204D0B2
:103C3000984202D0E1680F2918D8E16B012606EB03
:103C4000511CE1680831C908B84201FB0CF105D0EC
:103C5000904203D0984201D0082907D8B84203D037
:103C6000904201D0984204D1102902D90120BDE828
:103C7000F08194F8810020B9204684F8805000F04B
:103C800081F8022084F881002068016821F0010198
:103C900001602068816801F4F812A169B1F1806FB8
:103CA00010D16168B1F5800F01D019B10AE0A16BA4
:103CB00021B107E0A16BB1F1805F03D1016841F44C
:103CC000805101606068400209D5E068072806D38A
:103CD00020680168236D21F48071194303E0206896
:103CE000016821F480710160A16AE0690843E16B19
:103CF00011430843E168084321688860616A606B8A
:103D0000A2690843A16B1143084321690843616913
:103D10000843216A084361680843E16C0843A168CD
:103D20000843A16C0843A16D08432168C86060681E
:103D300068B92068816821F4C05141F40061816054
:103D40002068816821F4C06141F48061816020684D
:103D5000016D21F0010101656068400206D520680F
:103D6000C168626D21F000411143C160C4F8845004
:103D700084F8816000207AE700300140003800407C
:103D8000003C004070B5B6B00446142130A8FCF7E2
:103D90003BFEC0216846FCF737FE20492068884278
:103DA0003AD18114002018900546CDE900106846EC
:103DB000FEF78EFD08B1FEF7D8F81948016841F406
:103DC00080510160006800F480503590144810382C
:103DD000016841F008010160016801F008013591B6
:103DE000016841F002010160006830A9022400F07E
:103DF000020035908020052681E831000948CDE990
:103E00003346FEF751FA30A9182081E83100064800
:103E1000CDE93346FEF748FA36B070BD00300140B8
:103E2000F0440258000C0258000402582DE9F84FE3
:103E300004461D460020174600908B46206800F17E
:103E4000300A94F8800001280DD04FF0010984F861
:103E50008090FEF72BFB94F8811006460020012984
:103E600004D0022135E00220BDE8F88FBBF1000F3D
:103E70002ED06FB3042184F881108046C4F88400EA
:103E8000C4F864B0A4F86870A4F86A70E065A4F897
:103E90006000A4F8620020676067A068B0F5C02FDA
:103EA00020681AD0C16821F4C02141F48021C1608A
:103EB000206841686FF30F01394341602068016851
:103EC00041F0010101606068B0F5800F0AD00EE09A
:103ED000012184F880000846C6E7016821F40061EA
:103EE0000160E5E72068016841F400710160E06865
:103EF0000F281FD948F20807B4F86A00B0B3206849
:103F0000416939420BD0006B616E0860606E001D24
:103F10006066B4F86A00401EA4F86A00ECE7FEF799
:103F2000C5FA801BA84202D3681CE5D050E0002DE2
:103F3000E2D14DE007281BD839E020684069C0076E
:103F40000CD0BAF80000616E0880606E801C60665C
:103F5000B4F86A00401EA4F86A0009E0FEF7A6FA69
:103F6000801BA84203D3681C02D031E023E075B364
:103F7000B4F86A000028E0D11DE020684169C90753
:103F80000CD090F83000616E0870606E401C606666
:103F9000B4F86A00401EA4F86A0008E0FEF786FA4A
:103FA000801BA84202D3681C01D011E07DB1B4F897
:103FB0006A000028E1D1204600F0F4FD84F88080FA
:103FC00084F88190D4F8840088B101204CE7FFE7A1
:103FD000204600F0E7FD84F88080D4F8840040F4A7
:103FE0008070C4F8840084F8819003203CE7009836
:103FF0003AE72DE9FC5F0446076800201D46019062
:10400000203794F8800090468B4601280DD04FF061
:10401000010A84F880A0FEF749FA94F88110064658
:104020000020012904D0022138E00220BDE8FC9FD5
:10403000BBF1000F31D0B8F1000F2ED0032184F86E
:1040400081108146C4F88400C4F85CB0A4F8608094
:10405000A4F862806066A4F86800A4F86A0060674B
:104060002067A068B0F5C02F20681BD0C16821F47C
:10407000C02141F40031C160206841686FF30F0135
:1040800041EA080141602068016841F001010160D6
:104090006068B0F5800F0AD00EE0012184F880003E
:1040A0000846C3E7016841F400610160E4E7206865
:1040B000016841F400710160E0680F281AD81EE021
:1040C0002068416989070BD5E16D09680162E06DDF
:1040D000001DE065B4F86200401EA4F8620009E02B
:1040E000FEF7E4F9801BA84202D3681C02D091E0DD
:1040F000002D2ED0B4F862000028E1D170E007282E
:1041000029D869E02068416989071BD5B4F8621095
:1041100001290BD9E16B49B1E16D09680162E06DDC
:10412000001DE065B4F86200801E08E0E06D0088C4
:104130003880E06D801CE065B4F86200401EA4F891
:10414000620008E0FEF7B2F9801BA84202D3681CA7
:1041500001D05FE0B5B3B4F862000028D2D13FE0EF
:104160002068416989072ED5B4F8621003290CD95B
:10417000E16B402909D9E16D09680162E06D001D1C
:10418000E065B4F86200001F19E0B4F8621001297C
:104190000BD9E16B49B1E06D00883880E06D801C7F
:1041A000E065B4F86200801E09E0E16D097880F8EE
:1041B0002010E06D401CE065B4F86200401EA4F8D9
:1041C000620009E026E0FEF771F9801BA84202D3E5
:1041D000681C01D01EE0EDB1B4F862000028BFD128
:1041E00000222B4608212046009600F039FD28B118
:1041F000D4F8840040F02000C4F88400204600F089
:10420000D1FC84F8809084F881A0D4F8840080B137
:1042100001200BE7204600F0C5FC84F88090D4F81C
:10422000840040F48070C4F8840084F881A00320E6
:10423000FCE60198FAE62DE9FF4F83B00446002022
:104240001D46109F0190206800F12001009100F1AF
:10425000300B94F8800001280ED04FF0010A84F84A
:1042600080A0FEF723F994F8811080462E460020A6
:10427000012905D0022132E0022007B0BDE8F08F0D
:10428000049959B3059949B345B3052184F88110C0
:104290008146C4F8840005996166A4F86A50A4F8C0
:1042A00068500499E165A4F86250A4F86050206752
:1042B00060672068C16821F4C021C160206841683E
:1042C0006FF30F01294341602068016841F001014B
:1042D00001606068B0F5800F05D009E0012184F825
:1042E00080000846C9E72068016841F40071016058
:1042F000E0680F2831D834E02068416989070DD57E
:1043000065B1E16D09680162E06D001DE065B4F81A
:104310006200401EA4F86200B4F86250206841694F
:1043200048F2080211420DD066B1006B616E086060
:10433000606E001D6066B4F86A00401EA4F86A0052
:10434000B4F86A60FEF7B2F8A0EB0800B84202D3F6
:10435000781C02D08AE0002F34D055EA0600CBD179
:1043600069E0072830D863E02068406980070ED5EF
:104370006DB1E06D018800980180E06D801CE06502
:10438000B4F86200401EA4F86200B4F862502068DD
:104390004069C0070ED06EB1BBF80000616E0880A6
:1043A000606E801C6066B4F86A00401EA4F86A0063
:1043B000B4F86A60FEF77AF8A0EB0800B84202D3BE
:1043C000781C01D052E08FB355EA0600CCD132E020
:1043D0002068416989070ED56DB1E16D097880F8D3
:1043E0002010E06D401CE065B4F86200401EA4F8A7
:1043F0006200B4F8625020684169C9070ED06EB1FE
:1044000090F83000616E0870606E401C6066B4F811
:104410006A00401EA4F86A00B4F86A60FEF746F825
:10442000A0EB0800B84202D3781C01D01EE0EFB127
:1044300055EA0600CCD100223B4608212046CDF8A3
:10444000008000F00DFC28B1D4F8840040F020007A
:10445000C4F88400204600F0A5FB84F8809084F81E
:1044600081A0D4F8840080B1012006E7204600F046
:1044700099FB84F88090D4F8840040F48070C4F8EC
:10448000840084F881A00320F7E60198F5E6401E39
:10449000B0F1807F10B501D3012010BD4FF0E024B2
:1044A00060610F21601701F097F80020A0610720DC
:1044B0002061002010BD90F88410012918D001213E
:1044C00080F884102421C0F8881001680A680B68FD
:1044D00023F001030B6022F00051002242660368C2
:1044E00019602021C0F8881080F884201046704799
:1044F0000220704770B5044690F8840001281DD052
:10450000012084F884002420C4F88800206805680D
:10451000026822F0010202602068826822F0606274
:104520000A438260204600F083FC2068056020205A
:10453000C4F88800002084F8840070BD022070BD9B
:1045400070B5044690F8840001281DD0012084F83D
:1045500084002420C4F8880020680568026822F0DE
:10456000010202602068826822F060420A43826091
:10457000204600F05DFC206805602020C4F888001B
:10458000002084F8840070BD022070BD10B50400C6
:1045900003D0D4F8880010B107E0012010BD00203E
:1045A00084F88400204600F027F82420C4F888000E
:1045B0002068016821F001010160204600F03EFD05
:1045C0000128EBD0A06A10B1204600F053FC20680F
:1045D000416821F4904141602068816821F02A01FE
:1045E00081602068016841F0010101602046BDE85A
:1045F000104000F0A3BC000030B5B7B00446142151
:1046000030A8FCF701FAC0216846FCF7FDF91F4904
:104610002068884238D1002101200C460225CDE9CE
:1046200000010A200A9060200B9005200C90CDE933
:104630000D056802CDE90F01102011911F90684609
:10464000FEF746F908B1FDF790FC1148016841F00A
:1046500010010160006800F0100035900C4810381F
:10466000016841F001010160006830A900F001001B
:1046700035904FF4C06030900720CDE93154CDE93A
:1046800033400448FDF710FE37B030BD0010014044
:10469000F0440258000002582DE9F8430446D0F8CF
:1046A00088001F4615460E46202802D00220BDE88D
:1046B000F883AEB1A5B10020C4F890002120C4F861
:1046C00088001834FDF7F2FEA5878146E5874FF094
:1046D000200854F8100C183CB0F5805F02D003E0BD
:1046E0000120E4E7206910B13546002610E00025DE
:1046F0000EE08021204600F06FFEB8B9D5B115F864
:10470000010B21688862B4F85600401EA4F85600D8
:10471000B4F856004B464FF0000200970028E8D14D
:104720004FF04001204600F057FE40B1C4F88880A9
:104730000320BCE736F8020BC0F30800E1E7C4F839
:1047400088800020B3E7FEE70449054810B5FDF76F
:104750000EFC0249491E087010BD00004D000024E7
:1047600038000024F0B587B014216846FCF74CF9F6
:104770002548016841F010010160016801F0100155
:104780000591016841F080010160016801F080013C
:104790000591016841F001010160016801F001012A
:1047A0000591016841F008010160016801F008010C
:1047B0000591016841F00201016000680022134E7A
:1047C000082100F0020005903046FDF763FE104F0F
:1047D000012240213846FDF75DFE0820694601248C
:1047E00002258DE83100002003903046FDF75CFD86
:1047F00040206946CDE90004CDE902453846FDF781
:1048000053FD07B0F0BD0000E0440258001002580C
:10481000000C025815480722134910B501604FF4E7
:10482000800141600021C0E902124FF08062016105
:10483000C0E90512C1611201016241628162C16277
:10484000C0E90D21C163016441648164C1640165F3
:1048500041658165FFF7DEF9002803D0BDE810400F
:10486000FDF783BB10BD000000300140640100244F
:1048700018480C22164910B501604FF4E13141602F
:1048800000218160C160C0E904128161C1610162DF
:1048900041628162FFF77AFE08B1FDF766FB0D48C1
:1048A0000021FFF74DFE08B1FDF75FFB094800212D
:1048B000FFF720FE08B1FDF758FB0648FFF7FBFDA8
:1048C000002803D0BDE81040FDF74FBB10BD00002D
:1048D00000100140EC010024FEE7FEE770470000F5
:1048E0002DE9F047DFF8088104460E464FF0000935
:1048F000D8F80000C043800709D03D4D283D286806
:1049000020F080602860FDF7D1FD074607E0012018
:10491000BDE8F087FDF7CAFDC01B022860D82868F3
:104920000001F7D4D8F80010226821F47C3141EA64
:104930000231C8F80010207A4FF4FE02A18840022C
:10494000491EA0F5007080B2C1F308010843A18997
:10495000491E02EA01410843217C1202491E02EA73
:10496000016108432249103108602148001D016897
:10497000626921F0C001114301600168A26921F060
:10498000200111430160016821F010010160184904
:1049900014310A684FF6F8739A43E36942EAC30296
:1049A0000A60016841F0100101606EB10168012EDA
:1049B0000ED041F400110160286840F0806028604A
:1049C000FDF774FD04460DE0016841F40021F2E7B3
:1049D00041F48011EFE7FDF769FD001B022801D9C2
:1049E000032095E728680001F5D5484690E70000C8
:1049F000284402582DE9F047DFF8088104460E46A6
:104A00004FF00009D8F80000C043800709D03D4DA1
:104A1000283D286820F080502860FDF747FD0746B4
:104A200007E00120BDE8F087FDF740FDC01B02282C
:104A300060D828688000F7D4D8F80010228821F0C8
:104A40007C7141EA0251C8F80010207A4FF4FE024E
:104A5000A1884002491EA0F5007080B2C1F3080190
:104A60000843A189491E02EA01410843217C120240
:104A7000491E02EA016108432249183108602148B1
:104A8000001D0168626921F4406111430160016801
:104A9000A26921F4007111430160016821F4807161
:104AA000016018491C310A684FF6F8739A43E369AC
:104AB00042EAC3020A60016841F4807101606EB18C
:104AC0000168012E0ED041F080710160286840F02D
:104AD00080502860FDF7EAFC04460DE0016841F4CF
:104AE0008001F2E741F40001EFE7FDF7DFFC001B76
:104AF000022801D9032095E728688000F5D54846AB
:104B000090E70000284402580FB43EB51A4908AA9D
:104B100001EBC00419480799083CFBF7FBFCFDF7C3
:104B2000C5FC1749B0FBF1F3B0FBF1F201FB130038
:104B30004EF66021B0FBF1F5B0FBF1F301FB15007F
:104B40004FF47A71B0FBF1F00C4900900B48CDE9BD
:104B50000141FA380BA1FBF7EFFC0848FA38FBF7E4
:104B60009BFE064982B20E486423FA39FFF794FD92
:104B70003EBC5DF814FB0000BE7C00087A030024F4
:104B800080EE36000D0A5B253032753A25303275DD
:104B90003A253032755D5B25735D3A202573000040
:104BA000EC01002410B502685169936943F00803D1
:104BB00093610268936943F010039361026813687C
:104BC00023F0010313600268136940F26F34A343BA
:104BD00013610268936823F44043936090F8812046
:104BE000042A0CD08A060AD5D0F8842042F080022C
:104BF000C0F884200268936943F02003936190F821
:104C00008120032A0CD04A060AD5D0F8842042F02D
:104C10000402C0F884200268936943F04003936162
:104C20008A050AD5D0F8842042F00102C0F8842019
:104C30000268936943F400739361C9050AD5D0F8FB
:104C4000841041F00801C0F8841001688A6942F4B8
:104C500080728A610021A0F86210A0F86A1010BD6D
:104C60002DE9F0411C4616460D460746DDF8188032
:104C700009E0FDF71BFCA0EB0800A04202D3601C7A
:104C800001D00BE054B13868406935EA000007D024
:104C90000020B042EDD00020BDE8F0810320FBE70A
:104CA0000120F6E77047FDF707BC000030B59DB066
:104CB0004C216846FBF7A8FE202113A8FBF7A4FEB1
:104CC0000220FDF78FFC21480024016821F001013A
:104CD000016000681E48016821F4404141F4004130
:104CE0000160016801F440411B9101688904FCD511
:104CF0000120009005210004019002200990CDE9D7
:104D00000A016021CDE90C10042112940825CDE997
:104D10000E10CDE910546846FEF7C4FC08B172B617
:104D2000FEE714A93F201390032081E831000221FF
:104D3000179413A8189419941A94FEF79DFA002852
:104D400001D072B6FEE71DB030BD00002C04005843
:104D5000184802582C4810B5016841F470010160F0
:104D60002A4A106800F00F00072804D2106820F0CB
:104D70000F00C01D10602649086840F0010008605F
:104D8000234B0020103318600B68224C23400B602B
:104D9000136803F00F03072B04D9136823F00F03E4
:104DA000DB1D13601A4A18321060121D1060121DAC
:104DB0001060174B184A28331A601B1D174A1A60D7
:104DC0001B1D174A1A601B1D18601B1D1A601B1D36
:104DD00018601B1D1A601A1D10600A6822F48022D8
:104DE0000A600B49603108600E4800686FF30F00DD
:104DF000B0F1005F03D20C490120C1F8080143F271
:104E0000D2000A49086010BD88ED00E00020005281
:104E1000004402587FEDF6EA000202020000FF01A2
:104E2000800201010010005C00800051004000522F
:104E300030B5416EB9B1026891689268C1F34261C0
:104E40000B4C520FA35C1D0104F108039A5CB5FBE7
:104E5000F2F2A0F86A20625C595C1201B2FBF1F137
:104E6000A0F8681030BD0121A0F86A10F8E7000032
:104E70009E7C000890F82810C90706D001684A688F
:104E8000C36A22F400321A434A6090F82810890756
:104E900006D501684A68036B22F480321A434A60DF
:104EA00090F82810490706D501684A68436B22F438
:104EB00080221A434A6090F82810090706D5016835
:104EC0004A68836B22F400421A434A6090F8281023
:104ED000C90606D501688A68C36B22F480521A435A
:104EE0008A6090F82810890606D501688A68036CE4
:104EF00022F400521A438A6090F82810490611D50E
:104F000001684A68436C22F480121A434A60416C7B
:104F1000B1F5801F06D101684A68836C22F4C00293
:104F20001A434A6090F82810090606D501684A68B5
:104F3000C06C22F4002202434A6070472DE9F84316
:104F400000250446C0F89050FDF7B0FA804620686E
:104F500000686FF07E474FF02006000713D500224F
:104F6000434631042046009700F036FA58B12068D5
:104F700050E8001F21F0800140E80012002AF6D11D
:104F8000C4F8886021E020680068400722D500222C
:104F900043464FF480012046009700F01DFAC8B147
:104FA000206850E8001F21F4907140E80012002AA8
:104FB000F6D12068083050E8001F21F0010140E8D8
:104FC0000012002AF5D1C4F88C60032084F88450C4
:104FD000BDE8F883C4F88860C4F88C60E56625678E
:104FE000002084F88450F3E710B5016851E8002FE1
:104FF00022F4907241E80023002BF6D10E4B016899
:10500000083151E8002F1A4041E80024002CF6D165
:10501000C16E012908D1016851E8002F22F0100269
:1050200041E80023002BF6D12021C0F88C1000218C
:10503000C166416710BD0000FEFFFFEF2DE9F043A0
:10504000044600680025DFF8548387B02269A16810
:10505000E369114362691A4311430268D04B1A4055
:105060000A43026020684168E26821F4405111431C
:1050700041602168A069414501D0226A10438A68D5
:10508000C84B1A4002438A602068C16A626A21F0F4
:105090000F011143C162C4492268C4488A420ED13B
:1050A000006800F03800182873D047DCB8B308282F
:1050B00079D010286FD178E028287ED17BE0BC49D8
:1050C0008A4209D1006800F00700062875D2DFE89F
:1050D00000F0546A6C6E7072B6498A4209D1006859
:1050E00000F00700062868D2DFE800F0475D5F6146
:1050F0006365B1498A4209D1006800F007000628BB
:105100005BD2DFE800F03A5052545658AB498A421D
:105110000BD1006800F0070006284ED200E010E036
:10512000DFE800F02B4143454749A5498A420AD1AF
:10513000006800F03800182839D0B7DD2028BBD12E
:1051400037E001213AE09F498A4209D1006800F026
:105150000700062831D2DFE800F01026282A2C2E7E
:1051600099498A420BD1006800F00700062824D232
:10517000DFE800F003191B1D1F2100211EE042453E
:105180001BD18A48001D006800F00700062814D2D1
:1051900002E00CE007E010E0DFE800F0030507099B
:1051A0000B0D02210AE0042108E0082106E010218D
:1051B00004E0202102E0402100E0802183487B4B75
:1051C0004FF4004C824E4FF000090711543B42450A
:1051D0004DD1102919D006DC022909D004290AD0A2
:1051E00008297DD10CE020293DD0402978D13CE030
:1051F000FDF720FA10E06846FDF72EFA01980BE063
:1052000003A8FDF7C7FA049806E01968890605D5D2
:105210001968C1F3C101C840002823D0616A36F87B
:1052200011206668B0FBF2F106EB46038B4257D8BB
:10523000B1EB063F54D800234F461946FBF7F2F86E
:105240000902020241EA10617008101832467941E1
:105250000023FBF7E7F85F4AA0F5407191423FD881
:105260002168C86086E03846D8E76046D6E7E2693C
:105270004FF6EF78624545D1082918D005DC59B1C1
:1052800001290CD0042974D10CE0102914D0202954
:1052900034D040296DD133E0FEF748F913E0FEF732
:1052A00057F910E06846FDF7D7F901980BE003A81D
:1052B000FDF770FA049806E01968890604D51968A4
:1052C000C1F3C101C84080B3616A36F81110B0FB68
:1052D000F1F04100606801EB5001B1FBF0F000E03B
:1052E00047E0A0F11002424543D84FF6F07101406B
:1052F000C0F3420001432068C1603BE03846E3E769
:105300006046E1E7082919D005DC59B101290DD023
:1053100004292ED10DE0102915D0202937D040299D
:1053200027D136E0FEF702F914E023E0FEF710F98A
:1053300010E06846FDF790F901980BE003A8FDF72F
:1053400029FA049806E01968890604D51968C1F39A
:10535000C101C84070B1616A36F81110B0FBF1F1BB
:10536000606801EB5001B1FBF0F0A0F11001414584
:1053700011D901250120A4F86A00A4F86800284684
:10538000C4F87490C4F8789007B0BDE8F08338464C
:10539000E1E76046DFE780B262E70000000C0058FA
:1053A000F369FFCFFFF4FF1100100140544402588D
:1053B0000044004000480040004C004000500040C5
:1053C0000014014000780040007C00400090D003B1
:1053D000867C0008FFFC0F002DE9F0471F46904631
:1053E0000E460446089D4FF000092EE0681C2CD0A4
:1053F000FDF75CF8C01BA84214D89DB12068016875
:10540000490722D5C169C94309070DD4082505629A
:105410002046FFF7E9FDC4F89050012084F88490FD
:10542000BDE8F0870320FBE7C069C04300050CD44A
:1054300021684FF4006008622046FFF7D5FD202068
:10544000C4F8900084F88490ECE72068C06936EADC
:10545000000004D000204045C8D00020E0E7012033
:10546000F9E70000044810B501F000FF03490120EE
:105470000870002010BD000030010024300000241E
:105480000748042907D2DFE801F006020408006A91
:1054900000E0C069106000207047406AFAE7000031
:1054A000300100242DE9F04100241D464FF48058BE
:1054B00016460F460BE00848311907EB0432434605
:1054C00002F048F910B10120BDE8F081641CAC4243
:1054D000F1D30020F8E700003001002403480178F0
:1054E00021F00101017000787047000030000024B5
:1054F0002DE9F04700241D464FF480591646884692
:1055000010E0311909480F4601F020FE074808EB6A
:10551000043239464B4602F007FB10B10120BDE8CA
:10552000F087641CAC42ECD30020F8E73001002483
:10553000FEE7000001B582B064200123009001AABB
:10554000064802A9FEF777FE28B11823012004A21D
:105550000CA1FFF7D9FA9DF804000EBD64010024E8
:105560002E2E5C557365725C4472697665725C536D
:1055700072635C7732357178785F647269766572D0
:105580002E63000025733A25642048414C5F535038
:10559000495F5472616E736D6974526563656976B3
:1055A00065204572726F720003B401984100009843
:1055B00050EAC12018BF04204A0D18BF40F0010076
:1055C00040F2FF72B2EB515F08BF40F002000128C9
:1055D00008BF052002B070470907090E002804DB48
:1055E00000F1E02080F80014704700F00F0000F197
:1055F000E02080F8141D704730380A2801D20120BD
:10560000704700207047000010B504460020E0708D
:10561000401E2063204601F00CFC08B1042010BDA0
:1056200004F2322001F010FBA0F52A41553901D0D7
:10563000032010BD94F83400E92805D0EB2814D1DC
:1056400094F83600902810D104F16A0001F0F1FAC4
:105650000749B1EB002F06D004F1860001F0E9FA0A
:105660000449884201D1002010BD022010BD000075
:105670000046415446415433F0B5154E00221546BC
:1056800006EB02131C685CB10768BC4209D15C6878
:105690008768BC4205D19B684469A34204D000E0FE
:1056A0000125521C022AEBD3022A01D069B904E079
:1056B0004DB9022907D01220F0BD06EB02108089F7
:1056C000B0F5807F01D00020F0BD1020F0BD0000BB
:1056D000A834002430B5064B00210C4603EB011220
:1056E0001568854200D11460491C0229F6D330BDEB
:1056F000A83400240368C26A98895B895843B1FBC7
:10570000F0F0121D02CA19B1884203D3401AF8E71B
:10571000002070471168084470478269891E921EF4
:105720008A4201D800207047C26A408901FB0020EC
:1057300070472DE9F04105680F00804606D001F062
:1057400090F9022809D20120BDE8F0812E6916B136
:10575000A869B04207D8012605E0411CF4D0A96928
:105760008142F1D83E463446A869641CA04202D862
:105770000224022E0AD32146404601F072F938B1C4
:105780000128E1D0411CDFD0B442EDD10020DBE79D
:105790004FF0FF3621463246284601F063FB30B910
:1057A00057B122463946284601F05CFB20B101285A
:1057B0000FD001242046C7E72C61D5E90501891ED9
:1057C000884201D8401E6861287940F001002871A4
:1057D000F0E73446EEE700002DE9F04124300D6893
:1057E0000B220E462021044601F01DFB00204FF045
:1057F000080C01462A5C401C202A13D92F2A0CD001
:105800005C2A0AD02E2A01D0614516D3BCF10B0FB9
:1058100020D02E2A1ED10CE0401C2B5C2F2BFBD05D
:105820005C2BF9D028443060A1B12078E5281DD048
:105830001EE008214FF00B0CDCE7802A03D3104B4D
:105840001A4412F8802C0FA300E05B1C1F7827B1CC
:105850009742FAD10620BDE8F081A2F16103192B2D
:1058600001D8203AD2B26254491CC3E70520207007
:10587000202A01D8042000E00020E0720020EAE79E
:10588000E67C0008222A2B2C3A3B3C3D3E3F5B5DE8
:105890007C7F0000401E022812D20A4901EB001151
:1058A0008889B0F5807F05D008B1401E80B288811C
:1058B00010B103E00020FAE70020086000207047E4
:1058C00002207047A83400242DE9F0410668002129
:1058D000054600F0E4F800281DD1E969304601F0E2
:1058E000A8FA002817D1296A0A789AB1CA7A02F070
:1058F0003F02AA71CA7A120711D40B2205F12404BF
:1059000011F8013B14F8017BDB1B521E05D0002B64
:10591000F6D004E00420BDE8F081002BFBD000218C
:10592000284600F003F80028D7D0F4E72DE9F04727
:10593000046805464069894600F12008E86918B105
:10594000B8F5001F414602D30420BDE8F087A289C4
:10595000B1FBF2F302FB1381002959D1401CE8612D
:10596000A969002719B3A289B8FBF2F06289521E17
:1059700010424DD1284601F074F8012806461ED980
:10598000701C33D0A069B0423CD8B9F1000F12D0DE
:10599000A9692846FFF7CDFE06000ED0012E0ED0D5
:1059A000701C23D0204601F08DFBF8B909E0218955
:1059B000B1EB581F2CD8EF61C6E70720C5E70220DE
:1059C000C3E7A289002104F1340001F02CFA00277A
:1059D00031462046FFF7A1FE4FF0010920630BE09E
:1059E000204684F8039001F06DFB08B10120ACE77C
:1059F000206B401C20637F1C6089B842F0D8206B6C
:105A0000C01B206331462046AE61FFF786FEE86189
:105A1000C5F81480A189B8FBF1F201FB1280204483
:105A200034302862002090E72DE9F0410768012614
:105A30000021054600F033F888B90024E9693846AA
:105A400001F0F7F958B9296A0978E5290AD049B16E
:105A5000002428460121FFF769FF0028EED0042822
:105A600004D004E0641CB44201D0F2E70720040033
:105A700012D1E969384601F0DCF904000CD1286A3A
:105A80002022002101F0CFF9286A0B2205F1240120
:105A900001F0C0F90120F8702046BDE8F0812DE941
:105AA000F0410568B1F5001F0E4607463CD2F006EE
:105AB0003AD17E61BC6824B92878032806D3AC6A41
:105AC00024B16889A98900FB01F812E02889B0EBAC
:105AD000561F29D9A86A12E0384600F0C2FF0446D2
