:020000040800F2
:10000000A807002439030008972700081F260008C6
:10001000952700082F050008833100080000000024
:10002000000000000000000000000000C5290008DA
:10003000310500080000000099270008C7290008C2
:100040005303000853030008530300085303000838
:100050005303000853030008530300085303000828
:100060005303000853030008530300085303000818
:100070005303000853030008530300085303000808
:1000800053030008530300085303000853030008F8
:1000900053030008530300085303000853030008E8
:1000A00053030008530300085303000853030008D8
:1000B00053030008530300085303000853030008C8
:1000C00053030008530300085303000853030008B8
:1000D00053030008530300085303000853030008A8
:1000E00053030008530300080000000053030008F6
:1000F0005303000853030008530300085303000888
:100100005303000853030008530300085303000877
:100110005303000853030008530300085303000867
:100120005303000853030008530300085303000857
:100130005303000853030008530300085303000847
:1001400000000000000000000000000000000000AF
:100150005303000853030008530300085303000827
:100160005303000853030008530300085303000817
:100170005303000853030008530300085303000807
:1001800053030008530300085303000853030008F7
:1001900053030008530300085303000853030008E7
:1001A00053030008530300085303000853030008D7
:1001B00053030008530300085303000853030008C7
:1001C00053030008530300085303000853030008B7
:1001D00053030008530300085303000853030008A7
:1001E0005303000853030008530300085303000897
:1001F0005303000853030008530300085303000887
:100200005303000853030008530300085303000876
:100210005303000853030008530300085303000866
:1002200053030008530300085303000800000000B4
:1002300053030008530300080000000053030008A4
:100240005303000853030008530300085303000836
:100250005303000853030008530300085303000826
:100260005303000853030008530300085303000816
:100270005303000853030008530300080000000064
:100280005303000853030008530300080000000054
:10029000000000005303000800F002F800F03CF8F2
:1002A0000AA090E8000C82448344AAF10107DA45D1
:1002B00001D100F031F8AFF2090EBAE80F0013F0E7
:1002C000010F18BFFB1A43F001031847AC2F0000C1
:1002D000CC2F0000103A24BF78C878C1FAD8520752
:1002E00024BF30C830C144BF04680C6070470000B0
:1002F0000023002400250026103A28BF78C1FBD82F
:10030000520728BF30C148BF0B6070471FB502F0CD
:1003100091FF1FBD10B510BD00F0CFF81146FFF7DB
:10032000F5FF02F051FF00F0EDF803B4FFF7F2FF24
:1003300003BC00F0F5F80000094880470948004771
:10034000FEE7FEE7FEE7FEE7FEE7FEE7FEE7FEE785
:10035000FEE7FEE704480549054A064B70470000E2
:10036000752A000899020008A8010024A8070024A3
:10037000A8030024A803002453EA020C00F06980BB
:100380002DE9F04B4FF00006002B1FBFB3FA83F5A9
:1003900003FA05F424FA05F65E4012BF1643B2FADA
:1003A00082F502FA05F4C5F120051EBF22FA05FC0C
:1003B00044EA0C04203556EA044C4FEA144418BFB2
:1003C000641C4FF000084FF00009904271EB030CE1
:1003D00039D3002919BFB1FA81F701FA07F6B0FA4B
:1003E00080F700FA07F6C7F120071EBF20FA07FCC6
:1003F00046EA0C062037B6FBF4FCA7EB0507103FD6
:1004000007F01F0BCBF120060CFA0BFB2CFA06F6BB
:1004100044BFB3460026202FA4BF5E464FF0000B1A
:100420005BEA060C08BF4FF0010B19EB0B09ABFBA5
:10043000027C48EB0608C01B06FB02CC0BFB03CC7E
:1004400071EB0C01C1E70B46024641464846BDE848
:10045000F08B13B54FF000004FF00001AFF30080B8
:10046000BDE81C4070474FF0000200B513469446AB
:100470009646203922BFA0E80C50A0E80C50B1F1FC
:100480002001BFF4F7AF090728BFA0E80C5048BF10
:100490000CC05DF804EB890028BF40F8042B08BFAE
:1004A000704748BF20F8022B11F0804F18BF00F8AA
:1004B000012B7047704770477047754600F02CF865
:1004C000AE4605006946534620F00700854618B041
:1004D00020B5FFF73FFFBDE820404FF000064FF08A
:1004E00000074FF000084FF0000B21F00701AC4669
:1004F000ACE8C009ACE8C009ACE8C009ACE8C00988
:100500008D46704710B50446AFF300802046BDE825
:100510001040FFF70ABF0000004870474801002460
:1005200001491820ABBEFEE7260002007047FEE737
:10053000704772B6FEE70000084810B501F097FD5D
:10054000074801F056FF0748082100F021F8064847
:100550000068BDE8104002F025BE00002C00002419
:10056000B4000024001002580000002470B50446B6
:1005700000F0CAF90546601C02D004480078044423
:1005800000F0C2F9401BA042FAD370BD080000245D
:100590002DE9F04F504C00224FF0010B4FF00F0AA5
:1005A00093E00BFA02F818EA01037CD022F003056D
:1005B00005F1B045D5F808C49607370F0AFA07F6D3
:1005C00006EA0C09DFF814C1604502D14FF0000CB7
:1005D00040E0DFF80CC1604502D14FF0010C39E07A
:1005E000DFF800C1604502D14FF0020C32E0DFF8C5
:1005F000F8C0604502D14FF0030C2BE0DFF8ECC0EF
:10060000604502D14FF0040C24E0DFF8E4C06045FF
:1006100002D14FF0050C1DE0DFF8D8C0604502D1D3
:100620004FF0060C16E0DFF8D0C0604502D14FF065
:10063000070C0FE0DFF8C4C0604502D14FF0080C92
:1006400008E0DFF8BCC0604502D14FF0090C01E0C2
:100650004FF00A0C0CFA07FCCC4518D127689F43D1
:10066000276067689F4367604FF0B047D7F804C0C2
:100670002CEA030CC7F804C0D7F800C02CEA030C1E
:10068000C7F800C0D5F80834B343C5F80834056886
:1006900056000323B3401D430560D50800EB8505D4
:1006A0002F6A560700E00FE04FEAD66C0AFA0CF604
:1006B000B7432F62C5689D43C560456825EA0805B4
:1006C000456085689D438560521C31FA02F37FF4D2
:1006D00068AFBDE8F08F00008000005800000258AD
:1006E0000004025800080258000C0258001002587A
:1006F0000014025800180258001C0258002002582A
:10070000002402582DE9F84F694C00224FF0B04AFE
:100710004FF0010B4FF003084FF00F09C0E00BFA48
:1007200002F6334073D00D7905F00305012D01D099
:10073000022D15D18768550008FA05FC27EA0C0739
:10074000D1F80CC00CFA05FC4CEA070CC0F808C044
:100750004568B5430E79C6F3001696402E434660B1
:100760000D79ED43AD0708D0C668550008FA05F7C6
:10077000BE438F68AF403743C7600D7905F003056E
:10078000022D11D1D50800EB85073E6A5507ED0E05
:1007900009FA05FC26EA0C06D1F810C00CFA05FC93
:1007A0004CEA060CC7F820C00668550008FA05F7A1
:1007B000BE430F7907F00307AF40374307604D682A
:1007C00015F4403F6BD03B4D2E6846F002062E607C
:1007D0002D6822F0030606F1B04605F002050095EB
:1007E000D6F8087495074FEA157C09FA0CF5AF4363
:1007F000314DA84201D100252EE0304DA84201D153
:10080000012529E02E4DA84202D1022524E046E030
:100810002C4DA84201D103251EE02B4DA84201D149
:10082000042519E0294DA84201D1052514E0284DE1
:10083000A84201D106250FE0264DA84201D1072587
:100840000AE0254DA84201D1082505E0234DA84224
:1008500001D1092500E00A2505FA0CF53D43C6F84B
:100860000854DAF8005056464F689D43FF0200D501
:100870001D43356075684F689D43BF0200D51D4319
:10088000756065684E689D43B60300D51D4365607D
:1008900025684E689D43F60300D51D432560521C14
:1008A0000B6833FA02F57FF43AAFBDE8F88F000029
:1008B00080000058F4440258000002580004025816
:1008C00000080258000C0258001002580014025888
:1008D00000180258001C0258002002580024025838
:1008E000426921EA02030A4043EA024181617047FA
:1008F0000AB1816170470904FBE700000148006804
:10090000000C70470010005C0148806870470000D0
:100910000800002402488168027811448160704711
:1009200008000024032010B500F078F801F050F81A
:100930000F4A11681268C1F303230E49CB5C03F020
:100940001F03D84002F00F02895C0B4A01F01F011F
:1009500020FA01F11160094908600F2000F010F839
:1009600008B1012010BD00F02BF8002010BD0000E0
:1009700018440258663200081800002414000024AD
:1009800070B50D4D04462A78A2B14FF47A700B4928
:10099000B0FBF2F00968B1FBF0F001F0ABFC48B934
:1009A000102C07D200222146501E00F017F800201C
:1009B0006C6070BD012070BD08000024140000248C
:1009C000054808B5016841F002010160006800F0C7
:1009D0000200009008BD0000F44402580E4BF0B431
:1009E0001B68C3F30223C3F10704042C00D90424B9
:1009F0001D1D072D01D2002300E0DB1E012606FA93
:100A000004F56D1E0D409D409E40761E164045EA41
:100A10000601F0BC02F0B6BB0CED00E0064A00F0A7
:100A2000070110684FF6FF03184040EA0120034910
:100A300008431060704700000CED00E00000FA056C
:100A4000124970B50A68D243520705D5096801F00A
:100A50000701814212D117E00A6822F0070202431F
:100A60000A60FFF751FF094D4FF47A760446083DBE
:100A700006E0FFF749FF001BB04201D9012070BD1D
:100A80002868C0438004F4D4002070BD0C4802588C
:100A900010B500F057FF05490968054AC1F3021176
:100AA000515C01F01F01C84010BD000020440258F5
:100AB00066320008484910B50A68096802F0030266
:100AC000454B1B1DC1F305311B68434C1434C3F364
:100AD00000132468C4F3CC0414FB03F300EE103AB3
:100AE000B8EE400AE9B33C4B9FED3C1A1033F7EEE9
:100AF000000A62B1DFED3A1A012A01D0022A5ED063
:100B000002EE101AF8EE422A81EEA22A1AE0324AC8
:100B1000283A1468A4060DD51268C2F3C104314AFC
:100B2000E24001EE902AF8EE612A01EE901AF8EE0A
:100B3000611A05E001EE901ADFED2B2AF8EE611A3A
:100B400082EEA12A1968C1F3080101EE901A196812
:100B5000F8EE611A40EE011A31EEA00A22EE000A08
:100B600000E033E0C1F3462101EE101AB8EE411A5D
:100B700031EE201AC0EE011ABCEEE11A80ED001A27
:100B80001968C1F3064101EE101AB8EE411A31EEB0
:100B9000201AC0EE011ABCEEE11A80ED011A1968A4
:100BA000C1F3066101EE101AB8EE411A71EE200A87
:100BB00080EE201ABCEEC10A80ED020A10BD01EEE3
:100BC000901ADFED0A2AF8EE611AB9E700210160F8
:100BD0004160816010BD00002844025800000039C7
:100BE0000024744A0090D0030024744C20BCBE4BF7
:100BF000484910B50A68096802F00302454B1B1DFD
:100C0000C1F305511B68434C1C34C3F30023246813
:100C1000C4F3CC0414FB03F300EE103AB8EE400A20
:100C2000E9B33C4B9FED3C1A1833F7EE000A62B172
:100C3000DFED3A1A012A01D0022A5ED002EE101A24
:100C4000F8EE422A81EEA22A1AE0324A283A1468C3
:100C5000A4060DD51268C2F3C104314AE24001EE88
:100C6000902AF8EE612A01EE901AF8EE611A05E07A
:100C700001EE901ADFED2B2AF8EE611A82EEA12A1E
:100C80001968C1F3080101EE901A1968F8EE611AAB
:100C900040EE011A31EEA00A22EE000A00E033E035
:100CA000C1F3462101EE101AB8EE411A31EE201AB6
:100CB000C0EE011ABCEEE11A80ED001A1968C1F30A
:100CC000064101EE101AB8EE411A31EE201AC0EEBC
:100CD000011ABCEEE11A80ED011A1968C1F3066130
:100CE00001EE101AB8EE411A71EE200A80EE201AB9
:100CF000BCEEC10A80ED020A10BD01EE901ADFEDD4
:100D00000A2AF8EE611AB9E70021016041608160AA
:100D100010BD000028440258000000390024744A25
:100D20000090D0030024744C20BCBE4B2DE9FC5F26
:100D3000044600680025FA4FC043DFF8E8832E46DA
:100D4000010104F10800019004F1280000901DD475
:100D5000A06E50B1B0F5801F0CD0B0F5001F0ED0C2
:100D6000B0F5401F1ED001250FE0386840F4003078
:100D7000386017E00198022101F010FD03E00098AF
:100D8000022101F095FD05000CD02E462088C043BD
:100D9000C00523D4A06D05281ED2DFE800F00C1199
:100DA000161B1B00D8F80010A26E21F4401111434D
:100DB000C8F80010EAE7386840F40030386009E00D
:100DC0000198002101F0EAFC03E00098002101F005
:100DD0006FFD054675B100E001252E462088C04311
:100DE000800528D4E06D80281ED00CDC90B140280E
:100DF0000ED114E0D8F80010A26D21F007011143C4
:100E0000C8F80010EAE7C02813D0B0F5807F10D0F2
:100E100001250FE0386840F40030386009E001989F
:100E2000002101F0BBFC03E00098002101F040FD2F
:100E300005468DB12E462088DFF8EC92C043400570
:100E40002CD4D4F8A800B0F5800F20D00DDCA0B1D0
:100E5000B0F5001F0FD115E0D8F80010E26D21F4B5
:100E6000E0711143C8F80010E5E7B0F5C00F13D0EA
:100E7000B0F5000F10D001250FE0386840F40030C5
:100E8000386009E00198002101F088FC03E0009837
:100E9000002101F00DFD05467DB12E462088C0439E
:100EA00000052DD4D4F8AC00B0F1007F21D00EDCC9
:100EB000A8B1B0F1807F10D116E0D9F80010D4F8B5
:100EC000A82021F460011143C9F80010E6E7B0F151
:100ED000407F13D0B0F1806F10D001250FE038684B
:100EE00040F40030386009E00198002101F056FC20
:100EF00003E00098002101F0DBFC054675B12E46A9
:100F00002068C04380011FD4E06CD8B110280FD0F6
:100F1000202812D0302815D0012514E0D9F800106F
:100F2000D4F8AC2021F0E0611143C9F80010E7E7E4
:100F3000386840F40030386004E00198022101F084
:100F40002DFC054675B12E462088C043C0042BD425
:100F5000206EB0F5005F20D00DDCA0B1B0F5805F51
:100F60000FD115E06F48001F0168E26C21F03001DD
:100F700011430160E8E7B0F5405F13D0B0F5804F52
:100F800010D001250FE0386840F40030386009E0E7
:100F90000198002101F002FC03E00098002101F01B
:100FA00087FC05468DB12E462088C043800429D495
:100FB000606EB0F5403F23D010DC08B3B0F5803F41
:100FC00014D0B0F5003F0FD115E0D8F80010226E14
:100FD00021F4E0411143C8F80010E5E7B0F5802F97
:100FE0000ED0B0F5A02F0BD001250AE00198012109
:100FF00001F0D4FB03E00098012101F059FC054603
:1010000095B12E462088C04340042AD4D4F8B000BD
:10101000B0F1405F23D010DC08B3B0F1805F14D092
:10102000B0F1005F0FD115E0D8F80010626E21F426
:10103000E0211143C8F80010E4E7B0F1804F0ED072
:10104000B0F1A04F0BD001250AE00198012101F079
:10105000A5FB03E00098012101F02AFC054675B1CB
:101060002E462088C04300041FD4206FD8B1B0F1B1
:10107000805F0ED0B0F1005F10D0012514E0D9F8E8
:101080000010D4F8B02021F0E0411143C9F800105D
:10109000E7E7386840F40030386004E00198012147
:1010A00001F07CFB054675B12E462068C043C001A7
:1010B0001ED4A06CD0B101280ED0022811D0032874
:1010C00014D0012513E0D8F80010226F21F0405110
:1010D0001143C8F80010E8E7386840F40030386081
:1010E00004E00198022101F059FB05467DB12E462E
:1010F0002068DFF838B0C043400256D40C4801687D
:1011000041F480710160FFF7FFFB824618E005485B
:10111000001F0168A26C21F0030111430160E7E7A1
:101120002C44025850440258584402581044025863
:1011300000480258FFF7E8FBA0EB0A0064282CD80F
:10114000FE480068C005F5D545BBFD480068B4F809
:10115000B41000F4407001F4407188420CD0F8489B
:101160000168026821F4407142F480320260026832
:1011700022F4803202600160D4F8B400B0F5807FC0
:101180001AD1FFF7C1FB824609E0FFF7BDFBA0EBD8
:101190000A0141F28830814201D9032504E0E84880
:1011A00000688007F1D53DB12E462078DFF894A382
:1011B000C043C00720D03BE0D4F8B400C0F3012105
:1011C00003290ED0DBF8001021F47C51CBF800107D
:1011D000DB480168B4F8B420C2F30B02114301608C
:1011E000E3E7DBF80020D84B22F47C5203EA10102E
:1011F0000243CBF80020EBE7E06F182816D005DC9F
:10120000A0B1082808D0102804D10AE020280DD069
:1012100028280BD001250AE00198012101F0BEFA2F
:1012200003E00098012101F043FB054665B12E461D
:101230002078C04380071ED4A06F062819D2DFE8AB
:1012400000F0160C11161616DAF80010E26F21F0F5
:1012500038011143CAF80010EAE70198012101F0B2
:101260009DFA03E00098012101F022FB05467DB1C3
:1012700000E001252E462078C04340071FD4D4F853
:101280009400062819D2DFE800F0160C1116161685
:10129000DAF80010A26F21F007011143CAF800101C
:1012A000E9E70198012101F079FA03E000980121B2
:1012B00001F0FEFA0546A5B100E001252E46207892
:1012C000C04380062BD4D4F89000B0F1405F24D006
:1012D00011DC10B3B0F1805F15D0B0F1005F10D118
:1012E00016E0D9F80010D4F8942021F0070111433A
:1012F000C9F80010E3E7B0F1804F0ED0B0F1A04F75
:101300000BD001250AE00198002101F047FA03E023
:101310000098022101F0CCFA054695B12E462078BE
:10132000C04340062BD4D4F89C00B0F5406F24D0C5
:1013300011DC10B3B0F5806F15D0B0F5006F10D18F
:1013400016E0DAF80010D4F8902021F0E0411143C3
:10135000CAF80010E3E7B0F5805F0ED0B0F5A05FEB
:101360000BD001250AE00198002101F017FA03E0F3
:101370000098022101F09CFA054695B12E4620788E
:10138000C04300062BD4D4F8A000B0F5C04F24D041
:1013900011DC10B3B0F5005F15D0B0F5804F10D15F
:1013A00016E0D9F80010D4F89C2021F4E051114344
:1013B000C9F80010E3E7B0F5004F0ED0B0F5204FAC
:1013C0000BD001250AE00198002101F0E7F903E0C4
:1013D0000098022101F06CFA054655B12E4620789E
:1013E000C04300071ED4D4F88400B0F5805F0AD053
:1013F0000FE0D9F80010D4F8A02021F46041114387
:10140000C9F80010EBE70098022101F051FA00B191
:101410000126DAF80010D4F8842021F44051114359
:10142000CAF800102078C043C00613D4D4F898003E
:10143000B0F5807F05D10098022101F039FA00B1A2
:101440000126D9F80010D4F8982021F440711143F6
:10145000C9F800102068C043000316D4D4F8A400D3
:1014600038B1B0F5803F09D0B0F5003F0BD0012571
:101470000AE00198002101F091F903E000980221AF
:1014800001F016FA05468DB12E462068C043400390
:1014900022D4D4F88800B0F5801F11D0B0F5001F19
:1014A00013D0B0F5401F15D0012514E0D9F8001075
:1014B000D4F8A42021F440311143C9F80010E4E726
:1014C000386840F40030386004E00098012101F0F1
:1014D000EFF905465DB12E462068C043C0031CD419
:1014E000206D70B1B0F5803F10D0012514E0DAF81E
:1014F0000010D4F8882021F440111143CAF80010DC
:10150000EAE7386840F40030386004E001980221CE
:1015100001F044F905462DB32E462068C0438000F3
:1015200005D40098022101F0C3F900B1012620681A
:10153000C043800324D4D4F8800007E00048025858
:101540007044025854440258CFFFFF00B0B1B0F5C8
:10155000807F0FD0B0F5007F10D0B0F5407F0DD068
:1015600001250CE05A480168226D21F480311143B5
:101570000160D2E7386840F400303860F5B32E4699
:101580002068C043C00207D4D8F80010626F21F071
:1015900000411143C8F800102068C043C00008D4BF
:1015A000DBF80010D4F8B82021F480411143CBF8C7
:1015B00000102068C043800207D4D8F80010E26E03
:1015C00021F080711143C8F800102068C04340002A
:1015D0000CD4DBF8001021F40041CBF80010DBF84C
:1015E0000010D4F8BC201143CBF800102068C04391
:1015F00008D43748016821F0405100E017E0626DDF
:10160000114301602068C043000208D4DAF80010DA
:10161000D4F88C2021F440011143CAF8001020793D
:101620000025C04300F0010028430AD00FE0DAF89B
:101630000010D4F8802021F440711143CAF8001042
:101640009EE70198002101F0A9F800B10646207933
:10165000C04300F00200284305D10198012101F0A8
:101660009DF800B106462079C04300F004002843ED
:1016700005D10198022101F091F800B106462079C8
:10168000C04300F00800284305D10098002101F074
:101690000FF900B106462079C04300F0100028433E
:1016A00005D10098012101F003F900B10646207927
:1016B000C04300F02000054304D10098022101F04E
:1016C000F7F800B916B10120BDE8FC9F0020FBE748
:1016D0004C4402582DE9F05F04000D467ED0DFF83F
:1016E0004492D9F8000000F00F00A8420CD2D9F8BB
:1016F000001021F00F012943C9F80010D9F80000AB
:1017000000F00F00A84269D12078874E40070AD523
:101710002069316801F07001884204D9316821F0F4
:101720007001014331602078DFF8008200070CD59A
:1017300060694146D8F8002002F07002904204D956
:101740000A6822F0700202430A602078C0060CD5B5
:10175000A0694146D8F8002002F4E062904204D922
:101760000A6822F4E06202430A602078DFF8C0B120
:1017700080060CD5E0695946DBF8002002F07002C3
:10178000904204D90A6822F0700202430A6020786D
:1017900080070AD5E068316801F00F01884204D95A
:1017A000316821F00F01014331602078C0073DD03E
:1017B0003068A16820F47060084330605A4960685E
:1017C0001839022818D0032819D00968012819D01F
:1017D0004907002949DADFF850A100E045E0AAF105
:1017E000080ADAF8001021F007010143CAF80010D6
:1017F000FFF78AF8074611E009688903E9E70968F5
:101800008901E6E7C905E4E7FFF77EF8C11B41F26D
:101810008830814202D90320BDE8F09FDAF8000049
:10182000616800F03800B0EBC10FEDD1207880077F
:101830000AD5E068316801F00F01884204D23168AE
:1018400021F00F0101433160D9F80010484601F042
:101850000F01A9420BD9016821F00F012943016052
:10186000006800F00F00A84201D00120D4E72078E2
:1018700040070AD52069316801F07001884204D21E
:10188000316821F0700101433160207800070CD5E8
:1018900060694146D8F8002002F07002904204D2FC
:1018A0000A6822F0700202430A602078C0060CD554
:1018B000A0694246D8F8001001F4E061884204D2E1
:1018C000116821F4E06101431160207880060CD595
:1018D000E0695946DBF8002002F07002904204D221
:1018E0000A6822F0700202430A6000F071F8316861
:1018F000C1F303220F498A5C02F01F02D040326814
:1019000002F00F02895C0C4A01F01F0120FA01F17C
:1019100011600A4908600A480068BDE8F05FFFF7F7
:101920002FB8000000200052184402581C440258EE
:1019300020440258663200081800002414000024D5
:101940000C00002400B500F043F80B4A116812683F
:10195000C1F303230949CB5C03F01F03D84002F015
:101960000F02895C064A01F01F0120FA01F11160A3
:10197000044A1060084600BD184402586632000848
:10198000180000241400002400B5FFF7DBFF054910
:101990000968054AC1F30211515C01F01F01C840FA
:1019A00000BD00001C4402586632000800B5FFF775
:1019B000C9FF05490968054AC1F30221515C01F0DC
:1019C0001F01C84000BD00001C44025866320008D8
:1019D000434830B50068444C10F03801414808D005
:1019E0000211082903D010290BD018290BD010465A
:1019F00030BD21688906FBD52168C1F3C101C8400B
:101A000030BD3A4830BD364918310A68096802F0DD
:101A10000302334B1C33C1F305111B68304D03F037
:101A2000010324352D68C5F3CC0515FB03F300EE47
:101A3000103AB8EE400AE9B3294BDFED2D0A203306
:101A4000B7EE001A62B1DFED2B1A012A01D0022A8B
:101A50003CD002EE101AF8EE422A81EEA22A17E0DC
:101A6000226892060CD52268C2F3C102D04001EE72
:101A7000900AF8EE612A01EE901AF8EE611A05E07C
:101A800001EE901ADFED1C2AF8EE611A82EEA12A0F
:101A90001868C0F3080001EE900A1868F8EE611AA1
:101AA00040EE201A31EE810A22EE000AC0F34620F1
:101AB000401C00E011E000EE900AF8EE600A80EEB3
:101AC000201ABCEEC10A10EE100A30BD01EE901AC9
:101AD000DFED0A2AF8EE611AD8E7002030BD0000D9
:101AE000104402580090D0030044025840787D0111
:101AF000000000390024744A0024744C20BCBE4B02
:101B00002DE9F05F040079D02078DFF8F8A3FE4ECD
:101B1000FE4DC00747D0DAF80000316800F0380009
:101B2000102815D0182803D101F0030002280FD087
:101B30006068B0F5803F12D010B1B0F5A02F18D07A
:101B4000286820F480302860286820F4802009E08C
:101B50002868800327D560680028D4D023E028684F
:101B600040F480302860606888B1FEF7CDFE0746FB
:101B700009E0286840F480202860F0E7FEF7C4FE02
:101B8000C01B642872D828688003F7D50BE0FEF7E5
:101B9000BBFE074604E0FEF7B7FEC01B6428F1D881
:101BA00028688003F7D4207841F20309D84F8007D2
:101BB00066D5DAF80000316810F038000ED0182829
:101BC00001D188070AD0E06880B3296821F01901A3
:101BD00001432960FEF798FE80462EE02868400702
:101BE00002D5E06800288ED02868E16820F019004E
:101BF00008432860FEF788FE804606E0D8E0FEF73E
:101C000083FEA0EB08000228BCD828684007F6D560
:101C1000FEF774FE48451AD82069402811D039686B
:101C200021F47C3141EA0030386029E016E0FEF70B
:101C30006BFEA0EB08000228A4D828684007F6D560
:101C4000E6E7386820F47C3040F40030ECE7386890
:101C5000217C20F0FE4040EA0160E5E7286820F0A2
:101C600001002860FEF750FE804606E000E1FEF726
:101C70004BFEA0EB0800022884D828684007F6D461
:101C80002078C0065AD5DAF80000316800F0380034
:101C9000DFF870B20828ABF1040B10D0182803D17C
:101CA00001F0030001280AD0E0690028286836D036
:101CB00040F080002860FEF727FE804621E028687B
:101CC000C00521D5E069802872D11DE0206A202856
:101CD0001FD0396821F0F84141EA806038602DE07A
:101CE000DBF8001094F8202021F07C5141EA0261D9
:101CF000CBF8001022E0FEF707FEA0EB0800022858
:101D00009AD82868C005F6D5FEF7F8FD4845E7D80B
:101D1000DCE7386820F0F84040F08040DEE720F053
:101D200080002860FEF7F0FD074604E0FEF7ECFDBA
:101D3000C01B0228A0D82868C005F7D42078000767
:101D400028D5714960694C310028884608460968E1
:101D500010D041F001010160FEF7D6FD074604E016
:101D6000FEF7D2FDC01B022886D8D8F800008007F5
:101D7000F6D50FE021F001010160FEF7C5FD074631
:101D800004E0FEF7C1FDC01B022871D8D8F800009E
:101D90008007F6D42078800623D5A069002828681B
:101DA00010D040F480502860FEF7AEFD074605E0F5
:101DB00038E1FEF7A9FDC01B022859D82868800425
:101DC000F7D50EE020F480502860FEF79DFD074611
:101DD00004E0FEF799FDC01B022849D8286880045A
:101DE000F7D4207840074DD5DFF82881D8F80010C7
:101DF00041F48071C8F80010FEF786FD074604E044
:101E0000FEF782FDC01B642832D8D8F80000C00558
:101E1000F6D53D4FA068483701280AD008B10528FB
:101E200013D0386820F001003860386820F00400D2
:101E300002E0386840F001003860A06841F288395B
:101E400090B1FEF761FD80460AE0386840F004007A
:101E50003860EEE7FEF758FDA0EB0801494507D8CA
:101E600038688007F6D50DE0FEF74EFD804606E0A7
:101E700083E0FEF749FDA0EB080149457DD83868AD
:101E80008007F6D4616AD9B3DAF800004FF6F87B20
:101E9000DFF8748008F10808C0F3C200032808F1D5
:101EA0000409A8F1040A69D02868022920F080708A
:101EB000286003D0FEF728FD044688E0FEF724FDE5
:101EC000074604E0FEF720FDC01B02287CD82868E6
:101ED0008001F7D4306840F2F3318843E16A40EA88
:101EE0000110A16A0843306094F83400218E40024A
:101EF000491EA0F5007080B2C1F3080108430BE051
:101F0000B3E000001044025828440258004402582C
:101F10000444025800480258218F4FF4FE02491E23
:101F200002EA0141084394F83C101202491E02EAF9
:101F300001610843C8F80000DAF80010504621F0AB
:101F40000101CAF80010D9F80020A36C22EA0B02A4
:101F500042EAC302C9F80020DAF80010226C21F02E
:101F60000C011143CAF80010DAF80010626C21F07D
:101F7000020111430160016801E025E02BE041F41A
:101F800080310160016841F400310160016841F471
:101F900080210160016841F001010160286840F082
:101FA00080702860FEF7B0FC044604E0FEF7ACFC4D
:101FB000001B022808D828688001F7D555E0FEF7F5
:101FC000A3FC001B022802D90320BDE8F09F28686B
:101FD0008001F4D449E03268D8F80000012921D00A
:101FE000A36A02F0030199421CD1E16AC2F305120F
:101FF000914217D1216BC0F30802491E8A4211D1C8
:10200000616BC0F34622491E91420BD1A16BC0F314
:102010000642491E914205D1E16BC0F30660491E9C
:10202000814201D00120D0E7D9F800004F46A16CD1
:10203000C0F3CC00814218D0DAF80000564620F0F8
:102040000100CAF80000FEF75FFC0546FEF75CFCE5
:10205000A842FBD03868A16C20EA0B0040EAC1001E
:102060003860306840F0010030600020ADE710B506
:10207000040012D0022084F881002068016821F059
:1020800001010160204600F0C3F80020C4F884007C
:1020900084F8810084F8800010BD012010BD00008C
:1020A0002DE9F041040027D00025A562554F206896
:1020B000554A564BB84206D0904204D0984202D0BE
:1020C000E1680F2918D8E16B012606EB511CE16885
:1020D0000831C908B84201FB0CF105D0904203D089
:1020E000984201D0082907D8B84203D0904201D0C5
:1020F000984204D1102902D90120BDE8F08194F85A
:10210000810020B9204684F8805000F09FF802201A
:1021100084F881002068016821F0010101602068D5
:10212000816801F4F812A169B1F1806F10D1616882
:10213000B1F5800F01D019B10AE0A16B21B107E020
:10214000A16BB1F1805F03D1016841F4805101605E
:102150006068400209D5E068072806D32068016856
:10216000236D21F48071194303E02068016821F494
:1021700080710160A16AE0690843E16B1143084383
:10218000E168084321688860616A606BA26908435E
:10219000A16B114308432169084361690843216A1F
:1021A000084361680843E16C0843A1680843A16CD7
:1021B0000843A16D08432168C860606868B9206859
:1021C000816821F4C05141F4006181602068816818
:1021D00021F4C06141F4806181602068016D21F0CB
:1021E000010101656068400206D52068C168626D22
:1021F00021F000411143C160C4F8845084F881602B
:1022000000207AE70030014000380040003C0040E8
:1022100010B50068094988420ED10948016821F4C7
:102220008051016007488021FEF7B2F9BDE81040F7
:1022300005481821FEF7ACB910BD00000030014080
:10224000F0440258000C02580004025870B5B6B0B1
:102250000446142130A8FEF706F9C0216846FEF7AF
:1022600002F92049206888423AD181140020189050
:102270000546CDE900106846FEF758FD08B1FEF7A7
:1022800058F91948016841F480510160006800F470
:102290008050359014481038016841F00801016001
:1022A000016801F008013591016841F00201016007
:1022B000006830A9022400F0020035908020052635
:1022C00081E831000948CDE93346FEF71BFA30A911
:1022D000182081E831000648CDE93346FEF712FAAE
:1022E00036B070BD00300140F0440258000C025876
:1022F00000040258401EB0F1807F10B501D30120C8
:1023000010BD4FF0E02460610F21601700F03AFF2C
:102310000020A06107202061002010BD90F88410EB
:10232000012918D0012180F884102421C0F88810D8
:1023300001680A680B6823F001030B6022F000516A
:1023400000224266036819602021C0F8881080F8D6
:102350008420104670470220704770B5044690F8FC
:10236000840001281DD0012084F884002420C4F8B2
:10237000880020680568026822F001020260206877
:10238000826822F060620A438260204600F0E0FB2F
:10239000206805602020C4F88800002084F88400AC
:1023A00070BD022070BD70B5044690F8840001280D
:1023B0001DD0012084F884002420C4F888002068FF
:1023C0000568026822F0010202602068826822F03B
:1023D00060420A438260204600F0BAFB2068056034
:1023E0002020C4F88800002084F8840070BD0220FA
:1023F00070BD70B504001DD02420C4F8880020688A
:10240000016821F001010160206800250560206855
:10241000456020688560204600F044F8C4F890507C
:10242000C4F88850C4F88C50E5662567002084F80D
:10243000845070BD012070BD10B5040003D0D4F8E5
:10244000880010B107E0012010BD002084F884004E
:10245000204600F03DF82420C4F888002068016878
:1024600021F001010160204600F078FC0128EBD04A
:10247000A06A10B1204600F08DFB2068416821F46D
:10248000904141602068816821F02A0181602068C4
:10249000016841F0010101602046BDE8104000F0F4
:1024A000DDBB000000680749884209D10648016881
:1024B00021F01001016005484FF4C061FEF768B8D3
:1024C0007047000000100140F0440258000002581C
:1024D00030B5B7B00446142130A8FDF7C4FFC021C1
:1024E0006846FDF7C0FF1F492068884238D10021A7
:1024F00001200C460225CDE900010A200A90602047
:102500000B9005200C90CDE90D056802CDE90F0177
:10251000102011911F906846FEF708FC08B1FEF7E5
:1025200008F81148016841F010010160006800F0EE
:10253000100035900C481038016841F0010101602D
:10254000006830A900F0010035904FF4C060309071
:102550000720CDE93154CDE933400448FEF7D2F8E5
:1025600037B030BD00100140F0440258000002585E
:102570002DE9F8430446D0F888001F4615460E465C
:10258000202802D00220BDE8F883AEB1A5B100201A
:10259000C4F890002120C4F888001834FEF7B4F97C
:1025A000A5878146E5874FF0200854F8100C183CA9
:1025B000B0F5805F02D003E00120E4E7206910B1AC
:1025C0003546002610E000250EE08021204600F070
:1025D00093FDB8B9D5B115F8010B21688862B4F83C
:1025E0005600401EA4F85600B4F856004B464FF073
:1025F000000200970028E8D14FF04001204600F08B
:102600007BFD40B1C4F888800320BCE736F8020B9C
:10261000C0F30800E1E7C4F888800020B3E7FEE7D4
:10262000F0B587B014216846FDF71DFF2548016805
:1026300041F010010160016801F01001059101688D
:1026400041F080010160016801F08001059101689D
:1026500041F001010160016801F00101059101688B
:1026600041F008010160016801F00801059101686D
:1026700041F00201016000680022134E082100F0C1
:10268000020005903046FEF733F9104F0122402139
:102690003846FEF72DF908206946012402258DE809
:1026A0003100002003903046FEF72CF840206946A8
:1026B000CDE90004CDE902453846FEF723F807B01E
:1026C000F0BD0000E044025800100258000C02580F
:1026D00015480722134910B501604FF4800141608D
:1026E0000021C0E902124FF080620161C0E90512C9
:1026F000C1611201016241628162C162C0E90D21C2
:10270000C163016441648164C1640165416581659F
:10271000FFF7C6FC002803D0BDE81040FDF709BF55
:1027200010BD0000003001402C00002418480C228D
:10273000164910B501604FF4E1314160002181601C
:10274000C160C0E904128161C161016241628162BC
:10275000FFF772FE08B1FDF7ECFE0D480021FFF710
:1027600022FE08B1FDF7E5FE09480021FFF7F5FD5F
:1027700008B1FDF7DEFE0648FFF7D0FD002803D0C4
:10278000BDE81040FDF7D5BE10BD000000100140AF
:10279000B4000024FEE7FEE7704700002DE9F04793
:1027A000DFF8088104460E464FF00009D8F8000013
:1027B000C043800709D03D4D283D286820F0806047
:1027C0002860FEF7A1F8074607E00120BDE8F08782
:1027D000FEF79AF8C01B022860D828680001F7D4D9
:1027E000D8F80010226821F47C3141EA0231C8F89F
:1027F0000010207A4FF4FE02A1884002491EA0F585
:10280000007080B2C1F308010843A189491E02EAA1
:1028100001410843217C1202491E02EA016108437A
:102820002249103108602148001D0168626921F0C9
:10283000C001114301600168A26921F02001114328
:102840000160016821F010010160184914310A6823
:102850004FF6F8739A43E36942EAC3020A600168DB
:1028600041F0100101606EB10168012E0ED041F4FB
:1028700000110160286840F080602860FEF744F88D
:1028800004460DE0016841F40021F2E741F48011B3
:10289000EFE7FEF739F8001B022801D9032095E77E
:1028A00028680001F5D5484690E700002844025802
:1028B0002DE9F047DFF8088104460E464FF0000985
:1028C000D8F80000C043800709D03D4D283D286856
:1028D00020F080502860FEF717F8074607E0012037
:1028E000BDE8F087FEF710F8C01B022860D8286802
:1028F0008000F7D4D8F80010228821F07C7141EADA
:102900000251C8F80010207A4FF4FE02A18840025C
:10291000491EA0F5007080B2C1F308010843A189E7
:10292000491E02EA01410843217C1202491E02EAC3
:10293000016108432249183108602148001D0168DF
:10294000626921F44061114301600168A26921F4C8
:10295000007111430160016821F480710160184920
:102960001C310A684FF6F8739A43E36942EAC302DE
:102970000A60016841F4807101606EB10168012E46
:102980000ED041F080710160286840F080502860CE
:10299000FDF7BAFF04460DE0016841F48001F2E75B
:1029A00041F40001EFE7FDF7AFFF001B022801D95A
:1029B000032095E728688000F5D5484690E7000099
:1029C000284402587047FDF7A5BF000030B59DB000
:1029D0004C216846FDF747FD202113A8FDF743FD74
:1029E0000220FEF72DF821480024016821F00101A2
:1029F000016000681E48016821F4404141F4004133
:102A00000160016801F440411B9101688904FCD513
:102A10000120009005210004019002200990CDE9D9
:102A20000A016021CDE90C10042112940825CDE99A
:102A30000E10CDE910546846FFF762F808B172B67F
:102A4000FEE714A93F201390032081E83100022102
:102A5000179413A8189419941A94FEF73BFE0028B3
:102A600001D072B6FEE71DB030BD00002C04005846
:102A7000184802582C4810B5016841F470010160F3
:102A80002A4A106800F00F00072804D2106820F0CE
:102A90000F00C01D10602649086840F00100086062
:102AA000234B0020103318600B68224C23400B602E
:102AB000136803F00F03072B04D9136823F00F03E7
:102AC000DB1D13601A4A18321060121D1060121DAF
:102AD0001060174B184A28331A601B1D174A1A60DA
:102AE0001B1D174A1A601B1D18601B1D1A601B1D39
:102AF00018601B1D1A601A1D10600A6822F48022DB
:102B00000A600B49603108600E4800686FF30F00DF
:102B1000B0F1005F03D20C490120C1F8080143F273
:102B2000D2000A49086010BD88ED00E00020005284
:102B3000004402587FEDF6EA000202020000FF01A5
:102B4000800201010010005C008000510040005232
:102B500030B5416EB9B1026891689268C1F34261C3
:102B60000B4C520FA35C1D0104F108039A5CB5FBEA
:102B7000F2F2A0F86A20625C595C1201B2FBF1F13A
:102B8000A0F8681030BD0121A0F86A10F8E7000035
:102B90005632000890F82810C90706D001684A6824
:102BA000C36A22F400321A434A6090F82810890759
:102BB00006D501684A68036B22F480321A434A60E2
:102BC00090F82810490706D501684A68436B22F43B
:102BD00080221A434A6090F82810090706D5016838
:102BE0004A68836B22F400421A434A6090F8281026
:102BF000C90606D501688A68C36B22F480521A435D
:102C00008A6090F82810890606D501688A68036CE6
:102C100022F400521A438A6090F82810490611D510
:102C200001684A68436C22F480121A434A60416C7E
:102C3000B1F5801F06D101684A68836C22F4C00296
:102C40001A434A6090F82810090606D501684A68B8
:102C5000C06C22F4002202434A6070472DE9F84319
:102C600000250446C0F89050FDF74EFE80462068CF
:102C700000686FF07E474FF02006000713D5002252
:102C8000434631042046009700F036FA58B12068D8
:102C900050E8001F21F0800140E80012002AF6D120
:102CA000C4F8886021E020680068400722D500222F
:102CB00043464FF480012046009700F01DFAC8B14A
:102CC000206850E8001F21F4907140E80012002AAB
:102CD000F6D12068083050E8001F21F0010140E8DB
:102CE0000012002AF5D1C4F88C60032084F88450C7
:102CF000BDE8F883C4F88860C4F88C60E566256791
:102D0000002084F88450F3E710B5016851E8002FE3
:102D100022F4907241E80023002BF6D10E4B01689B
:102D2000083151E8002F1A4041E80024002CF6D168
:102D3000C16E012908D1016851E8002F22F010026C
:102D400041E80023002BF6D12021C0F88C1000218F
:102D5000C166416710BD0000FEFFFFEF2DE9F043A3
:102D6000044600680025DFF8548387B02269A16813
:102D7000E369114362691A4311430268D04B1A4058
:102D80000A43026020684168E26821F4405111431F
:102D900041602168A069414501D0226A10438A68D8
:102DA000C84B1A4002438A602068C16A626A21F0F7
:102DB0000F011143C162C4492268C4488A420ED13E
:102DC000006800F03800182873D047DCB8B3082832
:102DD00079D010286FD178E028287ED17BE0BC49DB
:102DE0008A4209D1006800F00700062875D2DFE8A2
:102DF00000F0546A6C6E7072B6498A4209D100685C
:102E000000F00700062868D2DFE800F0475D5F6148
:102E10006365B1498A4209D1006800F007000628BD
:102E20005BD2DFE800F03A5052545658AB498A4220
:102E30000BD1006800F0070006284ED200E010E039
:102E4000DFE800F02B4143454749A5498A420AD1B2
:102E5000006800F03800182839D0B7DD2028BBD131
:102E600037E001213AE09F498A4209D1006800F029
:102E70000700062831D2DFE800F01026282A2C2E81
:102E800099498A420BD1006800F00700062824D235
:102E9000DFE800F003191B1D1F2100211EE0424541
:102EA0001BD18A48001D006800F00700062814D2D4
:102EB00002E00CE007E010E0DFE800F0030507099E
:102EC0000B0D02210AE0042108E0082106E0102190
:102ED00004E0202102E0402100E0802183487B4B78
:102EE0004FF4004C824E4FF000090711543B42450D
:102EF0004DD1102919D006DC022909D004290AD0A5
:102F000008297DD10CE020293DD0402978D13CE032
:102F1000FDF7BEFD10E06846FDF7CCFD01980BE023
:102F200003A8FDF765FE049806E01968890605D533
:102F30001968C1F3C101C840002823D0616A36F87E
:102F400011206668B0FBF2F106EB46038B4257D8BE
:102F5000B1EB063F54D800234F461946FDF70CFA53
:102F60000902020241EA10617008101832467941E4
:102F70000023FDF701FA5F4AA0F5407191423FD866
:102F80002168C86086E03846D8E76046D6E7E2693F
:102F90004FF6EF78624545D1082918D005DC59B1C4
:102FA00001290CD0042974D10CE0102914D0202957
:102FB00034D040296DD133E0FEF7E6FC13E0FEF794
:102FC000F5FC10E06846FDF775FD01980BE003A8DD
:102FD000FDF70EFE049806E01968890604D5196805
:102FE000C1F3C101C84080B3616A36F81110B0FB6B
:102FF000F1F04100606801EB5001B1FBF0F000E03E
:1030000047E0A0F11002424543D84FF6F07101406D
:10301000C0F3420001432068C1603BE03846E3E76B
:103020006046E1E7082919D005DC59B101290DD026
:1030300004292ED10DE0102915D0202937D04029A0
:1030400027D136E0FEF7A0FC14E023E0FEF7AEFC4B
:1030500010E06846FDF72EFD01980BE003A8FDF790
:10306000C7FD049806E01968890604D51968C1F3FC
:10307000C101C84070B1616A36F81110B0FBF1F1BE
:10308000606801EB5001B1FBF0F0A0F11001414587
:1030900011D901250120A4F86A00A4F86800284687
:1030A000C4F87490C4F8789007B0BDE8F08338464F
:1030B000E1E76046DFE780B262E70000000C0058FD
:1030C000F369FFCFFFF4FF11001001405444025890
:1030D0000044004000480040004C004000500040C8
:1030E0000014014000780040007C00400090D003B4
:1030F0003E320008FFFC0F002DE9F0471F469046C6
:103100000E460446089D4FF000092EE0681C2CD0A6
:10311000FDF7FAFBC01BA84214D89DB120680168D6
:10312000490722D5C169C94309070DD4082505629D
:103130002046FFF7E9FDC4F89050012084F8849000
:10314000BDE8F0870320FBE7C069C04300050CD44D
:1031500021684FF4006008622046FFF7D5FD20206B
:10316000C4F8900084F88490ECE72068C06936EADF
:10317000000004D000204045C8D00020E0E7012036
:10318000F9E7FEE70907090E002804DB00F1E0205B
:1031900080F80014704700F00F0000F1E02080F884
:1031A000141D70470749486048680068C86048684F
:1031B00040688860886808604868006880F308880C
:1031C000086800471C000024FDF7ACFBFFF7FEFB7E
:1031D000FFF726FAFFF77CFAFFF7A8FA0F4E4FF435
:1031E0007A770F4C42F210756068A84203D208212A
:1031F0003046FDF775FB60680A230B22401C6060B7
:103200000B4808A1FFF7B4F96068142801D1FDF755
:1032100093F93846FDF7AAF9E6E7000000100258D6
:1032200000000024496E746F20426F6F740D0A0015
:10323000B40000244FF04070E1EE100A7047010026
:1032400002000400060008000A000C001000200024
:103250004000800000010101010307010000080493
:103260000204080101010000000001020304010240
:103270000304060708090000983200080000002433
:103280002C000000D4020008C43200082C000024E6
:103290007C070000F0020008008000080000000029
:1032A0000100000010000000000000000090D003AA
:1032B0000090D003000000000000000000000000AB
:0432C000000000000A
:040000050800029954
:00000001FF
