:020000040800F2
:20000000300B00244D030008772E0008FF2C0008752E000883090008633800080000000067
:20002000000000000000000000000000A53000088509000800000000792E0008A7300008BF
:20004000670300086703000867030008670300086703000867030008670300086703000810
:200060006703000867030008670300086703000867030008670300086703000867030008F0
:200080006703000867030008670300086703000867030008670300086703000867030008D0
:2000A0006703000867030008670300086703000867030008670300086703000867030008B0
:2000C000670300086703000867030008670300086703000867030008670300086703000890
:2000E0006703000867030008000000006703000867030008670300086703000867030008E2
:2001000067030008670300086703000867030008670300086703000867030008670300084F
:2001200067030008670300086703000867030008670300086703000867030008670300082F
:200140000000000000000000000000000000000067030008670300086703000867030008D7
:200160006703000867030008670300086703000867030008670300086703000867030008EF
:200180006703000867030008670300086703000867030008670300086703000867030008CF
:2001A0006703000867030008670300086703000867030008670300086703000867030008AF
:2001C00067030008670300086703000867030008670300086703000867030008670300088F
:2001E00067030008670300086703000867030008670300086703000867030008670300086F
:2002000067030008670300086703000867030008670300086703000867030008670300084E
:20022000670300086703000867030008000000006703000867030008000000006703000812
:2002400067030008670300086703000867030008670300086703000867030008670300080E
:20026000670300086703000867030008670300086703000867030008670300080000000060
:2002800067030008670300086703000800000000000000006703000800F002F800F047F87D
:2002A0000AA090E8000C82448344AAF10107DA4501D100F03CF8AFF2090EBAE80F0013F05F
:2002C000010F18BFFB1A43F001031847E03A0000003B0000103A24BF78C878C1FAD8520766
:2002E00024BF30C830C144BF04680C60704700000023002400250026103A28BF78C1FBD8D1
:20030000520728BF30C148BF0B607047642900F02781782900F06081732900F0F4820020CA
:2003200070471FB503F00CFD1FBD10B510BD00F0EEFA1146FFF7F5FF03F0B6FA00F00CFB15
:2003400003B4FFF7F2FF03BC00F014FB0948804709480047FEE7FEE7FEE7FEE7FEE7FEE733
:20036000FEE7FEE7FEE7FEE704480549054A064B704700005531000899020008300500246E
:20038000300B0024300700243007002453EA020C00F069802DE9F04B4FF00006002B1FBF85
:2003A000B3FA83F503FA05F424FA05F65E4012BF1643B2FA82F502FA05F4C5F120051EBF71
:2003C00022FA05FC44EA0C04203556EA044C4FEA144418BF641C4FF000084FF00009904294
:2003E00071EB030C39D3002919BFB1FA81F701FA07F6B0FA80F700FA07F6C7F120071EBF96
:2004000020FA07FC46EA0C062037B6FBF4FCA7EB0507103F07F01F0BCBF120060CFA0BFB89
:200420002CFA06F644BFB3460026202FA4BF5E464FF0000B5BEA060C08BF4FF0010B19EB6B
:200440000B09ABFB027C48EB0608C01B06FB02CC0BFB03CC71EB0C01C1E70B460246414673
:200460004846BDE8F08B13B54FF000004FF00001AFF30080BDE81C40704700000FB41CB519
:20048000074B06AA7B4469460090059800F011FA0020694600F020FA1CBC5DF814FB0000AF
:2004A000510400002DE9F0410E460446002020622046E168884730B3252805D0D4E90121FE
:2004C0009047206A401CF2E7E168204600278847050018D0A5F14100192802D820354FF46A
:2004E00000673246294620462760FFF70FFF40B1012804D0F61D26F007060836D8E7361D49
:20050000D6E72846DAE7206ABDE8F08170B50C460546012A05D02878800600D5EA6900231C
:2005200002E0012305E05B1C934202D2E05C0028F9D1A869E618C01AA861286A1844286218
:200540002846AFF3008004E0D5E9012114F8010B9047B442F8D32846AFF3008070BD0000DA
:200560002DE9F0410646002410687529314616A510D0AFF30080002802DA404213A507E055
:2005800031688A0701D512A502E0490704D511A5012401E0AFF3008000210A2206F124074C
:2005A00009E0B0FBF2FCB0FBF2F302FB1C00303078541846491C0028F3D123462A463046E6
:2005C000BDE8F04100F016B9000000002D0000002B0000002000000070B504460D462146E5
:2005E0001068AFF300802188090502D50F4A7A4402E00E4A7A440E32002104F1240305E062
:2006000000F00F060009965D5E54491C0028F7D120780023000704D5702D02D009B10223E9
:2006200011322046BDE8704000F0E4B89037000010B5431C02E010F8011B71B18107FAD1CA
:200640004FF0013202C88C1A8C4314EAC211F9D0C01A0A0603D0C01E10BDC01A10BD0A0432
:2006600001D0801E10BD0902FCD0401E10BD032A40F2308010F0030C00F0158011F8013B54
:20068000BCF1020F624498BF11F801CB00F8013B38BF11F8013BA2F1040298BF00F801CBA6
:2006A00038BF00F8013B11F0030300F02580083AC0F0088051F8043B083A51F804CBA0E88F
:2006C0000810F5E7121D5CBF51F8043B40F8043BAFF30080D20724BF11F8013B11F801CBE5
:2006E00048BF11F8012B24BF00F8013B00F801CB48BF00F8012B704710B5203AC0F00B80A7
:20070000B1E81850203AA0E81850B1E81850A0E81850BFF4F5AF5FEA027C24BFB1E818509B
:20072000A0E8185044BF18C918C0BDE810405FEA827C24BF51F8043B40F8043B08BF704771
:20074000D20728BF31F8023B48BF11F8012B28BF20F8023B48BF00F8012B70474FF00002D8
:200760000429C0F0128010F0030C00F01B80CCF1040CBCF1020F18BF00F8012BA8BF20F86B
:20078000022BA1EB0C0100F00DB85FEAC17C24BF00F8012B00F8012B48BF00F8012B70474B
:2007A0004FF0000200B5134694469646203922BFA0E80C50A0E80C50B1F12001BFF4F7AF16
:2007C000090728BFA0E80C5048BF0CC05DF804EB890028BF40F8042B08BF704748BF20F8B3
:2007E000022B11F0804F18BF00F8012B70477047704770472DE9F0470D4699469246044684
:2008000000F124080168880604D5E06921F01001216000E00120A84201DD471B00E00027CD
:20082000A1697A1902EB0900081AA0612078C00602D42046AFF30080002608E0D4E9012159
:200840001AF806009047206A401C761C20624E45F4DB2078C0060AD52046AFF3008006E0A2
:20086000D4E9012130209047206A401C2062381EA7F10107F4DC07E0D4E9012118F8050069
:200880009047206A401C2062281EA5F10105F3DC2046AFF300802078000602D50220BDE8A4
:2008A000F0870120FBE7000001694A1C02610878704700B58FB0CDE9013100210591054973
:2008C0007944CDE9031011466846FFF7EBFD0FB000BD0000E5FFFFFF0A6802F8010B0A606F
:2008E000704710B5436913B1AFF3008001E0FFF70DFE012010BD127800F124010A700022DE
:200900004A700122EDE711684FF0FF32E9E7754600F02CF8AE4605006946534620F0070046
:20092000854618B020B5FFF71FFDBDE820404FF000064FF000074FF000084FF0000B21F00B
:200940000701AC46ACE8C009ACE8C009ACE8C009ACE8C0098D46704710B50446AFF300806E
:200960002046BDE81040FFF7EBBC000000487047CC04002401491820ABBEFEE72600020094
:200980007047FEE7704772B6FEE70000C9070BD00649CB6823F4E663CB60CB681343842210
:2009A00042EA00200343CB607047000000200052C9070BD00649CA6822F03002CA60CA6885
:2009C0000243CA60C86840F08800C86070470000002000522DE9F0470025894604464FF0A5
:2009E000040800F001FB164E074607E0601C05D000F0FAFAC01BA04208D83CB1316938EAEC
:200A00000100F3D0B9F1010F03D005E00320BDE8F08735690B480540680006D00A488169B1
:200A20002943816175610120F1E7B9F1010F05D13069C00302D54FF4803070610020E6E725
:200A4000002000520000EE1718020024074810B501F07DFE064802F03CF80648082100F086
:200A600007F9BDE81040044802F00CBFFC000024840100240010025800800008074810B5A9
:200A800001F065FE064802F024F80648082100F0EFF8BDE81040044802F0F4BEFC00002453
:200AA00084010024001002580000020870B5044600F09AFA0546601C02D004480078044481
:200AC00000F092FA401BA042FAD370BD040000242DE9F05F04462E480F460026017D0129F3
:200AE00011D00121017580464FF0000AC0F818A04CF2503B2079C00708D05846FFF76AFF00
:200B000020B101263FE00220BDE8F09F2068DFF88490012806D04FF0FF303860A56840F2B1
:200B2000047B2BE061682069FFF742FF2079C00729D001215846FFF74DFF00B10126D9F89E
:200B40000C1021F00801C9F80C101CE0226928466168FFF71BFF2079C0070BD001214CF219
:200B60005030FFF737FFD9F80C10064621EA0B01C9F80C100EB13D6005E06D1CD4E9021003
:200B80000844A842E2D8304688F814A0BCE7000018020024002000520548C16841F00101BF
:200BA000C160C068C00701D00020704701207047002000522DE9F05F204F082615460C4684
:200BC000387D012813D001203875A4F10061B1F5003F0DD282464FF00009C7F818904CF217
:200BE000503B51465846FFF7F5FE18B122E00220BDE8F09FDFF84880D8F80C1041F002016C
:200C0000C8F80C10BFF36F8FBFF34F8F01CD01C4761E16F0FF06F9D1BFF36F8FBFF34F8F7C
:200C200051465846FFF7D6FED8F80C2022F00202C8F80C2087F81490DAE700001802002495
:200C4000002000520748C168C90708D00649416006494160C068C00701D00120704700206A
:200C6000704700000020005223016745AB89EFCD2DE9F04F504C00224FF0010B4FF00F0AD5
:200C800093E00BFA02F818EA01037CD022F0030505F1B045D5F808C49607370F0AFA07F60E
:200CA00006EA0C09DFF814C1604502D14FF0000C40E0DFF80CC1604502D14FF0010C39E01F
:200CC000DFF800C1604502D14FF0020C32E0DFF8F8C0604502D14FF0030C2BE0DFF8ECC0C2
:200CE000604502D14FF0040C24E0DFF8E4C0604502D14FF0050C1DE0DFF8D8C0604502D102
:200D00004FF0060C16E0DFF8D0C0604502D14FF0070C0FE0DFF8C4C0604502D14FF0080C46
:200D200008E0DFF8BCC0604502D14FF0090C01E04FF00A0C0CFA07FCCC4518D127689F4302
:200D4000276067689F4367604FF0B047D7F804C02CEA030CC7F804C0D7F800C02CEA030C6F
:200D6000C7F800C0D5F80834B343C5F80834056856000323B3401D430560D50800EB850509
:200D80002F6A560700E00FE04FEAD66C0AFA0CF6B7432F62C5689D43C560456825EA080587
:200DA000456085689D438560521C31FA02F37FF468AFBDE8F08F000080000058000002586E
:200DC0000004025800080258000C0258001002580014025800180258001C025800200258B3
:200DE000002402582DE9F84F694C00224FF0B04A4FF0010B4FF003084FF00F09C0E00BFA77
:200E000002F6334073D00D7905F00305012D01D0022D15D18768550008FA05FC27EA0C0722
:200E2000D1F80CC00CFA05FC4CEA070CC0F808C04568B5430E79C6F3001696402E43466065
:200E40000D79ED43AD0708D0C668550008FA05F7BE438F68AF403743C7600D7905F00305C4
:200E6000022D11D1D50800EB85073E6A5507ED0E09FA05FC26EA0C06D1F810C00CFA05FC48
:200E80004CEA060CC7F820C00668550008FA05F7BE430F7907F00307AF40374307604D689B
:200EA00015F4403F6BD03B4D2E6846F002062E602D6822F0030606F1B04605F00205009557
:200EC000D6F8087495074FEA157C09FA0CF5AF43314DA84201D100252EE0304DA84201D1C6
:200EE000012529E02E4DA84202D1022524E046E02C4DA84201D103251EE02B4DA84201D1AB
:200F0000042519E0294DA84201D1052514E0284DA84201D106250FE0264DA84201D10725B9
:200F20000AE0254DA84201D1082505E0234DA84201D1092500E00A2505FA0CF53D43C6F8E0
:200F40000854DAF8005056464F689D43FF0200D51D43356075684F689D43BF0200D51D43AB
:200F6000756065684E689D43B60300D51D43656025684E689D43F60300D51D432560521C42
:200F80000B6833FA02F57FF43AAFBDE8F88F000080000058F4440258000002580004025810
:200FA00000080258000C0258001002580014025800180258001C02580020025800240258B1
:200FC000426921EA02030A4043EA0241816170470AB1816170470904FBE70000014800680F
:200FE000000C70470010005C01488068704700000400002402488168027811448160704718
:2010000004000024032010B500F078F801F050F80F4A11681268C1F303230E49CB5C03F090
:201020001F03D84002F00F02895C0B4A01F01F0120FA01F11160094908600F2000F010F8CA
:2010400008B1012010BD00F02BF8002010BD000018440258723D0008140000241000002410
:2010600070B50D4D04462A78A2B14FF47A700B49B0FBF2F00968B1FBF0F001F0ABFC48B90E
:20108000102C07D200222146501E00F017F800206C6070BD012070BD040000241000002482
:2010A000054808B5016841F002010160006800F00200009008BD0000F44402580E4BF0B4EA
:2010C0001B68C3F30223C3F10704042C00D904241D1D072D01D2002300E0DB1E012606FA5E
:2010E00004F56D1E0D409D409E40761E164045EA0601F0BC02F0B6BB0CED00E0064A00F01C
:20110000070110684FF6FF03184040EA0120034908431060704700000CED00E00000FA05CF
:20112000124970B50A68D243520705D5096801F00701814212D117E00A6822F0070202439C
:201140000A60FFF751FF094D4FF47A760446083D06E0FFF749FF001BB04201D9012070BD6E
:201160002868C0438004F4D4002070BD0C48025810B500F057FF05490968054AC1F30211B5
:20118000515C01F01F01C84010BD000020440258723D0008484910B50A68096802F0030217
:2011A000454B1B1DC1F305311B68434C1434C3F300132468C4F3CC0414FB03F300EE103A0A
:2011C000B8EE400AE9B33C4B9FED3C1A1033F7EE000A62B1DFED3A1A012A01D0022A5ED05F
:2011E00002EE101AF8EE422A81EEA22A1AE0324A283A1468A4060DD51268C2F3C104314AF9
:20120000E24001EE902AF8EE612A01EE901AF8EE611A05E001EE901ADFED2B2AF8EE611A98
:2012200082EEA12A1968C1F3080101EE901A1968F8EE611A40EE011A31EEA00A22EE000A8E
:2012400000E033E0C1F3462101EE101AB8EE411A31EE201AC0EE011ABCEEE11A80ED001A18
:201260001968C1F3064101EE101AB8EE411A31EE201AC0EE011ABCEEE11A80ED011A196808
:20128000C1F3066101EE101AB8EE411A71EE200A80EE201ABCEEC10A80ED020A10BD01EE3E
:2012A000901ADFED0A2AF8EE611AB9E7002101604160816010BD00002844025800000039B3
:2012C0000024744A0090D0030024744C20BCBE4B484910B50A68096802F00302454B1B1D08
:2012E000C1F305511B68434C1C34C3F300232468C4F3CC0414FB03F300EE103AB8EE400A69
:20130000E9B33C4B9FED3C1A1833F7EE000A62B1DFED3A1A012A01D0022A5ED002EE101AEB
:20132000F8EE422A81EEA22A1AE0324A283A1468A4060DD51268C2F3C104314AE24001EEC0
:20134000902AF8EE612A01EE901AF8EE611A05E001EE901ADFED2B2AF8EE611A82EEA12A2D
:201360001968C1F3080101EE901A1968F8EE611A40EE011A31EEA00A22EE000A00E033E095
:20138000C1F3462101EE101AB8EE411A31EE201AC0EE011ABCEEE11A80ED001A1968C1F395
:2013A000064101EE101AB8EE411A31EE201AC0EE011ABCEEE11A80ED011A1968C1F30661E1
:2013C00001EE101AB8EE411A71EE200A80EE201ABCEEC10A80ED020A10BD01EE901ADFEDA2
:2013E0000A2AF8EE611AB9E7002101604160816010BD000028440258000000390024744A06
:201400000090D0030024744C20BCBE4B2DE9FC5F044600680025FA4FC043DFF8E8832E4656
:20142000010104F10800019004F1280000901DD4A06E50B1B0F5801F0CD0B0F5001F0ED0AD
:20144000B0F5401F1ED001250FE0386840F40030386017E00198022101F010FD03E00098BD
:20146000022101F095FD05000CD02E462088C043C00523D4A06D05281ED2DFE800F00C110C
:20148000161B1B00D8F80010A26E21F440111143C8F80010EAE7386840F40030386009E030
:2014A0000198002101F0EAFC03E00098002101F06FFD054675B100E001252E462088C0430C
:2014C000800528D4E06D80281ED00CDC90B140280ED114E0D8F80010A26D21F007011143E8
:2014E000C8F80010EAE7C02813D0B0F5807F10D001250FE0386840F40030386009E00198C9
:20150000002101F0BBFC03E00098002101F040FD05468DB12E462088DFF8EC92C0434005F6
:201520002CD4D4F8A800B0F5800F20D00DDCA0B1B0F5001F0FD115E0D8F80010E26D21F4FC
:20154000E0711143C8F80010E5E7B0F5C00F13D0B0F5000F10D001250FE0386840F4003046
:20156000386009E00198002101F088FC03E00098002101F00DFD05467DB12E462088C0438C
:2015800000052DD4D4F8AC00B0F1007F21D00EDCA8B1B0F1807F10D116E0D9F80010D4F855
:2015A000A82021F460011143C9F80010E6E7B0F1407F13D0B0F1806F10D001250FE0386893
:2015C00040F40030386009E00198002101F056FC03E00098002101F0DBFC054675B12E46E0
:2015E0002068C04380011FD4E06CD8B110280FD0202812D0302815D0012514E0D9F800109E
:20160000D4F8AC2021F0E0611143C9F80010E7E7386840F40030386004E00198022101F0C0
:201620002DFC054675B12E462088C043C0042BD4206EB0F5005F20D00DDCA0B1B0F5805FEE
:201640000FD115E06F48001F0168E26C21F0300111430160E8E7B0F5405F13D0B0F5804FC7
:2016600010D001250FE0386840F40030386009E00198002101F002FC03E00098002101F0BA
:2016800087FC05468DB12E462088C043800429D4606EB0F5403F23D010DC08B3B0F5803FAE
:2016A00014D0B0F5003F0FD115E0D8F80010226E21F4E0411143C8F80010E5E7B0F5802FA3
:2016C0000ED0B0F5A02F0BD001250AE00198012101F0D4FB03E00098012101F059FC054624
:2016E00095B12E462088C04340042AD4D4F8B000B0F1405F23D010DC08B3B0F1805F14D089
:20170000B0F1005F0FD115E0D8F80010626E21F4E0211143C8F80010E4E7B0F1804F0ED0F1
:20172000B0F1A04F0BD001250AE00198012101F0A5FB03E00098012101F02AFC054675B1BD
:201740002E462088C04300041FD4206FD8B1B0F1805F0ED0B0F1005F10D0012514E0D9F832
:201760000010D4F8B02021F0E0411143C9F80010E7E7386840F40030386004E0019801215D
:2017800001F07CFB054675B12E462068C043C0011ED4A06CD0B101280ED0022811D00328F4
:2017A00014D0012513E0D8F80010226F21F040511143C8F80010E8E7386840F4003038608A
:2017C00004E00198022101F059FB05467DB12E462068DFF838B0C043400256D40C480168C4
:2017E00041F480710160FFF7FFFB824618E00548001F0168A26C21F0030111430160E7E737
:201800002C44025850440258584402581044025800480258FFF7E8FBA0EB0A0064282CD8CC
:20182000FE480068C005F5D545BBFD480068B4F8B41000F4407001F4407188420CD0F8481E
:201840000168026821F4407142F480320260026822F4803202600160D4F8B400B0F5807F8C
:201860001AD1FFF7C1FB824609E0FFF7BDFBA0EB0A0141F28830814201D9032504E0E84812
:2018800000688007F1D53DB12E462078DFF894A3C043C00720D03BE0D4F8B400C0F3012161
:2018A00003290ED0DBF8001021F47C51CBF80010DB480168B4F8B420C2F30B021143016003
:2018C000E3E7DBF80020D84B22F47C5203EA10100243CBF80020EBE7E06F182816D005DCE7
:2018E000A0B1082808D0102804D10AE020280DD028280BD001250AE00198012101F0BEFAD4
:2019000003E00098012101F043FB054665B12E462078C04380071ED4A06F062819D2DFE823
:2019200000F0160C11161616DAF80010E26F21F038011143CAF80010EAE70198012101F022
:201940009DFA03E00098012101F022FB05467DB100E001252E462078C04340071FD4D4F8B1
:201960009400062819D2DFE800F0160C11161616DAF80010A26F21F007011143CAF800105C
:20198000E9E70198012101F079FA03E00098012101F0FEFA0546A5B100E001252E4620781F
:2019A000C04380062BD4D4F89000B0F1405F24D011DC10B3B0F1805F15D0B0F1005F10D119
:2019C00016E0D9F80010D4F8942021F007011143C9F80010E3E7B0F1804F0ED0B0F1A04FCA
:2019E0000BD001250AE00198002101F047FA03E00098022101F0CCFA054695B12E4620781E
:201A0000C04340062BD4D4F89C00B0F5406F24D011DC10B3B0F5806F15D0B0F5006F10D1B0
:201A200016E0DAF80010D4F8902021F0E0411143CAF80010E3E7B0F5805F0ED0B0F5A05F2A
:201A40000BD001250AE00198002101F017FA03E00098022101F09CFA054695B12E4620781D
:201A6000C04300062BD4D4F8A000B0F5C04F24D011DC10B3B0F5005F15D0B0F5804F10D15C
:201A800016E0D9F80010D4F89C2021F4E0511143C9F80010E3E7B0F5004F0ED0B0F5204FCC
:201AA0000BD001250AE00198002101F0E7F903E00098022101F06CFA054655B12E4620785E
:201AC000C04300071ED4D4F88400B0F5805F0AD00FE0D9F80010D4F8A02021F460411143F6
:201AE000C9F80010EBE70098022101F051FA00B10126DAF80010D4F8842021F44051114328
:201B0000CAF800102078C043C00613D4D4F89800B0F5807F05D10098022101F039FA00B13D
:201B20000126D9F80010D4F8982021F440711143C9F800102068C043000316D4D4F8A40046
:201B400038B1B0F5803F09D0B0F5003F0BD001250AE00198002101F091F903E000980221BD
:201B600001F016FA05468DB12E462068C043400322D4D4F88800B0F5801F11D0B0F5001F66
:201B800013D0B0F5401F15D0012514E0D9F80010D4F8A42021F440311143C9F80010E4E778
:201BA000386840F40030386004E00098012101F0EFF905465DB12E462068C043C0031CD407
:201BC000206D70B1B0F5803F10D0012514E0DAF80010D4F8882021F440111143CAF8001017
:201BE000EAE7386840F40030386004E00198022101F044F905462DB32E462068C043800000
:201C000005D40098022101F0C3F900B101262068C043800324D4D4F8800007E000480258D0
:201C20007044025854440258CFFFFF00B0B1B0F5807F0FD0B0F5007F10D0B0F5407F0DD0AE
:201C400001250CE05A480168226D21F4803111430160D2E7386840F400303860F5B32E46EC
:201C60002068C043C00207D4D8F80010626F21F000411143C8F800102068C043C00008D4EE
:201C8000DBF80010D4F8B82021F480411143CBF800102068C043800207D4D8F80010E26EA8
:201CA00021F080711143C8F800102068C04340000CD4DBF8001021F40041CBF80010DBF874
:201CC0000010D4F8BC201143CBF800102068C04308D43748016821F0405100E017E0626D8E
:201CE000114301602068C043000208D4DAF80010D4F88C2021F440011143CAF80010207957
:201D00000025C04300F0010028430AD00FE0DAF80010D4F8802021F440711143CAF800103C
:201D20009EE70198002101F0A9F800B106462079C04300F00200284305D10198012101F05A
:201D40009DF800B106462079C04300F00400284305D10198022101F091F800B10646207954
:201D6000C04300F00800284305D10098002101F00FF900B106462079C04300F01000284371
:201D800005D10098012101F003F900B106462079C04300F02000054304D10098022101F054
:201DA000F7F800B916B10120BDE8FC9F0020FBE74C4402582DE9F05F04000D467ED0DFF886
:201DC0004492D9F8000000F00F00A8420CD2D9F8001021F00F012943C9F80010D9F8000085
:201DE00000F00F00A84269D12078874E40070AD52069316801F07001884204D9316821F058
:201E00007001014331602078DFF8008200070CD560694146D8F8002002F07002904204D950
:201E20000A6822F0700202430A602078C0060CD5A0694146D8F8002002F4E062904204D957
:201E40000A6822F4E06202430A602078DFF8C0B180060CD5E0695946DBF8002002F0700283
:201E6000904204D90A6822F0700202430A60207880070AD5E068316801F00F01884204D987
:201E8000316821F00F01014331602078C0073DD03068A16820F47060084330605A4960687C
:201EA0001839022818D0032819D00968012819D04907002949DADFF850A100E045E0AAF124
:201EC000080ADAF8001021F007010143CAF80010FFF78AF8074611E009688903E9E70968EB
:201EE0008901E6E7C905E4E7FFF77EF8C11B41F28830814202D90320BDE8F09FDAF80000F8
:201F0000616800F03800B0EBC10FEDD1207880070AD5E068316801F00F01884204D231688E
:201F200021F00F0101433160D9F80010484601F00F01A9420BD9016821F00F012943016015
:201F4000006800F00F00A84201D00120D4E7207840070AD52069316801F07001884204D2A1
:201F6000316821F0700101433160207800070CD560694146D8F8002002F07002904204D2A5
:201F80000A6822F0700202430A602078C0060CD5A0694246D8F8001001F4E061884204D216
:201FA000116821F4E06101431160207880060CD5E0695946DBF8002002F07002904204D2B7
:201FC0000A6822F0700202430A6000F071F83168C1F303220F498A5C02F01F02D040326896
:201FE00002F00F02895C0C4A01F01F0120FA01F111600A4908600A480068BDE8F05FFFF7B6
:202000002FB8000000200052184402581C44025820440258723D0008140000241000002416
:202020000800002400B500F043F80B4A11681268C1F303230949CB5C03F01F03D84002F0DA
:202040000F02895C064A01F01F0120FA01F11160044A1060084600BD18440258723D000876
:20206000140000241000002400B5FFF7DBFF05490968054AC1F30211515C01F01F01C840D4
:2020800000BD00001C440258723D000800B5FFF7C9FF05490968054AC1F30221515C01F01C
:2020A0001F01C84000BD00001C440258723D0008434830B50068444C10F03801414808D0C8
:2020C0000211082903D010290BD018290BD0104630BD21688906FBD52168C1F3C101C84087
:2020E00030BD3A4830BD364918310A68096802F00302334B1C33C1F305111B68304D03F058
:20210000010324352D68C5F3CC0515FB03F300EE103AB8EE400AE9B3294BDFED2D0A2033B0
:20212000B7EE001A62B1DFED2B1A012A01D0022A3CD002EE101AF8EE422A81EEA22A17E0EA
:20214000226892060CD52268C2F3C102D04001EE900AF8EE612A01EE901AF8EE611A05E091
:2021600001EE901ADFED1C2AF8EE611A82EEA12A1868C0F3080001EE900A1868F8EE611A73
:2021800040EE201A31EE810A22EE000AC0F34620401C00E011E000EE900AF8EE600A80EE87
:2021A000201ABCEEC10A10EE100A30BD01EE901ADFED0A2AF8EE611AD8E7002030BD0000A5
:2021C000104402580090D0030044025840787D01000000390024744A0024744C20BCBE4B36
:2021E0002DE9F05F040079D02078DFF8F8A3FE4EFE4DC00747D0DAF80000316800F038001B
:20220000102815D0182803D101F0030002280FD06068B0F5803F12D010B1B0F5A02F18D065
:20222000286820F480302860286820F4802009E02868800327D560680028D4D023E028685F
:2022400040F480302860606888B1FEF7CDFE074609E0286840F480202860F0E7FEF7C4FEA1
:20226000C01B642872D828688003F7D50BE0FEF7BBFE074604E0FEF7B7FEC01B6428F1D82A
:2022800028688003F7D4207841F20309D84F800766D5DAF80000316810F038000ED01828DF
:2022A00001D188070AD0E06880B3296821F0190101432960FEF798FE80462EE028684007A9
:2022C00002D5E06800288ED02868E16820F0190008432860FEF788FE804606E0D8E0FEF7B0
:2022E00083FEA0EB08000228BCD828684007F6D5FEF774FE48451AD82069402811D0396811
:2023000021F47C3141EA0030386029E016E0FEF76BFEA0EB08000228A4D828684007F6D5D0
:20232000E6E7386820F47C3040F40030ECE73868217C20F0FE4040EA0160E5E7286820F0B7
:2023400001002860FEF750FE804606E000E1FEF74BFEA0EB0800022884D828684007F6D42C
:202360002078C0065AD5DAF80000316800F03800DFF870B20828ABF1040B10D0182803D175
:2023800001F0030001280AD0E0690028286836D040F080002860FEF727FE804621E0286896
:2023A000C00521D5E069802872D11DE0206A20281FD0396821F0F84141EA806038602DE0D5
:2023C000DBF8001094F8202021F07C5141EA0261CBF8001022E0FEF707FEA0EB0800022856
:2023E0009AD82868C005F6D5FEF7F8FD4845E7D8DCE7386820F0F84040F08040DEE720F0A5
:2024000080002860FEF7F0FD074604E0FEF7ECFDC01B0228A0D82868C005F7D42078000787
:2024200028D5714960694C31002888460846096810D041F001010160FEF7D6FD074604E07D
:20244000FEF7D2FDC01B022886D8D8F800008007F6D50FE021F001010160FEF7C5FD0746CC
:2024600004E0FEF7C1FDC01B022871D8D8F800008007F6D42078800623D5A069002828687F
:2024800010D040F480502860FEF7AEFD074605E038E1FEF7A9FDC01B022859D82868800400
:2024A000F7D50EE020F480502860FEF79DFD074604E0FEF799FDC01B022849D82868800471
:2024C000F7D4207840074DD5DFF82881D8F8001041F48071C8F80010FEF786FD074604E031
:2024E000FEF782FDC01B642832D8D8F80000C005F6D53D4FA068483701280AD008B105289B
:2025000013D0386820F001003860386820F0040002E0386840F001003860A06841F2883994
:2025200090B1FEF761FD80460AE0386840F004003860EEE7FEF758FDA0EB0801494507D8CB
:2025400038688007F6D50DE0FEF74EFD804606E083E0FEF749FDA0EB080149457DD83868FB
:202560008007F6D4616AD9B3DAF800004FF6F87BDFF8748008F10808C0F3C200032808F1BC
:202580000409A8F1040A69D02868022920F08070286003D0FEF728FD044688E0FEF724FD56
:2025A000074604E0FEF720FDC01B02287CD828688001F7D4306840F2F3318843E16A40EA75
:2025C0000110A16A0843306094F83400218E4002491EA0F5007080B2C1F3080108430BE0C2
:2025E000B3E000001044025828440258004402580444025800480258218F4FF4FE02491E98
:2026000002EA0141084394F83C101202491E02EA01610843C8F80000DAF80010504621F00C
:202620000101CAF80010D9F80020A36C22EA0B0242EAC302C9F80020DAF80010226C21F05A
:202640000C011143CAF80010DAF80010626C21F0020111430160016801E025E02BE041F43F
:2026600080310160016841F400310160016841F480210160016841F001010160286840F0BB
:2026800080702860FEF7B0FC044604E0FEF7ACFC001B022808D828688001F7D555E0FEF72A
:2026A000A3FC001B022802D90320BDE8F09F28688001F4D449E03268D8F80000012921D07D
:2026C000A36A02F0030199421CD1E16AC2F30512914217D1216BC0F30802491E8A4211D1FF
:2026E000616BC0F34622491E91420BD1A16BC0F30642491E914205D1E16BC0F30660491EFA
:20270000814201D00120D0E7D9F800004F46A16CC0F3CC00814218D0DAF80000564620F032
:202720000100CAF80000FEF75FFC0546FEF75CFCA842FBD03868A16C20EA0B0040EAC1008C
:202740003860306840F0010030600020ADE710B5040012D0022084F881002068016821F008
:2027600001010160204600F0C3F80020C4F8840084F8810084F8800010BD012010BD0000D1
:202780002DE9F041040027D00025A562554F2068554A564BB84206D0904204D0984202D03D
:2027A000E1680F2918D8E16B012606EB511CE1680831C908B84201FB0CF105D0904203D017
:2027C000984201D0082907D8B84203D0904201D0984204D1102902D90120BDE8F08194F848
:2027E000810020B9204684F8805000F09FF8022084F881002068016821F00101016020683A
:20280000816801F4F812A169B1F1806F10D16168B1F5800F01D019B10AE0A16B21B107E00C
:20282000A16BB1F1805F03D1016841F4805101606068400209D5E068072806D3206801683E
:20284000236D21F48071194303E02068016821F480710160A16AE0690843E16B11430843C1
:20286000E168084321688860616A606BA2690843A16B114308432169084361690843216A47
:20288000084361680843E16C0843A1680843A16C0843A16D08432168C860606868B920681A
:2028A000816821F4C05141F4006181602068816821F4C06141F4806181602068016D21F0ED
:2028C000010101656068400206D52068C168626D21F000411143C160C4F8845084F8816077
:2028E00000207AE70030014000380040003C004010B50068094988420ED10948016821F4FB
:202900008051016007488021FEF7B2F9BDE8104005481821FEF7ACB910BD000000300140E2
:20292000F0440258000C02580004025870B5B6B00446142130A8FDF733FFC0216846FDF7BA
:202940002FFF2049206888423AD18114002018900546CDE900106846FEF758FD08B1FEF76F
:2029600012F81948016841F480510160006800F48050359014481038016841F00801016083
:20298000016801F008013591016841F002010160006830A9022400F0020035908020052627
:2029A00081E831000948CDE93346FEF71BFA30A9182081E831000648CDE93346FEF712FACA
:2029C00036B070BD00300140F0440258000C025800040258401EB0F1807F10B501D3012069
:2029E00010BD4FF0E02460610F21601700F03AFF0020A06107202061002010BD90F8841064
:202A0000012918D0012180F884102421C0F8881001680A680B6823F001030B6022F00051AE
:202A200000224266036819602021C0F8881080F88420104670470220704770B5044690F85E
:202A4000840001281DD0012084F884002420C4F8880020680568026822F0010202602068D5
:202A6000826822F060620A438260204600F0E0FB206805602020C4F88800002084F88400A7
:202A800070BD022070BD70B5044690F8840001281DD0012084F884002420C4F888002068F8
:202AA0000568026822F0010202602068826822F060420A438260204600F0BAFB206805607B
:202AC0002020C4F88800002084F8840070BD022070BD70B504001DD02420C4F888002068B0
:202AE000016821F0010101602068002505602068456020688560204600F044F8C4F890501F
:202B0000C4F88850C4F88C50E5662567002084F8845070BD012070BD10B5040003D0D4F85F
:202B2000880010B107E0012010BD002084F88400204600F03DF82420C4F888002068016853
:202B400021F001010160204600F078FC0128EBD0A06A10B1204600F08DFB2068416821F464
:202B6000904141602068816821F02A0181602068016841F0010101602046BDE8104000F085
:202B8000DDBB000000680749884209D10648016821F01001016005484FF4C061FEF768B841
:202BA0007047000000100140F04402580000025830B5B7B00446142130A8FDF7F1FDC021BF
:202BC0006846FDF7EDFD1F492068884238D1002101200C460225CDE900010A200A906020F0
:202BE0000B9005200C90CDE90D056802CDE90F01102011911F906846FEF708FC08B1FDF7AC
:202C0000C2FE1148016841F010010160006800F0100035900C481038016841F001010160C9
:202C2000006830A900F0010035904FF4C06030900720CDE93154CDE933400448FEF7D2F8E4
:202C400037B030BD00100140F0440258000002582DE9F8430446D0F888001F4615460E4668
:202C6000202802D00220BDE8F883AEB1A5B10020C4F890002120C4F888001834FEF7B4F964
:202C8000A5878146E5874FF0200854F8100C183CB0F5805F02D003E00120E4E7206910B143
:202CA0003546002610E000250EE08021204600F093FDB8B9D5B115F8010B21688862B4F8BA
:202CC0005600401EA4F85600B4F856004B464FF0000200970028E8D14FF04001204600F02C
:202CE0007BFD40B1C4F888800320BCE736F8020BC0F30800E1E7C4F888800020B3E7FEE7C0
:202D0000F0B587B014216846FDF74AFD2548016841F010010160016801F0100105910168D6
:202D200041F080010160016801F080010591016841F001010160016801F0010105910168B7
:202D400041F008010160016801F008010591016841F00201016000680022134E082100F0DD
:202D6000020005903046FEF733F9104F012240213846FEF72DF908206946012402258DE811
:202D80003100002003903046FEF72CF840206946CDE90004CDE902453846FEF723F807B0B5
:202DA000F0BD0000E044025800100258000C025815480722134910B501604FF480014160AB
:202DC0000021C0E902124FF080620161C0E90512C1611201016241628162C162C0E90D21BA
:202DE000C163016441648164C164016541658165FFF7C6FC002803D0BDE81040FDF7C3BD8D
:202E000010BD000000300140FC00002418480C22164910B501604FF4E13141600021816049
:202E2000C160C0E904128161C161016241628162FFF772FE08B1FDF7A6FD0D480021FFF7A3
:202E400022FE08B1FDF79FFD09480021FFF7F5FD08B1FDF798FD0648FFF7D0FD002803D061
:202E6000BDE81040FDF78FBD10BD00000010014084010024FEE7FEE7704700002DE9F04788
:202E8000DFF8088104460E464FF00009D8F80000C043800709D03D4D283D286820F080604A
:202EA0002860FEF7A1F8074607E00120BDE8F087FEF79AF8C01B022860D828680001F7D46B
:202EC000D8F80010226821F47C3141EA0231C8F80010207A4FF4FE02A1884002491EA0F554
:202EE000007080B2C1F308010843A189491E02EA01410843217C1202491E02EA016108436D
:202F00002249103108602148001D0168626921F0C001114301600168A26921F02001114362
:202F20000160016821F010010160184914310A684FF6F8739A43E36942EAC3020A6001688F
:202F400041F0100101606EB10168012E0ED041F400110160286840F080602860FEF744F839
:202F600004460DE0016841F40021F2E741F48011EFE7FEF739F8001B022801D9032095E702
:202F800028680001F5D5484690E70000284402582DE9F047DFF8088104460E464FF0000978
:202FA000D8F80000C043800709D03D4D283D286820F080502860FEF717F8074607E001209E
:202FC000BDE8F087FEF710F8C01B022860D828688000F7D4D8F80010228821F07C7141EA0D
:202FE0000251C8F80010207A4FF4FE02A1884002491EA0F5007080B2C1F308010843A18996
:20300000491E02EA01410843217C1202491E02EA016108432249183108602148001D016814
:20302000626921F44061114301600168A26921F4007111430160016821F48071016018497A
:203040001C310A684FF6F8739A43E36942EAC3020A60016841F4807101606EB10168012ED6
:203060000ED041F080710160286840F080502860FDF7BAFF04460DE0016841F48001F2E7FB
:2030800041F40001EFE7FDF7AFFF001B022801D9032095E728688000F5D5484690E70000E5
:2030A000284402587047FDF7A5BF000030B59DB04C216846FDF774FB202113A8FDF770FB30
:2030C0000220FEF72DF821480024016821F00101016000681E48016821F4404141F4004107
:2030E0000160016801F440411B9101688904FCD50120009005210004019002200990CDE940
:203100000A016021CDE90C10042112940825CDE90E10CDE910546846FFF762F808B172B68C
:20312000FEE714A93F201390032081E831000221179413A8189419941A94FEF73BFE002848
:2031400001D072B6FEE71DB030BD00002C040058184802582C4810B5016841F470010160EC
:203160002A4A106800F00F00072804D2106820F00F00C01D10602649086840F00100086003
:20318000234B0020103318600B68224C23400B60136803F00F03072B04D9136823F00F0308
:2031A000DB1D13601A4A18321060121D1060121D1060174B184A28331A601B1D174A1A609C
:2031C0001B1D174A1A601B1D18601B1D1A601B1D18601B1D1A601A1D10600A6822F4802247
:2031E0000A600B49603108600E4800686FF30F00B0F1005F03D20C490120C1F8080143F2A7
:20320000D2000A49086010BD88ED00E000200052004402587FEDF6EA000202020000FF019D
:20322000800201010010005C008000510040005230B5416EB9B1026891689268C1F3426189
:203240000B4C520FA35C1D0104F108039A5CB5FBF2F2A0F86A20625C595C1201B2FBF1F1D8
:20326000A0F8681030BD0121A0F86A10F8E70000623D000890F82810C90706D001684A6816
:20328000C36A22F400321A434A6090F82810890706D501684A68036B22F480321A434A602F
:2032A00090F82810490706D501684A68436B22F480221A434A6090F82810090706D5016887
:2032C0004A68836B22F400421A434A6090F82810C90606D501688A68C36B22F480521A43B7
:2032E0008A6090F82810890606D501688A68036C22F400521A438A6090F82810490611D54C
:2033000001684A68436C22F480121A434A60416CB1F5801F06D101684A68836C22F4C00289
:203320001A434A6090F82810090606D501684A68C06C22F4002202434A6070472DE9F84366
:2033400000250446C0F89050FDF74EFE8046206800686FF07E474FF02006000713D50022D6
:20336000434631042046009700F036FA58B1206850E8001F21F0800140E80012002AF6D1CD
:20338000C4F8886021E020680068400722D5002243464FF480012046009700F01DFAC8B16E
:2033A000206850E8001F21F4907140E80012002AF6D12068083050E8001F21F0010140E89B
:2033C0000012002AF5D1C4F88C60032084F88450BDE8F883C4F88860C4F88C60E56625678D
:2033E000002084F88450F3E710B5016851E8002F22F4907241E80023002BF6D10E4B0168D5
:20340000083151E8002F1A4041E80024002CF6D1C16E012908D1016851E8002F22F010024A
:2034200041E80023002BF6D12021C0F88C100021C166416710BD0000FEFFFFEF2DE9F043C8
:20344000044600680025DFF8548387B02269A168E369114362691A4311430268D04B1A4021
:203460000A43026020684168E26821F44051114341602168A069414501D0226A10438A68CD
:20348000C84B1A4002438A602068C16A626A21F00F011143C162C4492268C4488A420ED12B
:2034A000006800F03800182873D047DCB8B3082879D010286FD178E028287ED17BE0BC4923
:2034C0008A4209D1006800F00700062875D2DFE800F0546A6C6E7072B6498A4209D1006834
:2034E00000F00700062868D2DFE800F0475D5F616365B1498A4209D1006800F0070006285D
:203500005BD2DFE800F03A5052545658AB498A420BD1006800F0070006284ED200E010E0D0
:20352000DFE800F02B4143454749A5498A420AD1006800F03800182839D0B7DD2028BBD17A
:2035400037E001213AE09F498A4209D1006800F00700062831D2DFE800F01026282A2C2E61
:2035600099498A420BD1006800F00700062824D2DFE800F003191B1D1F2100211EE042454D
:203580001BD18A48001D006800F00700062814D202E00CE007E010E0DFE800F00305070969
:2035A0000B0D02210AE0042108E0082106E0102104E0202102E0402100E0802183487B4B1F
:2035C0004FF4004C824E4FF000090711543B42454DD1102919D006DC022909D004290AD0E9
:2035E00008297DD10CE020293DD0402978D13CE0FDF7BEFD10E06846FDF7CCFD01980BE0AE
:2036000003A8FDF765FE049806E01968890605D51968C1F3C101C840002823D0616A36F829
:2036200011206668B0FBF2F106EB46038B4257D8B1EB063F54D800234F461946FCF7A6FE0C
:203640000902020241EA106170081018324679410023FCF79BFE5F4AA0F5407191423FD865
:203660002168C86086E03846D8E76046D6E7E2694FF6EF78624545D1082918D005DC59B1DB
:2036800001290CD0042974D10CE0102914D0202934D040296DD133E0FEF7E6FC13E0FEF7E3
:2036A000F5FC10E06846FDF775FD01980BE003A8FDF70EFE049806E01968890604D51968FA
:2036C000C1F3C101C84080B3616A36F81110B0FBF1F04100606801EB5001B1FBF0F000E0E1
:2036E00047E0A0F11002424543D84FF6F0710140C0F3420001432068C1603BE03846E3E732
:203700006046E1E7082919D005DC59B101290DD004292ED10DE0102915D0202937D040293F
:2037200027D136E0FEF7A0FC14E023E0FEF7AEFC10E06846FDF72EFD01980BE003A8FDF774
:20374000C7FD049806E01968890604D51968C1F3C101C84070B1616A36F81110B0FBF1F173
:20376000606801EB5001B1FBF0F0A0F11001414511D901250120A4F86A00A4F868002846E7
:20378000C4F87490C4F8789007B0BDE8F0833846E1E76046DFE780B262E70000000C005845
:2037A000F369FFCFFFF4FF1100100140544402580044004000480040004C00400050004071
:2037C0000014014000780040007C00400090D0034A3D0008FFFC0F002DE9F0471F4690469C
:2037E0000E460446089D4FF000092EE0681C2CD0FDF7FAFBC01BA84214D89DB120680168D7
:20380000490722D5C169C94309070DD4082505622046FFF7E9FDC4F89050012084F8849017
:20382000BDE8F0870320FBE7C069C04300050CD421684FF4006008622046FFF7D5FD202052
:20384000C4F8900084F88490ECE72068C06936EA000004D000204045C8D00020E0E70120CF
:20386000F9E7FEE70907090E002804DB00F1E02080F80014704700F00F0000F1E02080F8B9
:20388000141D70470749486048680068C860486840688860886808604868006880F3088855
:2038A000086800471800002408B5FDF7ABFBFFF7FDFBFFF725FAFFF77BFAFFF7A7FA6E4902
:2038C00054226E48FCF7D3FE6C4A6DA102F15400FCF7D4FD69485430FCF7AAFE674982B275
:2038E0006C480A235431FFF7B3F9644880215430FCF734FF614C606981B20091020EC0F3CC
:20390000074365A104F15400FCF7B8FD04F15400FCF78EFE82B25F480A2304F15401FFF756
:2039200097F9802104F15400FCF718FFB4F852005EA1009004F15400D4F84E30A269FCF7E5
:203940009DFD04F15400FCF773FE82B251480A2304F15401FFF77CF9802104F15400FCF794
:20396000FDFE04F11C025AA102F13800FCF786FD04F15400FCF75CFE82B246480A2304F123
:203980005401FFF765F9802104F15400FCF7E6FE04F1300253A102F12400FCF76FFD04F137
:2039A0005400FCF745FE82B23A480A2304F15401FFF74EF9802104F15400FCF7CFFE00F079
:2039C000C9F840F6B834E8B12C484BA15430FCF755FD2A485430FCF72BFE284982B22D4816
:2039E0000A235431FFF734F9244880215430FCF7B5FE002000F0BAF82046FDF757F8FDF75C
:203A000025F819E01D4845A15430FCF737FD1B485430FCF70DFE194982B21E480A23543107
:203A2000FFF716F9154880215430FCF797FE2046FDF73CF8FDF722F8414E4FF47A77414C8B
:203A400042F210752068A84203D208213046FDF7B7FA20680A230B22401C20600D483AA134
:203A6000FFF7F6F82068142801D1FDF707F83846FDF71CF8E6E7000000000408280000242E
:203A8000646576696365206E616D653A25730D0A000000008401002476657273696F6E3A23
:203AA0002025642E25642E25640D0A0074696D657374616D703A2025642073697A653A20EC
:203AC00025642C2063726331363A2025780D0A006D616E7566616374757265723A20257365
:203AE0000D0A00006465736372697074696F6E3A2025730D0A000000456E61626C65642037
:203B0000726570726F6772616D20666C61672C20676F746F20617070310000004469736104
:203B2000626C656420726570726F6772616D20666C61672C20676F746F20617070320000AD
:203B40000010025800000024496E746F20426F6F740D0A000448D0F80001B0F1A53F01D007
:203B60000020704701207047000004082DE9F843554F4FF40072064654484FF0A53839465D
:203B8000FCF7BAFD514D0024012E01D01EB16BE0C5F8008101E0C5F80041FDF753F85048AB
:203BA0004BA1FCF76BFC4E48FCF742FD82B24C494C480A23FFF74CF84948FCF739FD014632
:203BC0004748FCF7EDFD464801218030C160C0E90041022181602021016169460094FCF731
:203BE00077FF002840D13E483FA1FCF747FC3C48FCF71EFD82B23A493A480A23FFF728F86C
:203C00003748FCF715FD01463548FCF7C9FD3C4E3C462A1921460120FCF7CCFF20BB2034DF
:203C2000B442F6D3FCF7B8FF2D4836A1FCF726FC2B48FCF7FDFC82B229492A480A23FFF720
:203C400007F82748FCF7F4FC01462548FCF7A8FD00203968EA59914200D001203F1DB742AA
:203C600005D20028F5D003E00120BDE8F883A0B11B4828A1FCF702FC1948FCF7D9FC82B291
:203C8000174918480A23FEF7E3FF1548FCF7D0FC01461348FCF784FDE6E7114822A1FCF752
:203CA000EDFB0F48FCF7C4FC82B20D490D480A23FEF7CEFF0A48FCF7BBFC01460848FCF7BE
:203CC0006FFD0020D1E700000000040838020024464C41534820756E6C6F636B6564000053
:203CE0003804002484010024457261736520464C4153482046696E697368656400000000F3
:203D000000020408464C415348206C6F636B656400000000464C41534820636865636B20E9
:203D20006661696C65640000464C41534820636865636B20737563636573736564000000B0
:203D40004FF04070E1EE100A7047010002000400060008000A000C001000200040008000B9
:203D60000001010101030701000008040204080101010000000001020304010203040607F6
:203D800008093031323334353637383941424344454640305800303132333435363738399B
:203DA000616263646566403078000000CC3D00080000002428000000D4020008F43D000852
:203DC00028000024080B0000F0020008000000000100000010000000000000000090D00316
:143DE0000090D003000000000000000000000000000000006C
:2080000098A50024E58400085D1101089D0B01083D110108F5B200086142010800000000B4
:208020000000000000000000000000002584000879B800080000000081840008391B0108EC
:20804000FF840008FF840008FF840008FF840008FF840008FF840008FF840008FF840008C8
:20806000FF840008FF840008FF84000825B40008FF840008FF840008FF840008FF84000852
:20808000FF840008FF840008FF840008C5B80008FF840008D1B80008FF840008FF84000888
:2080A000FF840008FF840008FF840008FF840008E51C0108FF840008FF840008FF840008E9
:2080C000FF840008FF840008FF840008FF840008FF840008B5250108FF840008FF840008F0
:2080E000FF840008FF84000800000000FF840008FF840008FF840008FF840008FF840008B3
:20810000FF840008FF840008FF840008FF840008FF840008FF840008FF840008FF84000807
:20812000FF840008FF840008FF840008FF840008FF840008FF840008FF840008FF840008E7
:2081400000000000000000000000000000000000FF840008FF840008FF840008FF840008F3
:20816000FF840008FF840008FF840008FF840008FF840008FF840008FF840008FF840008A7
:20818000FF840008FF840008FF840008FF840008FF840008FF840008FF840008FF84000887
:2081A000FF840008FF840008FF840008FF840008FF840008FF840008FF840008FF84000867
:2081C000FF840008FF840008FF840008FF840008FF84000809140108FF840008FF840008AC
:2081E000FF840008FF840008FF840008FF840008FF840008FF840008FF840008FF84000827
:20820000FF840008FF840008FF840008FF840008FF840008FF840008FF840008FF84000806
:20822000FF840008FF840008FF84000800000000FF840008FF84000800000000FF840008FC
:20824000FF840008FF840008FF840008FF840008FF840008FF840008FF840008FF840008C6
:20826000FF840008FF840008FF840008FF840008FF840008FF840008FF8400080000000031
:20828000FF840008FF840008FF8400080000000000000000FF84000800F002F800F0B2F82E
:2082A0000AA090E8000C82448344AAF10107DA4501D100F0A7F8AFF2090EBAE80F0013F074
:2082C000010F18BFFB1A43F00103184754070100740701000A444FF0000C10F8013B13F054
:2082E000070408BF10F8014B1D1108BF10F8015B641E05D010F8016B641E01F8016BF9D183
:2083000013F0080F1EBF10F8014BAD1C0C1B09D16D1E58BF01F801CBFAD505E014F8016BB5
:2083200001F8016B6D1EF9D59142D6D3704700000023002400250026103A28BF78C1FBD87D
:20834000520728BF30C148BF0B6070476E2900F06586702900F0BD8766290FF0E5876529FC
:208360000FF0E28767290FF0DF8761290FF0DE8703681B0A28BF41F08001692900F0C281C4
:20838000642900F0BF81752900F0BC816F2900F04A87782900F08987E92900F0E586E429E1
:2083A00000F0E286F52900F0DF86EF2900F04787F82900F088870368DB0928BF41F0800114
:2083C000632900F06686732900F06B86E32901F03986F32901F03E86002070471FB50FF081
:2083E0009BFF01F041FA0400002000210FF076FF401C6060002000210FF05AFFE0601FBD2D
:2084000010B510BD02F07AF81146FFF7E7FF0CF0EDFF02F017FB03B4FFF7F2FF03BC02F0F8
:208420002DFB00002C4B19680868B0E8F04F80F30988BFF36F8F4FF0000080F3118870471F
:208440000000000008480068006880F308884FF0000080F3148862B661B6BFF34F8FBFF33A
:208460006F8F00DF00BF00BF08ED00E0DFF80C00016841F470010160704700BF88ED00E0AE
:20848000EFF30980BFF36F8F134B1A681EF0100F08BF20ED108A20E9F04F106009B44FF092
:2084A000500080F31188BFF34F8FBFF36F8F0EF03FFC4FF0000080F3118809BC19680868E6
:2084C000B0E8F04F1EF0100F08BFB0EC108A80F30988BFF36F8F7047B4000024EFF30580F1
:2084E000704700000948804709480047FEE7FEE7FEE7FEE7FEE7FEE7FEE7FEE7FEE7FEE723
:2085000004480549054A064B70470000FD1B010899820008989F002498A5002498A100240D
:2085200098A1002453EA020C00F069802DE9F04B4FF00006002B1FBFB3FA83F503FA05F400
:2085400024FA05F65E4012BF1643B2FA82F502FA05F4C5F120051EBF22FA05FC44EA0C040F
:20856000203556EA044C4FEA144418BF641C4FF000084FF00009904271EB030C39D300292D
:2085800019BFB1FA81F701FA07F6B0FA80F700FA07F6C7F120071EBF20FA07FC46EA0C06B5
:2085A0002037B6FBF4FCA7EB0507103F07F01F0BCBF120060CFA0BFB2CFA06F644BFB346A9
:2085C0000026202FA4BF5E464FF0000B5BEA060C08BF4FF0010B19EB0B09ABFB027C48EBFD
:2085E0000608C01B06FB02CC0BFB03CC71EB0C01C1E70B46024641464846BDE8F08B13B547
:208600004FF000004FF00001AFF30080BDE81C40704700001CB50C46064B7B44694600908F
:20862000204600F014FD04460020694600F022FD20461CBD570A00000FB41CB5084B06AA74
:208640007B4469460090059800F001FD04460020694600F00FFD20461CBC5DF814FB0000DA
:20866000310A000070B5044685690068C10601D5302600E02026C00707D070BDD4E9012137
:2086800030469047206A401C20626D1EF6D570BD70B5044685690078C00707D170BDD4E944
:2086A000012120209047206A401C20626D1EF6D570BD70B50C460546012A05D028788006AE
:2086C00000D5EA69002302E0012305E05B1C934202D2E05C0028F9D1A869E618C01AA86124
:2086E000286A184428622846FFF7BCFF04E0D5E9012114F8010B9047B442F8D32846FFF70B
:20870000C7FF70BD2DE9F0410646002410687529314616A510D000F016FC002802DA4042FF
:2087200013A507E031688A0701D512A502E0490704D511A5012401E000F00EFC00210A22D5
:2087400006F1240709E0B0FBF2FCB0FBF2F302FB1C00303078541846491C0028F3D1234688
:208760002A463046BDE8F04100F0FFBB000000002D0000002B000000200000002DE9F05FB6
:20878000894604464FF0000ADFF874B1FB44C0F820A02046E1688847002874D0252806D0B7
:2087A000D4E901219047206A401C2062F1E700265F462046E16888472028054607DB312DA7
:2087C00005D2781910F8200C08B10643F1E7B00701D526F00406C4F81CA00027C4F818A063
:2087E0002A2D09D028460BF09FFE38B304EB8708303DC8F8185019E059F8041B204604EB87
:2088000087029161E1688847012F054618D1E069002820DA26F020061DE0D8F8180000EBEA
:20882000800005EB40003038C8F818002046E168884705460BF078FE0028EED1012F0AD01D
:208840002E2D08D12046E16888477F1C0546022F46F02006C4DBA069002803DA404246F08E
:208860000106A061F00701D026F010066C2D0BD0682D09D04C2D39D06A2D35D0742D35D056
:208880007A2D33D016E038E0E1682F4620468847B842054609D16C2F26D04FF48060E16811
:2088A000064320468847054604E06C2F1AD04FF4807006430DB3A5F14100192802D8203503
:2088C00046F400664A462946204626604E46FFF73DFD80B101280BD0F61D26F0070000F1F3
:2088E000080956E74020E4E78020D8E70020D6E706F104094DE7284652E7206ABDE8F09F26
:20890000180101000FB400B58DB010A9099000910B904FF0FF300A9000200C90064878443C
:208920000690064878446A4607900F9909A800F06BFF0DB05DF814FB070F00001F0F000038
:208940002DE9FF4F1C4691464FF0FF3581B000218A468846D4E90167A16902986D1C8847F6
:20896000216A834688470028F6D1BBF1FF3F0CD0002F26F4C0661ADD700615D5BBF12B0F73
:208980000AD0BBF12D0F0FD104E04FF0FF3005B0BDE8F08F46F48066A16902986D1C8847EE
:2089A0007F1E8346002F02DDBBF1300F03D0B9F1000F2AD025E0A1696D1C02987F1E46F4C9
:2089C00000768847002F834605DDBBF1780F06D0BBF1580F03D0B9F1000F10D011E0B9F155
:2089E000000F02D0B9F1100F0BD1A1696D1C02987F1E26F4007688478346102000E00820C7
:208A000081464FEAE970009017E00A20F8E74346AAFB0928DDF800C07F1E03FB098046F41B
:208A2000007605F101050AFB0C0112EB0B0A029841EBEB78A16988478346002F06DD494634
:208A4000584600F051FC5FEA000BE0D5E16902988847B00502D46FF0010098E7F00718D135
:208A6000700610D55146700505D50023D1EB030163EB080200E042462068031D236000687F
:208A8000C0E9001205E02068011D21600068C0E900A828467BE72DE9FF5F1D464FF0FF3B36
:208AA00091464FF000085F46D5E90146A96901987F1C8847296A824688470028F6D1BAF115
:208AC000FF3F0CD0002E24F4C06419DD600614D5BAF12B0F09D0BAF12D0F0ED103E05846C8
:208AE00004B0BDE8F09F44F48064A96901987F1C8847761E8246002E02DDBAF1300F03D037
:208B0000B9F1000F26D032E0A969761E01987F1C44F400748847002E824605DDBAF1780F35
:208B200006D0BAF1580F03D0B9F1000F10D01EE0B9F1000F02D0B9F1100F18D1A969761E00
:208B400001987F1C24F4007488478246102002E0082000E00A20814609E0A96908FB0908A4
:208B6000761E01987F1C44F4007488478246002E05DD4946504600F0B7FB0028EDDAE969D2
:208B800001988847A00502D46FF00100A8E7E00725D1600613D5600502D5C8F1000000E003
:208BA000404629680A1D2A600968220501D5087015E0220701D5088011E008600FE02868B3
:208BC000011D29600068210502D580F8008006E0210702D5A0F8008001E0C0F800803846FD
:208BE0007EE72DE9FF5F4FF000089946144646469169D2E901A7DDF838B0019888470546C3
:208C000059EA0B0005D009E0A1690198761C88470546216A284688470028F5D1681C03D0EC
:208C20005FEACA7005D015E04FF0FF3004B0BDE8F09F2068011D2160D0F800800AE05FEAEF
:208C4000CA7001D108F8015BA169761C01987F1E88470546002F1ADD681C18D0B9F1000F75
:208C60000DD0E81705EBD060421120F01F0059F822102A1A012090400142E0D107E0BBF137
:208C8000000FDCD12846216A88470028D7D0E16901988847BBF1000F07D1002E05DD5FEAE3
:208CA000CA7002D1002188F80010A068B84203DDBBF1000F03D017B16FF00100B6E730464B
:208CC000B4E740EA0103024630B59B0710D14FF0013400E008C208C91D1B9D4315EAC41F32
:208CE000F8D013F0FF0102F8011B0DD01B0AF8E711F8013B002B02F8013B05D011F8013BF2
:208D0000002B02F8013BF3D130BD10B5431C02E010F8011B71B18107FAD14FF0013202C866
:208D20008C1A8C4314EAC211F9D0C01A0A0603D0C01E10BDC01A10BD0A0401D0801E10BDCB
:208D40000902FCD0401E10BD032A40F2308010F0030C00F0158011F8013BBCF1020F6244C5
:208D600098BF11F801CB00F8013B38BF11F8013BA2F1040298BF00F801CB38BF00F8013B78
:208D800011F0030300F02580083AC0F0088051F8043B083A51F804CBA0E80810F5E7121D30
:208DA0005CBF51F8043B40F8043BAFF30080D20724BF11F8013B11F801CB48BF11F8012B65
:208DC00024BF00F8013B00F801CB48BF00F8012B704710B5203AC0F00B80B1E81850203A21
:208DE000A0E81850B1E81850A0E81850BFF4F5AF5FEA027C24BFB1E81850A0E8185044BF9D
:208E000018C918C0BDE810405FEA827C24BF51F8043B40F8043B08BF7047D20728BF31F814
:208E2000023B48BF11F8012B28BF20F8023B48BF00F8012B704702F0FF0343EA032242EA29
:208E4000024200F002B84FF000020429C0F0128010F0030C00F01B80CCF1040CBCF1020F4F
:208E600018BF00F8012BA8BF20F8022BA1EB0C0100F00DB85FEAC17C24BF00F8012B00F878
:208E8000012B48BF00F8012B70474FF0000200B5134694469646203922BFA0E80C50A0E819
:208EA0000C50B1F12001BFF4F7AF090728BFA0E80C5048BF0CC05DF804EB890028BF40F8A0
:208EC000042B08BF704748BF20F8022B11F0804F18BF00F8012B70474FF0013C50F8042B24
:208EE00051F8043B9A4215D1A2EB0C03934313EACC130BD150F8042B51F8043B9A4209D149
:208F0000A2EB0C03934313EACC13E7D04FF00000704700BFD01A01BAB1FA81F101F01801CB
:208F200022FA01F0CB40C1F12001DBB2C0B2C01A2CFA01F3D11A914311EAC311E6D1704757
:208F400070477047704709684A0501D540B27047C905FCD500B2704709684A0501D5C0B29D
:208F60007047C905FCD580B270472DE9F0470D4699469246044600F124080168880604D524
:208F8000E06921F01001216000E00120A84201DD471B00E00027A1697A1902EB0900081AFE
:208FA000A0612078C00602D42046FFF75BFB002608E0D4E901211AF806009047206A401C08
:208FC000761C20624E45F4DB2078C0060AD52046FFF748FB06E0D4E9012130209047206AC9
:208FE000401C2062381EA7F10107F4DC07E0D4E9012118F805009047206A401C2062281E6D
:20900000A5F10105F3DC2046FFF742FB2078000602D50220BDE8F0870120FBE711680268B3
:20902000006A530501D508700AE0D30501D5088006E0130603D5C217C1E9000200E008605C
:209040000120704701694A1C02610878704700B58FB0CDE901310021059105497944CDE97A
:20906000031011466846FFF789FB0FB000BD0000E5FFFFFF0A6802F8010B0A60704710B5A2
:20908000436913B1AFF3008001E0FFF712FB012010BD127800F124010A7000224A70012253
:2090A000EDE711684FF0FF32E9E700002DE9FF5F15468A460446DFF8AC80F8440027D8E913
:2090C00000103E46CDE9001010E03AF816106A4602A801F0EFF9411C07D02178890603D587
:2090E000E269391891420DD80744761C2078800602D5E069B84205DDAE42E6DB3AF816002C
:209100000028E2D1A069C01BA0612046FFF7AAFAD8E90010CDE90010002017E03AF8181087
:209120006A4602A801F0C6F9B0F1FF3F81460BD000250DF1080B05E0D4E901211BF8050092
:2091400090476D1C4D45F7D308F10100B0428046E4DB206A384420622046FFF799FABDE8C6
:20916000FF9F0000FEF700002DE9F0418046D21D22F007020025D2E90002F52915A614D0A6
:20918000011E72F1000106DA0023D0EB030063EB020211A608E0D8F800108B0701D50FA69D
:2091A00002E0490701D50EA601251146002408F1240704E000F060FB30323A55641C50EA54
:2091C0000102F7D12B46324621464046BDE8F041FFF7CBBE000000002D0000002B00000041
:2091E0002000000030B4002100F1240408E002F00705D208303542EA4372DB086554491C2A
:2092000052EA0305F3D10468002310A2250707D5A40600D421B1C46901230DA2641EC46106
:2092200030BCFFF7A2BE10B5044621461068FFF793FE02462046BDE810400023D2E7D21D09
:2092400022F00701D1E90023CCE700000000000030000000F0B40D460188090502D5214C62
:209260007C4402E01F4C7C440E34002100F1240608E002F00F071209E75D42EA03721B098F
:209280007754491C52EA0307F3D102780023120704D5702D06D009B1022311342246F0BC5A
:2092A000FFF763BE01231034F8E770B504460D4621461068FFF750FE024629462046BDE8A9
:2092C00070400023C6E7D21D22F00703D3E90023C0E70368126843F0200303600823C36190
:2092E0000023B7E760F600003A2800D2303820F02002412A01D3A2F13700884201D34FF0A3
:20930000FF3070472DE9FF4F06468BB00878FF2806D0491C2D2805D000244FF0000908E01C
:2093200000200CE00124F8E709EB8903491C00EB43090878FF28F7D114B1C9F1000081464C
:20934000107800252C46AA4629462D2801D02B2804D1521C2D2813D0002082468B4610785A
:20936000FF280FD04FF0000C0A21521CA5FB017804FB018105FB0C11C5194BEB0104EEE75E
:209380000120EAE7002108464FF00000BAF1000F02D000EB80004008C0F38157012F01DD55
:2093A0004FF0FF370E9955EA040009EB01080BD04FF0020918F5FA7F16DA4FEACA70002F14
:2093C000706008DD012007E04FEACA70C6E900B00FB0BDE8F08F0020306000F049FAC0F880
:2093E00000901821084616E0B8F5FA7F18DD002F02DAF748784401E0F6487844D0E900109B
:20940000C6E9001040EACA70706000F031FAC0F80090142108460FB0BDE8F04F0EF081BF92
:20942000002108464FF00000B8F10001099002DAC7F1000200E03A4601DAC8F1000106A802
:2094400000F0C6FF06AB93E8070003AB83E8070044F23E005BEA04010090584604D144F20D
:209460001E012C465D460091210C0904014306D10099240444EA15442D041039009104F08B
:209480007F41014306D10099240244EA15642D020839009104F07041014306D1009924010C
:2094A00044EA15742D01091F009104F04041014306D10099A40044EA9574AD00891E009125
:2094C00004F00041084304D100986D196441401E00904FF001033A466846B8F1000FCDE9A7
:2094E000014503A902DD01F0CEFD01E001F0A1FDBAF1000F04460D4601D084F0004400216E
:2095000008464FF00000099940F2FF77484010F00C0F07D124F00040284303D0C4F30A5056
:20952000B84212D100F0A4F9C0F80090C4F30A50B8420AD1A8487844D0E90010C6E900105F
:2095400004F000410843706042E7C6E900543FE72DE9FF4F1F464FF0000A4FF0FF38454656
:2095600091B0D7E90146CDF83CA000F07DF9C0680168405C1090B96912986D1C8847396A08
:20958000814688470028F6D1B9F1FF3F0AD0002E24F4D06411DDB9F12B0F08D0B9F12D0F7A
:2095A0000BD102E0404615B013E744F48064B96912986D1C8847761E8146600504A901D525
:2095C0002D2000E02B20002E01F1010B0DF130088DF810003FDDB9F1690F08D0B9F1490F04
:2095E00005D0B9F16E0F02D0B9F14E0F1CD13B4601A8009580E85002DDE912126FF00200E5
:209600000EF0FAFEC11CCED10EE0B96912986D1C884781461398761E44F4007405600F9808
:20962000401C002E0F9016DDB9F1300FEDD0B9F1780F02D0B9F1580F0DD10F9801280AD1CB
:209640003B46CDE90054DDE91212001F02960EF0D1FEC11CA7D1109989453ED144F080047E
:2096600006E01399681CAAF1010A44F400740860B9696D1C1298761E884730288146F0D083
:209680002BE01099894505D1200603D4761E44F0800418E048460AF047FF08B3761E0DF116
:2096A00023018B4544F4007408D2A9F130000BF8010B200607D5AAF1010003E0200602D4DA
:2096C0000AF101008246A00502D51399681C0860B96912986D1C88478146002ED1DC53E0B9
:2096E000002E51DDB9F1650F02D0B9F1450F4BD1A00549D5B9696D1C1298761E24F440748C
:209700008847002E81460CDD2B2804D0B9F12D0F07D144F48074B96912986D1C8847761ED3
:209720008146E00501D52D2100E02B2108F8011BCDF8008021E0761E0DF13901884544F4FA
:2097400000740CD2A9F1300010F0FF0088F8000002D10099884509D908F1010806E0E00586
:2097600001D51E4801E042F20F708246B96912986D1C8847814613980560002E04DD4846B9
:209780000AF0D2FE0028D6D1F96912988847FF2053468BF8000088F8000000200A900B9045
:2097A00004AA0CA90AA8FFF7ADFDA00502D46FF00100F8E614F0240F12D0E0071CD13868AE
:2097C000DDE90A12031D3B600068C0E9001213E050F6000042F6000006F50000F1D8FFFF96
:2097E0000AA968460AF038FEE00705D13868009A011D3960006802602846D4E60268114479
:209800001378016018467047D16005497944516104497944116200211161114600F01EBC28
:20982000EDFFFFFFED000000426842B1016811F8013B23B1521EC0E90012184670470121D0
:20984000C160881E704742685AB1C368016843B983688B4205D0491E521CC0E90012002008
:2098600070474FF0FF30704700487047549F002400487047349F002430B5B0F10A024FEA35
:20988000900E71F100034EEA817EB0EB0E0061EB91014FEA101E4EEA017E10EB0E0041EBB4
:2098A00011114FEA102E4EEA016E10EB0E0041EB11214FEA104E4EEA014E10EB0E0041EBAE
:2098C0001141401841F100014FEAD00040EA41704FEAD10110EB80054FEA810444EA90744C
:2098E00044EB01046D1944EB0404521BA3414FF0000348BF0A3200D530BD401C41F1000150
:2099000030BD10B5044600F01FFE0068005D00F0010010BD70472DE9FF4F0C461E464FF0AB
:20992000FF378BB0D2E90001DDF860800A908A46C1F30A5505B93D46002108464FF00000D9
:20994000BAF1000F00F4400005DA00EB80004FF4400101EA50004FEA9059B9F1010F00DD57
:20996000B9460A9850EA4A000ED044F61050A5F2FF3545432F14B8F1000F1ED07542291E10
:209980001EDDC9F100021CE0B8F1010F4FF0000001D0302103E0F24305E02154401CB0423A
:2099A000FBDB30460022002121540B99C1F80880C1E900200FB0BDE8F08FBD1B6D1CDEE7EB
:2099C0004A4600DA694206A800F002FD06AB93E8070003AB83E8070050460A9901F055F80B
:2099E0008DE80700A0F500501F3800900398002D0ADD42F21F014A460844002303A90390DE
:209A0000684601F001FB09E0A0F500504A461F38002303A90390684601F020FB8DE807005E
:209A20000004000C03D04FF0FF30410800E01046B8F1000F03D00022009215461EE0751E2B
:209A400005D4FFF719FF303262556D1EF9D5B3460122084302D000227F1C04E020783028E3
:209A600001D100227F1E002A099784D01DE0112D07DAFFF701FF303262556D1C50EA010246
:209A8000F5D1084302D00098C8B10EE00021681E05E0235C625C63542254401E491C814268
:209AA000F7DBAB46A81B401E0990002004F80B000B98099AC0F80880C0E9002B7AE7112610
:209AC0004FF0000857E72DE9F04F88460446D21D22F0070191B0D1E90001CDE90A010AF0D4
:209AE00009FC02460B98C00F01D02D2007E02068810701D52B2002E0202101EAC000032A76
:209B0000099001D0072A05DB03464146204600F02FFD0BE12078800601D5E06900E0062049
:209B2000B8F1650F814606D0B8F1660F18D0B8F1670F70D131E00020B9F1110F009001DB9E
:209B4000112301E009F101030AAA01A90CA8FFF7E2FEDDE90C70002609F10105834647E0B2
:209B600001204B4600904FF000470AAA01A90CA8FFF7D1FEDDE90DB00C995D46002610B98C
:209B800009F101000D18B9EB050003D4C0F1FF3609F10105A5EB09002BE0B9F1010F01DA06
:209BA0004FF001090020B9F1110F0090484601DD112300E003460AAA01A90CA8FFF7ABFE68
:209BC000DDE90C704D4600268346207800070AD4AB4500DA5D4601A8012D04DD411911F8BC
:209BE000011C302907D04F4502DA17F1040F04DA012082460FE06D1EEEE7002F02DCED1B62
:209C00003E4403E0781CA84200DD7D1CB81B00F1010A4FF000472078000703D4AA4501DB55
:209C20004FF0FF3A0021B7F1004F0DF143088DF8431024D002202B23002F01DA7F422D23F4
:209C40000A21021EA0F1010000DC5FB197FBF1FC97FBF1F201FB1C7C17460CF1300C08F81D
:209C600001CDEEE7A8F1010003702188090501D5452100E06521A0F1010800F8011C09988B
:209C80000FA9A1EB0807FF1D00B10120411901EBEA70A1693844081A401EA0612078C0067E
:209CA00002D42046FEF7DEFC099828B1D4E901219047206A401C20622078C00622D5204646
:209CC000FEF7D0FC1EE0002E04DBB34502DD01A8805D00E03020D4E901219047206A401C8F
:209CE0002062761CAAF101005FEA000A0AD1FFF7BBFDC0680168405CD4E901219047206A6B
:209D0000401C2062281EA5F10105DCDC07E0D4E9012118F8010B9047206A401C2062381E54
:209D2000A7F10107F3DC2046FEF7B2FC032011B041E600002DE9F04F04460D46D21D22F0AD
:209D4000070089B0D0E90097484639460AF0D2FA0246F80F01D02D2307E02068810701D563
:209D60002B2302E0202101EAC0038DF820300BB1012000E00020032A824601D0072A04DB3C
:209D80002946204600F0F4FB3FE12078800601D40D2500E0E569C7F30A560D2D49DA002104
:209DA0004FEA175B08464FF00000002F00F4400007DA00EB80004FF4400100EBD07001EA22
:209DC00060008115012901DD4FF0FF3100224FEA850CBCF1180F06D31346ACF118004FF030
:209DE0008052C24003E04FF4801323FA0CF30CF10C0CBCF1200F04D3ACF1200C09FA0CF02A
:209E000001E007FA0CF000294FF0004801DD18B90FE00ED140450CD319EB02095F4121B94A
:209E2000404502D19F4329EA0209BBEB175F00D0761C2088000502D57B48784402E07A48A5
:209E40007844193808AA302302F80A30037C0AF10101002E0AF1020A53546A4602DC4FF097
:209E6000300101E04FF031014FF001088DF8001002D0A6F2FF3603E059EA470100D06B4EEC
:209E8000002D02DC2178090704D54FF002082E218DF80110C44600210BE0C7F303433F01B1
:209EA000C35C491C6D1E02F80830052908F1010801DA002DF1DC00210CE000EB1973491C73
:209EC0001B786D1E082902F808304FEA091908F1010801DA002DF0DC21688B0602D516E0E9
:209EE000A8F10108E04505DD02EB080313F8013C302BF5D0B8F1000F09DD02EB080313F8B8
:209F0000013C2E2B03D1090701D4A8F10108002D05DD3E2102F808106D1E08F10108407C87
:209F2000002E02F8080008F1010804DA2D20764202F8080002E02B2002F808000A214FF46D
:209F40007A70864208F101080BDB96FBF0F3303302F8083096FBF0F308F1010800FB136674
:209F600001E0642E0CDB642096FBF0F3303302F8083096FBF0F308F1010800FB136601E02F
:209F80000A2E06DB96FBF1F0303002F8080008F1010896FBF1F001FB1060303002F8080092
:209FA000A16908F1010808EB050202EB0A00081AA0612078C00602D42046FEF753FB216A19
:209FC00008AE01EB0A00206204E0D4E9012116F8010B9047BAF1010AF7D22078C00602D5EB
:209FE0002046FEF73FFB6E4609E016F8010B3E280FD0D4E901219047206A401C2062B8F109
:20A000000108F2D22046FEF743FB09B00320BDE8F08F206A2844206203E0D4E90121302050
:20A0200090476D1EEBD3F8E7C1EA000002FCFFFF10B5436913B1AFF3008001E0FFF736F81E
:20A04000012010BD128800F1240182840022C2840122EDE711684FF0FF32E9E72DE9F34FEC
:20A060004FF0000A0C4656468DB001200C9001F10C000B9062690B9801219047051E2DD08F
:20A08000252D2CD0216A8847C0B162690B9801219047216A88470028F7D16269411E0B9829
:20A0A000904700E0761CA1690D988847216A88470028F7D1E1690D988847DBE7A1690D9860
:20A0C0008847A842074601D1761CD3E7E1690D9888477F1C02D1BAF1000F6FD06CE162691F
:20A0E0000B9800273D46394690472A2804D162690B98012190470125DFF8D08262690B9872
:20A1000001219047A0F130010A290AD24745E5DC07EB870100EB4107303FDFD445F010050F
:20A12000ECE7E90601D46FF000476C280AD04C2814D0682815D06A280DD074281CD07A280E
:20A140001AD01DE062690B98012190476C2802D045F0040514E045F002050DE045F0200596
:20A160000AE062690B9801219047682802D045F0080505E045F4006562690B980121904700
:20A18000C4E9015765283DD019DC58287AD00CDC452837D004DC252826D041289ED131E0F9
:20A1A00046282FD0472899D12CE05B2877D0612828D063287CD0642823D15AE0F7E06F2803
:20A1C00048D008DC66281DD067281BD0692821D06E2816D127E0702845D0732868D075286B
:20A1E00047D078280DD14DE0A1690D988847252805463FF469AFE1690D9888476D1C3FF4C2
:20A200006AAFD9E00D9923466A466FF001000EF0EFF8C6E045F0400023464FF000026060E3
:20A22000A80736D43EE0E8077FF447AF2068011D21600068290501D506701BE7290701D5DE
:20A24000068017E7A90703D5F117C0E9006111E706600FE745F0400023464FF008026060A5
:20A26000A80716D41EE040F60E0125EA0100606016E045F0400023464FF00A026060A807A4
:20A2800007D40FE045F040006060A80708D5234610220D996FF00100FEF752FB81E007E008
:20A2A000102223460D996FF00100FEF7F4FB78E04FF0000963284F46C8464B46CB4602D0D7
:20A2C0005B2807D039E02079C00601D40120A060012732E06269D4F80CB00B98012190478D
:20A2E0005E2807D14FF0010949466269D4F80CB00B989047216939B900210A4603AB43F885
:20A300002120491C0829FADBD8B3216949B308F1010862690B98012190475D28F4D1B9F123
:20A32000000F09D0002003A951F82020D24341F82020401C0828F7DB03AB206900282079FC
:20A340004FEA40701ED05B462246CDF80080CDE901970D9900286FF0010020DAAFF3008040
:20A360001FE0C11703AA00EBD1614B1121F01F0102EB8302411A13680120884003431360C5
:20A38000C7E719E00D99224600286FF00100009702DAAFF3008004E0FEF723FC01E0AFF370
:20A3A000008000280ADA401C06D10C9820B14FF0FF300FB0BDE8F08F5046FAE7E90701D1DF
:20A3C0000AF1010A064400200C9053E6CCCCCC0C2DE9F047814616468AB0354878440DC810
:20A3E0008DE80D0032487844801C03AC0DC884E80D0041F69B300844372190FBF1F290FB6D
:20A40000F1F5A5F1800501FB12041B3C02D56442012000E00020DFF898A080460027FA44FA
:20A42000AAF1BE0A0EE0E0070AD03246684607EB470101230AEB810100F010FE8DE8070095
:20A4400064107F1C002CEED1194F7F44AE3F19E0E80715D007EB04100DF1180A90E80E0071
:20A460008AE80E00C068F04201D1981908903246012306A903A800F0F1FD03AB83E80700F3
:20A480006D10641C002DE3D14FF0010332466946B8F1000F03A802D000F0B6FD01E000F0CB
:20A4A000DDFDC9E90001C9F808200AB0BDE8F087B0E5000070B516460C46054600F044F871
:20A4C000036893F80101012806D0FF2C0FD8185D68B101202C7070BDD3F807013246214649
:20A4E00003F2071303442846BDE8704018474FF0FF3070BD00487047349F00247546FFF7A2
:20A50000F9FFAE4605006946534620F00700854618B020B5FDF7F4FFBDE820404FF0000652
:20A520004FF000074FF000084FF0000B21F00701AC46ACE8C009ACE8C009ACE8C009ACE88E
:20A54000C0098D467047000010B5FFF78DF9001D10BD00BF89DD000010B5FFF789F90068B3
:20A5600010BD10B50446FFF783F9046010BD00002DE9F0411F46044603260168072A01F4AE
:20A58000006004DB08B116A505E016A503E008B115A500E015A521F010002060A069C01EF0
:20A5A000A0610FB1401EA0612046FEF75BF84FB1D4E9012138469047206A401C2062C01C55
:20A5C000206206E0206AFAE7D4E9012115F8010B9047761EF8D22046FEF75AF8BDE8F081B8
:20A5E0004E414E006E616E00494E4600696E66002DE9FF4F1F464FF03C0987B04FF0004222
:20A60000DDE9141001F10108DDF858A002EA40500390002005908346054604460490B969B0
:20A62000461E08988847AAF1010A0290BAF1000F3BDD02982E2815D01021FEF755FE0028C7
:20A640002EDB4FF0010B0599014317D0B9F1000F0BDB4A46C11700F0FEF905430C43A9F1BE
:20A66000040905E0012004900BE008B145F0010501200590049820B9361D02E0049800B1A7
:20A68000361FB969089808F101088847BBF1000FAAF1010A0290C9D00999C1F80080C5E7BF
:20A6A0000298702808D0502806D0F96908988847BBF1000F14D04FE0002002900120BBF124
:20A6C000000F049009D0B969089808F101088847AAF10109B9F1000F07DCF9690898884759
:20A6E0006FF001000BB0BDE8F08F2B2804D02D280CD14FF0FF300490B969089808F10108FC
:20A700008847A9F10109B9F1000FE6DD411CE4D00A21FEF7E9FD0028DFDB029908F10108B4
:20A7200001EB810100EB41000290B969089888470A21FEF7D9FD099AA9F10109B9F1000F66
:20A74000C2F8008001DD0028E7DAF969089888470499029800FB016655EA040004D004F083
:20A760004041090002D006E0039898E0A40044EA9574AD00B61E04F00041080002D16D1992
:20A780006441761E159810F0240F03D04FF00B095C4803E04FF028096FF07D008246564544
:20A7A00007DAAAEB06018944B9F1410F01DD4FF0410901200021A9F1010200F04CF9024692
:20A7C00028400B462140084301D0012100E00021501E029143F1FF3128402140084301D0D6
:20A7E000012000E000200299834651EA0B014FD0002108464FF00000039900F4400039B106
:20A8000000EB80004FF4400100EBD07001EA60008015012802DD4FF0FF3000E013D0401CA9
:20A8200036D0029860B3BBF1000F0CD14A460120002100F010F928402140084301D00120FC
:20A8400000E00020E0B101204A46002100F003F9034640190A4661412D1A8C4111D3B9F173
:20A86000400F09DD159810F0240F02D0AAF1340603E0AAF1170600E0761C00254FF0004467
:20A8800006E05B1E42F1FF3220EA030521EA0204CAF10100B04206DA1B4903980843019069
:20A8A000002000900EE0039AC4F3D321E80A0A43164940EA44500A433146CDE9000268462C
:20A8C00009F0D6FD159810F0240F0BD01598C00715D13868DDE90012031D3B600068C0E953
:20A8E00000120CE002A8694609F0B6FD1598C00705D13868029A011D3960006802604046C8
:20A90000F0E6000002FCFFFF0000F07F0000F03F2DE9FF4F92461D4685B04FF00041DDE9AD
:20A92000124BDDE914727F1E01EA4B50414940F0FF4940EA0108002122F0200049280491BD
:20A9400002D04E2828D04CE03BA0012607C88DE80700A9690698641C88477F1E014606D481
:20A960001DF8060018B121F0200181420BD0E96906988847032E34D0082E32D06FF0010097
:20A9800009B0BDE8F08F761C032E01D0082EE0D1601CCAF80000DCE7A9690698641C88475F
:20A9A0007F1E2AD420F02000412826D1A9690698641C88477F1E20D420F020004E281CD149
:20A9C000A9690698641C88477F1E48F4002849F48009CAF8004001D4282806D0E9690698C4
:20A9E00088475FEACB7012D022E0A9690698641C88477F1E01D4002803DAE96906988847EB
:20AA0000BCE72928F1D1641CCAF80040E9E71BF0240F07D028680499031D2B600068C0E930
:20AA2000001805E02868021D2A600068C0F800902046A5E70000F07F494E46494E49545965
:20AA40000000000010B50446AFF300802046BDE81040FDF7E0BCB2F120030AD5C2F120035F
:20AA600001FA02F120FA03F300FA02F041EA0301704700FA03F14FF00000704701491820A0
:20AA8000ABBEFEE72600020070475FEA400C08BF91F0000F4FEA8C234FEAC12243EA5151CA
:20AAA0004FEA1C5018BF00F5F0404FEA300018BF41F000415FEA6C5C00F02980BCF1FF3FAE
:20AAC00008BF40F080407047130C06BF12044FF0100C4FF0000C130E04BF12020CF1080C5F
:20AAE000130F04BF12010CF1040C930F04BF92000CF1020CD30F04BF52000CF1010C1146F7
:20AB00004FF00002A0F11F00A0EB0C00704711F0004F08BF704731F000413FF4D5AF0B0CF8
:20AB200006BF09044FF0100C4FF0000C0B0E04BF09020CF1080C0B0F04BF09010CF1040CB1
