:020000040802F0
:1000000098A50024E50402085D9102089D8B020872
:100010003D910208F532020861C2020800000000AA
:10002000000000000000000000000000250402089D
:10003000793802080000000081040208399B020898
:10004000FF040208FF040208FF040208FF0402087C
:10005000FF040208FF040208FF040208FF0402086C
:10006000FF040208FF040208FF0402082534020806
:10007000FF040208FF040208FF040208FF0402084C
:10008000FF040208FF040208FF040208C538020842
:10009000FF040208D1380208FF040208FF04020826
:1000A000FF040208FF040208FF040208FF0402081C
:1000B000E59C0208FF040208FF040208FF0402088E
:1000C000FF040208FF040208FF040208FF040208FC
:1000D000FF040208B5A50208FF040208FF04020895
:1000E000FF040208FF04020800000000FF040208E9
:1000F000FF040208FF040208FF040208FF040208CC
:10010000FF040208FF040208FF040208FF040208BB
:10011000FF040208FF040208FF040208FF040208AB
:10012000FF040208FF040208FF040208FF0402089B
:10013000FF040208FF040208FF040208FF0402088B
:1001400000000000000000000000000000000000AF
:10015000FF040208FF040208FF040208FF0402086B
:10016000FF040208FF040208FF040208FF0402085B
:10017000FF040208FF040208FF040208FF0402084B
:10018000FF040208FF040208FF040208FF0402083B
:10019000FF040208FF040208FF040208FF0402082B
:1001A000FF040208FF040208FF040208FF0402081B
:1001B000FF040208FF040208FF040208FF0402080B
:1001C000FF040208FF040208FF040208FF040208FB
:1001D000FF04020809940208FF040208FF04020851
:1001E000FF040208FF040208FF040208FF040208DB
:1001F000FF040208FF040208FF040208FF040208CB
:10020000FF040208FF040208FF040208FF040208BA
:10021000FF040208FF040208FF040208FF040208AA
:10022000FF040208FF040208FF04020800000000A7
:10023000FF040208FF04020800000000FF04020897
:10024000FF040208FF040208FF040208FF0402087A
:10025000FF040208FF040208FF040208FF0402086A
:10026000FF040208FF040208FF040208FF0402085A
:10027000FF040208FF040208FF0402080000000057
:10028000FF040208FF040208FF0402080000000047
:1002900000000000FF04020800F002F800F0B2F8CD
:1002A0000AA090E8000C82448344AAF10107DA45D1
:1002B00001D100F0A7F8AFF2090EBAE80F0013F071
:1002C000010F18BFFB1A43F0010318475407010040
:1002D000740701000A444FF0000C10F8013B13F0C2
:1002E000070408BF10F8014B1D1108BF10F8015B8F
:1002F000641E05D010F8016B641E01F8016BF9D182
:1003000013F0080F1EBF10F8014BAD1C0C1B09D1D8
:100310006D1E58BF01F801CBFAD505E014F8016B4A
:1003200001F8016B6D1EF9D59142D6D370470000DC
:100330000023002400250026103A28BF78C1FBD8EE
:10034000520728BF30C148BF0B6070476E2900F0CC
:100350006586702900F0BD8766290FF0E58765295D
:100360000FF0E28767290FF0DF8761290FF0DE8742
:1003700003681B0A28BF41F08001692900F0C2818F
:10038000642900F0BF81752900F0BC816F2900F05D
:100390004A87782900F08987E92900F0E586E42971
:1003A00000F0E286F52900F0DF86EF2900F04787AC
:1003B000F82900F088870368DB0928BF41F0800135
:1003C000632900F06686732900F06B86E32901F04B
:1003D0003986F32901F03E86002070471FB50FF0E3
:1003E0009BFF01F041FA0400002000210FF076FF8E
:1003F000401C6060002000210FF05AFFE0601FBD2C
:1004000010B510BD02F07AF81146FFF7E7FF0CF0C7
:10041000EDFF02F017FB03B4FFF7F2FF03BC02F09D
:100420002DFB00002C4B19680868B0E8F04F80F3F2
:100430000988BFF36F8F4FF0000080F31188704779
:100440000000000008480068006880F308884FF04A
:10045000000080F3148862B661B6BFF34F8FBFF31C
:100460006F8F00DF00BF00BF08ED00E0DFF80C0079
:10047000016841F470010160704700BF88ED00E041
:10048000EFF30980BFF36F8F134B1A681EF0100F44
:1004900008BF20ED108A20E9F04F106009B44FF03A
:1004A000500080F31188BFF34F8FBFF36F8F0EF0B2
:1004B0003FFC4FF0000080F3118809BC1968086800
:1004C000B0E8F04F1EF0100F08BFB0EC108A80F3B8
:1004D0000988BFF36F8F7047B4000024EFF30580E5
:1004E000704700000948804709480047FEE7FEE7DB
:1004F000FEE7FEE7FEE7FEE7FEE7FEE7FEE7FEE7D4
:1005000004480549054A064B70470000FD9B020858
:1005100099020208989F002498A5002498A100241D
:1005200098A1002453EA020C00F069802DE9F04BF9
:100530004FF00006002B1FBFB3FA83F503FA05F452
:1005400024FA05F65E4012BF1643B2FA82F502FAAB
:1005500005F4C5F120051EBF22FA05FC44EA0C048F
:10056000203556EA044C4FEA144418BF641C4FF07F
:1005700000084FF00009904271EB030C39D30029B9
:1005800019BFB1FA81F701FA07F6B0FA80F700FA5D
:1005900007F6C7F120071EBF20FA07FC46EA0C0643
:1005A0002037B6FBF4FCA7EB0507103F07F01F0B45
:1005B000CBF120060CFA0BFB2CFA06F644BFB3462F
:1005C0000026202FA4BF5E464FF0000B5BEA060C0E
:1005D00008BF4FF0010B19EB0B09ABFB027C48EB9A
:1005E0000608C01B06FB02CC0BFB03CC71EB0C0115
:1005F000C1E70B46024641464846BDE8F08B13B5BD
:100600004FF000004FF00001AFF30080BDE81C4048
:10061000704700001CB50C46064B7B4469460090B1
:10062000204600F014FD04460020694600F022FD3B
:1006300020461CBD570A00000FB41CB5084B06AA83
:100640007B4469460090059800F001FD04460020B7
:10065000694600F00FFD20461CBC5DF814FB00004D
:10066000310A000070B5044685690068C10601D5ED
:10067000302600E02026C00707D070BDD4E9012154
:1006800030469047206A401C20626D1EF6D570BD32
:1006900070B5044685690078C00707D170BDD4E9FC
:1006A000012120209047206A401C20626D1EF6D553
:1006B00070BD70B50C460546012A05D02878800625
:1006C00000D5EA69002302E0012305E05B1C9342A8
:1006D00002D2E05C0028F9D1A869E618C01AA86126
:1006E000286A184428622846FFF7BCFF04E0D5E9D1
:1006F000012114F8010B9047B442F8D32846FFF7C4
:10070000C7FF70BD2DE9F041064600241068752929
:10071000314616A510D000F016FC002802DA40423F
:1007200013A507E031688A0701D512A502E0490741
:1007300004D511A5012401E000F00EFC00210A22DD
:1007400006F1240709E0B0FBF2FCB0FBF2F302FB78
:100750001C00303078541846491C0028F3D1234639
:100760002A463046BDE8F04100F0FFBB0000000023
:100770002D0000002B000000200000002DE9F05F9C
:10078000894604464FF0000ADFF874B1FB44C0F814
:1007900020A02046E1688847002874D0252806D08C
:1007A000D4E901219047206A401C2062F1E700262D
:1007B0005F462046E16888472028054607DB312D43
:1007C00005D2781910F8200C08B10643F1E7B007FC
:1007D00001D526F00406C4F81CA00027C4F818A010
:1007E0002A2D09D028460BF09FFE38B304EB87086A
:1007F000303DC8F8185019E059F8041B204604EBA6
:1008000087029161E1688847012F054618D1E069A8
:10081000002820DA26F020061DE0D8F8180000EBAA
:10082000800005EB40003038C8F818002046E16829
:10083000884705460BF078FE0028EED1012F0AD03C
:100840002E2D08D12046E16888477F1C0546022FDF
:1008500046F02006C4DBA069002803DA404246F0D7
:100860000106A061F00701D026F010066C2D0BD018
:10087000682D09D04C2D39D06A2D35D0742D35D046
:100880007A2D33D016E038E0E1682F4620468847BD
:10089000B842054609D16C2F26D04FF48060E1683C
:1008A000064320468847054604E06C2F1AD04FF4D3
:1008B000807006430DB3A5F14100192802D82035F8
:1008C00046F400664A462946204626604E46FFF713
:1008D0003DFD80B101280BD0F61D26F0070000F188
:1008E000080956E74020E4E78020D8E70020D6E753
:1008F00006F104094DE7284652E7206ABDE8F09F5B
:10090000180101000FB400B58DB010A90990009135
:100910000B904FF0FF300A9000200C90064878446E
:100920000690064878446A4607900F9909A800F097
:100930006BFF0DB05DF814FB070F00001F0F0000E8
:100940002DE9FF4F1C4691464FF0FF3581B0002145
:100950008A468846D4E90167A16902986D1C8847D8
:10096000216A834688470028F6D1BBF1FF3F0CD0AF
:10097000002F26F4C0661ADD700615D5BBF12B0FCB
:100980000AD0BBF12D0F0FD104E04FF0FF3005B0BE
:10099000BDE8F08F46F48066A16902986D1C884717
:1009A0007F1E8346002F02DDBBF1300F03D0B9F16B
:1009B000000F2AD025E0A1696D1C02987F1E46F425
:1009C00000768847002F834605DDBBF1780F06D0FF
:1009D000BBF1580F03D0B9F1000F10D011E0B9F1FD
:1009E000000F02D0B9F1100F0BD1A1696D1C029854
:1009F0007F1E26F4007688478346102000E00820FA
:100A000081464FEAE970009017E00A20F8E7434674
:100A1000AAFB0928DDF800C07F1E03FB098046F40D
:100A2000007605F101050AFB0C0112EB0B0A029896
:100A300041EBEB78A16988478346002F06DD4946E4
:100A4000584600F051FC5FEA000BE0D5E1690298DE
:100A50008847B00502D46FF0010098E7F00718D17D
:100A6000700610D55146700505D50023D1EB030162
:100A700063EB080200E042462068031D2360006823
:100A8000C0E9001205E02068011D21600068C0E98E
:100A900000A828467BE72DE9FF5F1D464FF0FF3B8E
:100AA00091464FF000085F46D5E90146A9690198D3
:100AB0007F1C8847296A824688470028F6D1BAF108
:100AC000FF3F0CD0002E24F4C06419DD600614D55D
:100AD000BAF12B0F09D0BAF12D0F0ED103E0584611
:100AE00004B0BDE8F09F44F48064A96901987F1CBC
:100AF0008847761E8246002E02DDBAF1300F03D001
:100B0000B9F1000F26D032E0A969761E01987F1C4A
:100B100044F400748847002E824605DDBAF1780F50
:100B200006D0BAF1580F03D0B9F1000F10D01EE073
:100B3000B9F1000F02D0B9F1100F18D1A969761ED2
:100B400001987F1C24F4007488478246102002E03C
:100B5000082000E00A20814609E0A96908FB09088D
:100B6000761E01987F1C44F4007488478246002E4C
:100B700005DD4946504600F0B7FB0028EDDAE9698B
:100B800001988847A00502D46FF00100A8E7E007AC
:100B900025D1600613D5600502D5C8F1000000E03C
:100BA000404629680A1D2A600968220501D5087097
:100BB00015E0220701D5088011E008600FE02868E1
:100BC000011D29600068210502D580F8008006E03B
:100BD000210702D5A0F8008001E0C0F80080384667
:100BE0007EE72DE9FF5F4FF0000899461446464620
:100BF0009169D2E901A7DDF838B001988847054628
:100C000059EA0B0005D009E0A1690198761C8847D4
:100C10000546216A284688470028F5D1681C03D07C
:100C20005FEACA7005D015E04FF0FF3004B0BDE8B0
:100C3000F09F2068011D2160D0F800800AE05FEA83
:100C4000CA7001D108F8015BA169761C01987F1E6A
:100C500088470546002F1ADD681C18D0B9F1000F2F
:100C60000DD0E81705EBD060421120F01F0059F8B5
:100C700022102A1A012090400142E0D107E0BBF186
:100C8000000FDCD12846216A88470028D7D0E169C7
:100C900001988847BBF1000F07D1002E05DD5FEA00
:100CA000CA7002D1002188F80010A068B84203DDA4
:100CB000BBF1000F03D017B16FF00100B6E730466B
:100CC000B4E740EA0103024630B59B0710D14FF06C
:100CD000013400E008C208C91D1B9D4315EAC41F6A
:100CE000F8D013F0FF0102F8011B0DD01B0AF8E742
:100CF00011F8013B002B02F8013B05D011F8013B34
:100D0000002B02F8013BF3D130BD10B5431C02E0CB
:100D100010F8011B71B18107FAD14FF0013202C8FE
:100D20008C1A8C4314EAC211F9D0C01A0A0603D0F7
:100D3000C01E10BDC01A10BD0A0401D0801E10BD17
:100D40000902FCD0401E10BD032A40F2308010F092
:100D5000030C00F0158011F8013BBCF1020F624456
:100D600098BF11F801CB00F8013B38BF11F8013BE7
:100D7000A2F1040298BF00F801CB38BF00F8013B94
:100D800011F0030300F02580083AC0F0088051F804
:100D9000043B083A51F804CBA0E80810F5E7121D0F
:100DA0005CBF51F8043B40F8043BAFF30080D2072E
:100DB00024BF11F8013B11F801CB48BF11F8012BFA
:100DC00024BF00F8013B00F801CB48BF00F8012B1D
:100DD000704710B5203AC0F00B80B1E81850203AA7
:100DE000A0E81850B1E81850A0E81850BFF4F5AFCB
:100DF0005FEA027C24BFB1E81850A0E8185044BF55
:100E000018C918C0BDE810405FEA827C24BF51F8C1
:100E1000043B40F8043B08BF7047D20728BF31F8B5
:100E2000023B48BF11F8012B28BF20F8023B48BF06
:100E300000F8012B704702F0FF0343EA032242EA65
:100E4000024200F002B84FF000020429C0F0128004
:100E500010F0030C00F01B80CCF1040CBCF1020F6D
:100E600018BF00F8012BA8BF20F8022BA1EB0C0142
:100E700000F00DB85FEAC17C24BF00F8012B00F838
:100E8000012B48BF00F8012B70474FF0000200B55E
:100E9000134694469646203922BFA0E80C50A0E89D
:100EA0000C50B1F12001BFF4F7AF090728BFA0E84B
:100EB0000C5048BF0CC05DF804EB890028BF40F817
:100EC000042B08BF704748BF20F8022B11F0804F59
:100ED00018BF00F8012B70474FF0013C50F8042B6D
:100EE00051F8043B9A4215D1A2EB0C03934313EA49
:100EF000CC130BD150F8042B51F8043B9A4209D182
:100F0000A2EB0C03934313EACC13E7D04FF000009D
:100F1000704700BFD01A01BAB1FA81F101F018018F
:100F200022FA01F0CB40C1F12001DBB2C0B2C01AFD
:100F30002CFA01F3D11A914311EAC311E6D170479B
:100F400070477047704709684A0501D540B270473D
:100F5000C905FCD500B2704709684A0501D5C0B281
:100F60007047C905FCD580B270472DE9F0470D46A2
:100F700099469246044600F124080168880604D583
:100F8000E06921F01001216000E00120A84201DDAC
:100F9000471B00E00027A1697A1902EB0900081A33
:100FA000A0612078C00602D42046FFF75BFB002634
:100FB00008E0D4E901211AF806009047206A401C95
:100FC000761C20624E45F4DB2078C0060AD5204608
:100FD000FFF748FB06E0D4E9012130209047206A62
:100FE000401C2062381EA7F10107F4DC07E0D4E9B9
:100FF000012118F805009047206A401C2062281E35
:10100000A5F10105F3DC2046FFF742FB207800063E
:1010100002D50220BDE8F0870120FBE711680268D5
:10102000006A530501D508700AE0D30501D5088090
:1010300006E0130603D5C217C1E9000200E008600C
:101040000120704701694A1C02610878704700B5A9
:101050008FB0CDE901310021059105497944CDE9F1
:10106000031011466846FFF789FB0FB000BD000072
:10107000E5FFFFFF0A6802F8010B0A60704710B530
:10108000436913B1AFF3008001E0FFF712FB0120C9
:1010900010BD127800F124010A7000224A7001226A
:1010A000EDE711684FF0FF32E9E700002DE9FF5F3F
:1010B00015468A460446DFF8AC80F8440027D8E994
:1010C00000103E46CDE9001010E03AF816106A46CE
:1010D00002A801F0EFF9411C07D02178890603D559
:1010E000E269391891420DD80744761C20788006B1
:1010F00002D5E069B84205DDAE42E6DB3AF81600FB
:101100000028E2D1A069C01BA0612046FFF7AAFA1F
:10111000D8E90010CDE90010002017E03AF81810C7
:101120006A4602A801F0C6F9B0F1FF3F81460BD034
:1011300000250DF1080B05E0D4E901211BF805009D
:1011400090476D1C4D45F7D308F10100B042804631
:10115000E4DB206A384420622046FFF799FABDE8B4
:10116000FF9F0000FEF700002DE9F0418046D21DF0
:1011700022F007020025D2E90002F52915A614D0B5
:10118000011E72F1000106DA0023D0EB030063EBCD
:10119000020211A608E0D8F800108B0701D50FA6AF
:1011A00002E0490701D50EA601251146002408F1E9
:1011B000240704E000F060FB30323A55641C50EA2A
:1011C0000102F7D12B46324621464046BDE8F041A8
:1011D000FFF7CBBE000000002D0000002B00000038
:1011E0002000000030B4002100F1240408E002F0E7
:1011F0000705D208303542EA4372DB086554491CC2
:1012000052EA0305F3D10468002310A2250707D58D
:10121000A40600D421B1C46901230DA2641EC461D7
:1012200030BCFFF7A2BE10B5044621461068FFF798
:1012300093FE02462046BDE810400023D2E7D21DAF
:1012400022F00701D1E90023CCE7000000000000F4
:1012500030000000F0B40D460188090502D5214C8C
:101260007C4402E01F4C7C440E34002100F1240633
:1012700008E002F00F071209E75D42EA03721B095A
:101280007754491C52EA0307F3D10278002312076E
:1012900004D5702D06D009B1022311342246F0BCCA
:1012A000FFF763BE01231034F8E770B504460D461E
:1012B00021461068FFF750FE024629462046BDE849
:1012C00070400023C6E7D21D22F00703D3E90023B4
:1012D000C0E70368126843F0200303600823C3617A
:1012E0000023B7E760F600003A2800D2303820F03B
:1012F0002002412A01D3A2F13700884201D34FF0E6
:10130000FF3070472DE9FF4F06468BB00878FF2865
:1013100006D0491C2D2805D000244FF0000908E014
:1013200000200CE00124F8E709EB8903491C00EBDD
:1013300043090878FF28F7D114B1C9F100008146AC
:10134000107800252C46AA4629462D2801D02B28A6
:1013500004D1521C2D2813D0002082468B461078D1
:10136000FF280FD04FF0000C0A21521CA5FB01787A
:1013700004FB018105FB0C11C5194BEB0104EEE7E1
:101380000120EAE7002108464FF00000BAF1000F03
:1013900002D000EB80004008C0F38157012F01DD2F
:1013A0004FF0FF370E9955EA040009EB01080BD006
:1013B0004FF0020918F5FA7F16DA4FEACA70002FCB
:1013C000706008DD012007E04FEACA70C6E900B08E
:1013D0000FB0BDE8F08F0020306000F049FAC0F88F
:1013E00000901821084616E0B8F5FA7F18DD002FA6
:1013F00002DAF748784401E0F6487844D0E9001072
:10140000C6E9001040EACA70706000F031FAC0F816
:101410000090142108460FB0BDE8F04F0EF081BFD8
:10142000002108464FF00000B8F10001099002DAEF
:10143000C7F1000200E03A4601DAC8F1000106A84F
:1014400000F0C6FF06AB93E8070003AB83E8070094
:1014500044F23E005BEA04010090584604D144F295
:101460001E012C465D460091210C0904014306D162
:101470000099240444EA15442D041039009104F025
:101480007F41014306D10099240244EA15642D02EC
:101490000839009104F07041014306D100992401FC
:1014A00044EA15742D01091F009104F040410143E5
:1014B00006D10099A40044EA9574AD00891E0091FC
:1014C00004F00041084304D100986D196441401EA6
:1014D00000904FF001033A466846B8F1000FCDE99D
:1014E000014503A902DD01F0CEFD01E001F0A1FDFF
:1014F000BAF1000F04460D4601D084F000440021EB
:1015000008464FF00000099940F2FF77484010F07C
:101510000C0F07D124F00040284303D0C4F30A5035
:10152000B84212D100F0A4F9C0F80090C4F30A50F8
:10153000B8420AD1A8487844D0E90010C6E90010A2
:1015400004F000410843706042E7C6E900543FE7F9
:101550002DE9FF4F1F464FF0000A4FF0FF38454678
:1015600091B0D7E90146CDF83CA000F07DF9C06804
:101570000168405C1090B96912986D1C8847396AFF
:10158000814688470028F6D1B9F1FF3F0AD0002EE6
:1015900024F4D06411DDB9F12B0F08D0B9F12D0F6F
:1015A0000BD102E0404615B013E744F48064B969FA
:1015B00012986D1C8847761E8146600504A901D5E6
:1015C0002D2000E02B20002E01F1010B0DF1300841
:1015D0008DF810003FDDB9F1690F08D0B9F1490F5E
:1015E00005D0B9F16E0F02D0B9F14E0F1CD13B46B8
:1015F00001A8009580E85002DDE912126FF00200A8
:101600000EF0FAFEC11CCED10EE0B96912986D1C25
:10161000884781461398761E44F4007405600F983D
:10162000401C002E0F9016DDB9F1300FEDD0B9F14E
:10163000780F02D0B9F1580F0DD10F9801280AD1B7
:101640003B46CDE90054DDE91212001F02960EF070
:10165000D1FEC11CA7D1109989453ED144F0800428
:1016600006E01399681CAAF1010A44F400740860AA
:10167000B9696D1C1298761E884730288146F0D0D3
:101680002BE01099894505D1200603D4761E44F03D
:10169000800418E048460AF047FF08B3761E0DF1B3
:1016A00023018B4544F4007408D2A9F130000BF8F3
:1016B000010B200607D5AAF1010003E0200602D4A1
:1016C0000AF101008246A00502D51399681C086042
:1016D000B96912986D1C88478146002ED1DC53E011
:1016E000002E51DDB9F1650F02D0B9F1450F4BD194
:1016F000A00549D5B9696D1C1298761E24F4407472
:101700008847002E81460CDD2B2804D0B9F12D0F1F
:1017100007D144F48074B96912986D1C8847761E0D
:101720008146E00501D52D2100E02B2108F8011BA1
:10173000CDF8008021E0761E0DF13901884544F492
:1017400000740CD2A9F1300010F0FF0088F80000FE
:1017500002D10099884509D908F1010806E0E005A1
:1017600001D51E4801E042F20F708246B969129815
:101770006D1C8847814613980560002E04DD48469D
:101780000AF0D2FE0028D6D1F96912988847FF20C6
:1017900053468BF8000088F8000000200A900B9058
:1017A00004AA0CA90AA8FFF7ADFDA00502D46FF0AA
:1017B0000100F8E614F0240F12D0E0071CD13868BD
:1017C000DDE90A12031D3B600068C0E9001213E066
:1017D00050F6000042F6000006F50000F1D8FFFFC9
:1017E0000AA968460AF038FEE00705D13868009A71
:1017F000011D3960006802602846D4E60268114481
:101800001378016018467047D160054979445161E9
:1018100004497944116200211161114600F01EBC97
:10182000EDFFFFFFED000000426842B1016811F8D2
:10183000013B23B1521EC0E9001218467047012136
:10184000C160881E704742685AB1C368016843B9D5
:1018500083688B4205D0491E521CC0E9001200204B
:1018600070474FF0FF30704700487047549F002486
:1018700000487047349F002430B5B0F10A024FEAA7
:10188000900E71F100034EEA817EB0EB0E0061EB29
:1018900091014FEA101E4EEA017E10EB0E0041EB63
:1018A00011114FEA102E4EEA016E10EB0E0041EBC3
:1018B00011214FEA104E4EEA014E10EB0E0041EBA3
:1018C0001141401841F100014FEAD00040EA417057
:1018D0004FEAD10110EB80054FEA810444EA90748D
:1018E00044EB01046D1944EB0404521BA3414FF077
:1018F000000348BF0A3200D530BD401C41F1000151
:1019000030BD10B5044600F01FFE0068005D00F019
:10191000010010BD70472DE9FF4F0C461E464FF0E9
:10192000FF378BB0D2E90001DDF860800A908A466B
:10193000C1F30A5505B93D46002108464FF00000A5
:10194000BAF1000F00F4400005DA00EB80004FF41C
:10195000400101EA50004FEA9059B9F1010F00DD52
:10196000B9460A9850EA4A000ED044F61050A5F243
:10197000FF3545432F14B8F1000F1ED07542291EC4
:101980001EDDC9F100021CE0B8F1010F4FF00000AC
:1019900001D0302103E0F24305E02154401CB04265
:1019A000FBDB30460022002121540B99C1F808804E
:1019B000C1E900200FB0BDE8F08FBD1B6D1CDEE754
:1019C0004A4600DA694206A800F002FD06AB93E839
:1019D000070003AB83E8070050460A9901F055F869
:1019E0008DE80700A0F500501F3800900398002DE7
:1019F0000ADD42F21F014A460844002303A903906E
:101A0000684601F001FB09E0A0F500504A461F3886
:101A1000002303A90390684601F020FB8DE807002E
:101A20000004000C03D04FF0FF30410800E01046E6
:101A3000B8F1000F03D00022009215461EE0751E7B
:101A400005D4FFF719FF303262556D1EF9D5B34644
:101A50000122084302D000227F1C04E020783028B5
:101A600001D100227F1E002A099784D01DE0112D8C
:101A700007DAFFF701FF303262556D1C50EA0102B0
:101A8000F5D1084302D00098C8B10EE00021681ECD
:101A900005E0235C625C63542254401E491C814271
:101AA000F7DBAB46A81B401E0990002004F80B0092
:101AB0000B98099AC0F80880C0E9002B7AE7112634
:101AC0004FF0000857E72DE9F04F88460446D21D35
:101AD00022F0070191B0D1E90001CDE90A010AF035
:101AE00009FC02460B98C00F01D02D2007E02068AA
:101AF000810701D52B2002E0202101EAC000032A42
:101B0000099001D0072A05DB03464146204600F034
:101B10002FFD0BE12078800601D5E06900E006206A
:101B2000B8F1650F814606D0B8F1660F18D0B8F14C
:101B3000670F70D131E00020B9F1110F009001DB87
:101B4000112301E009F101030AAA01A90CA8FFF77A
:101B5000E2FEDDE90C70002609F10105834647E04D
:101B600001204B4600904FF000470AAA01A90CA89B
:101B7000FFF7D1FEDDE90DB00C995D46002610B9E6
:101B800009F101000D18B9EB050003D4C0F1FF36CF
:101B900009F10105A5EB09002BE0B9F1010F01DA0C
:101BA0004FF001090020B9F1110F0090484601DD06
:101BB000112300E003460AAA01A90CA8FFF7ABFE17
:101BC000DDE90C704D4600268346207800070AD4D4
:101BD000AB4500DA5D4601A8012D04DD411911F87D
:101BE000011C302907D04F4502DA17F1040F04DA3F
:101BF000012082460FE06D1EEEE7002F02DCED1B98
:101C00003E4403E0781CA84200DD7D1CB81B00F1B7
:101C1000010A4FF000472078000703D4AA4501DBF2
:101C20004FF0FF3A0021B7F1004F0DF143088DF856
:101C3000431024D002202B23002F01DA7F422D23D2
:101C40000A21021EA0F1010000DC5FB197FBF1FC4C
:101C500097FBF1F201FB1C7C17460CF1300C08F8E5
:101C600001CDEEE7A8F1010003702188090501D537
:101C7000452100E06521A0F1010800F8011C099848
:101C80000FA9A1EB0807FF1D00B10120411901EBCD
:101C9000EA70A1693844081A401EA0612078C00685
:101CA00002D42046FEF7DEFC099828B1D4E90121D0
:101CB0009047206A401C20622078C00622D520462A
:101CC000FEF7D0FC1EE0002E04DBB34502DD01A8C8
:101CD000805D00E03020D4E901219047206A401C5B
:101CE0002062761CAAF101005FEA000A0AD1FFF720
:101CF000BBFDC0680168405CD4E901219047206ABF
:101D0000401C2062281EA5F10105DCDC07E0D4E9B7
:101D1000012118F8010B9047206A401C2062381EF0
:101D2000A7F10107F3DC2046FEF7B2FC032011B057
:101D300041E600002DE9F04F04460D46D21D22F089
:101D4000070089B0D0E90097484639460AF0D2FA30
:101D50000246F80F01D02D2307E02068810701D546
:101D60002B2302E0202101EAC0038DF820300BB1C3
:101D7000012000E00020032A824601D0072A04DB6C
:101D80002946204600F0F4FB3FE12078800601D48C
:101D90000D2500E0E569C7F30A560D2D49DA00214B
:101DA0004FEA175B08464FF00000002F00F4400098
:101DB00007DA00EB80004FF4400100EBD07001EA3D
:101DC00060008115012901DD4FF0FF3100224FEA4B
:101DD000850CBCF1180F06D31346ACF118004FF078
:101DE0008052C24003E04FF4801323FA0CF30CF14D
:101DF0000C0CBCF1200F04D3ACF1200C09FA0CF050
:101E000001E007FA0CF000294FF0004801DD18B995
:101E10000FE00ED140450CD319EB02095F4121B907
:101E2000404502D19F4329EA0209BBEB175F00D06E
:101E3000761C2088000502D57B48784402E07A4869
:101E40007844193808AA302302F80A30037C0AF1D2
:101E50000101002E0AF1020A53546A4602DC4FF0D7
:101E6000300101E04FF031014FF001088DF8001012
:101E700002D0A6F2FF3603E059EA470100D06B4ECC
:101E8000002D02DC2178090704D54FF002082E212D
:101E90008DF80110C44600210BE0C7F303433F0156
:101EA000C35C491C6D1E02F80830052908F10108C1
:101EB00001DA002DF1DC00210CE000EB1973491C64
:101EC0001B786D1E082902F808304FEA091908F13D
:101ED000010801DA002DF0DC21688B0602D516E03E
:101EE000A8F10108E04505DD02EB080313F8013C09
:101EF000302BF5D0B8F1000F09DD02EB080313F821
:101F0000013C2E2B03D1090701D4A8F10108002DB3
:101F100005DD3E2102F808106D1E08F10108407C25
:101F2000002E02F8080008F1010804DA2D2076429C
:101F300002F8080002E02B2002F808000A214FF402
:101F40007A70864208F101080BDB96FBF0F3303320
:101F500002F8083096FBF0F308F1010800FB136665
:101F600001E0642E0CDB642096FBF0F3303302F8C2
:101F7000083096FBF0F308F1010800FB136601E05E
:101F80000A2E06DB96FBF1F0303002F8080008F16B
:101F9000010896FBF1F001FB1060303002F80800F8
:101FA000A16908F1010808EB050202EB0A00081A12
:101FB000A0612078C00602D42046FEF753FB216AB8
:101FC00008AE01EB0A00206204E0D4E9012116F812
:101FD000010B9047BAF1010AF7D22078C00602D56A
:101FE0002046FEF73FFB6E4609E016F8010B3E283F
:101FF0000FD0D4E901219047206A401C2062B8F13B
:102000000108F2D22046FEF743FB09B00320BDE8E9
:10201000F08F206A2844206203E0D4E901213020B7
:1020200090476D1EEBD3F8E7C1EA000002FCFFFF0A
:1020300010B5436913B1AFF3008001E0FFF736F844
:10204000012010BD128800F1240182840022C28484
:102050000122EDE711684FF0FF32E9E72DE9F34F78
:102060004FF0000A0C4656468DB001200C9001F14D
:102070000C000B9062690B9801219047051E2DD032
:10208000252D2CD0216A8847C0B162690B980121A7
:102090009047216A88470028F7D16269411E0B9852
:1020A000904700E0761CA1690D988847216A88470F
:1020B0000028F7D1E1690D988847DBE7A1690D9801
:1020C0008847A842074601D1761CD3E7E1690D98FD
:1020D00088477F1C02D1BAF1000F6FD06CE16269B2
:1020E0000B9800273D46394690472A2804D162695B
:1020F0000B98012190470125DFF8D08262690B9887
:1021000001219047A0F130010A290AD24745E5DCB8
:1021100007EB870100EB4107303FDFD445F01005A6
:10212000ECE7E90601D46FF000476C280AD04C2890
:1021300014D0682815D06A280DD074281CD07A28AD
:102140001AD01DE062690B98012190476C2802D0DB
:1021500045F0040514E045F002050DE045F02005CA
:102160000AE062690B9801219047682802D045F087
:10217000080505E045F4006562690B980121904768
:10218000C4E9015765283DD019DC58287AD00CDC09
:10219000452837D004DC252826D041289ED131E0BF
:1021A00046282FD0472899D12CE05B2877D061288A
:1021B00028D063287CD0642823D15AE0F7E06F2828
:1021C00048D008DC66281DD067281BD0692821D09C
:1021D0006E2816D127E0702845D0732868D075285E
:1021E00047D078280DD14DE0A1690D988847252862
:1021F00005463FF469AFE1690D9888476D1C3FF4CF
:102200006AAFD9E00D9923466A466FF001000EF0DF
:10221000EFF8C6E045F0400023464FF00002606052
:10222000A80736D43EE0E8077FF447AF2068011DD9
:1022300021600068290501D506701BE7290701D533
:10224000068017E7A90703D5F117C0E9006111E778
:1022500006600FE745F0400023464FF0080260603B
:10226000A80716D41EE040F60E0125EA01006060C2
:1022700016E045F0400023464FF00A026060A807D0
:1022800007D40FE045F040006060A80708D523465A
:1022900010220D996FF00100FEF752FB81E007E07C
:1022A000102223460D996FF00100FEF7F4FB78E051
:1022B0004FF0000963284F46C8464B46CB4602D034
:1022C0005B2807D039E02079C00601D40120A06046
:1022D000012732E06269D4F80CB00B9801219047D5
:1022E0005E2807D14FF0010949466269D4F80CB065
:1022F0000B989047216939B900210A4603AB43F88E
:102300002120491C0829FADBD8B3216949B308F117
:10231000010862690B98012190475D28F4D1B9F159
:10232000000F09D0002003A951F82020D24341F822
:102330002020401C0828F7DB03AB20690028207907
:102340004FEA40701ED05B462246CDF80080CDE9B2
:1023500001970D9900286FF0010020DAAFF300809B
:102360001FE0C11703AA00EBD1614B1121F01F013F
:1023700002EB8302411A1368012088400343136073
:10238000C7E719E00D99224600286FF00100009779
:1023900002DAAFF3008004E0FEF723FC01E0AFF3C4
:1023A000008000280ADA401C06D10C9820B14FF0BA
:1023B000FF300FB0BDE8F08F5046FAE7E90701D1D2
:1023C0000AF1010A064400200C9053E6CCCCCC0C58
:1023D0002DE9F047814616468AB0354878440DC845
:1023E0008DE80D0032487844801C03AC0DC884E8A9
:1023F0000D0041F69B300844372190FBF1F290FB31
:10240000F1F5A5F1800501FB12041B3C02D56442E5
:10241000012000E00020DFF898A080460027FA4461
:10242000AAF1BE0A0EE0E0070AD03246684607EB82
:10243000470101230AEB810100F010FE8DE807003F
:1024400064107F1C002CEED1194F7F44AE3F19E081
:10245000E80715D007EB04100DF1180A90E80E00FC
:102460008AE80E00C068F04201D1981908903246FF
:10247000012306A903A800F0F1FD03AB83E80700E0
:102480006D10641C002DE3D14FF001033246694604
:10249000B8F1000F03A802D000F0B6FD01E000F093
:1024A000DDFDC9E90001C9F808200AB0BDE8F087E0
:1024B000B0E5000070B516460C46054600F044F83D
:1024C000036893F80101012806D0FF2C0FD8185D8E
:1024D00068B101202C7070BDD3F807013246214647
:1024E00003F2071303442846BDE8704018474FF035
:1024F000FF3070BD00487047349F00247546FFF7D9
:10250000F9FFAE4605006946534620F007008546B0
:1025100018B020B5FDF7F4FFBDE820404FF00006ED
:102520004FF000074FF000084FF0000B21F00701BB
:10253000AC46ACE8C009ACE8C009ACE8C009ACE8FE
:10254000C0098D467047000010B5FFF78DF9001DDA
:1025500010BD00BF89DD000010B5FFF789F90068E4
:1025600010BD10B50446FFF783F9046010BD0000EC
:102570002DE9F0411F46044603260168072A01F4AD
:10258000006004DB08B116A505E016A503E008B15C
:1025900015A500E015A521F010002060A069C01E5F
:1025A000A0610FB1401EA0612046FEF75BF84FB15D
:1025B000D4E9012138469047206A401C2062C01CA3
:1025C000206206E0206AFAE7D4E9012115F8010B40
:1025D0009047761EF8D22046FEF75AF8BDE8F08103
:1025E0004E414E006E616E00494E4600696E6600B7
:1025F0002DE9FF4F1F464FF03C0987B04FF00042D6
:10260000DDE9141001F10108DDF858A002EA40509C
:102610000390002005908346054604460490B9695E
:10262000461E08988847AAF1010A0290BAF1000FE5
:102630003BDD02982E2815D01021FEF755FE00280C
:102640002EDB4FF0010B0599014317D0B9F1000FB4
:102650000BDB4A46C11700F0FEF905430C43A9F114
:10266000040905E0012004900BE008B145F00105E4
:1026700001200590049820B9361D02E0049800B1AD
:10268000361FB969089808F101088847BBF1000FA7
:10269000AAF1010A0290C9D00999C1F80080C5E7E2
:1026A0000298702808D0502806D0F9690898884701
:1026B000BBF1000F14D04FE0002002900120BBF1CD
:1026C000000F049009D0B969089808F101088847FB
:1026D000AAF10109B9F1000F07DCF96908988847E8
:1026E0006FF001000BB0BDE8F08F2B2804D02D282F
:1026F0000CD14FF0FF300490B969089808F1010837
:102700008847A9F10109B9F1000FE6DD411CE4D0C9
:102710000A21FEF7E9FD0028DFDB029908F1010834
:1027200001EB810100EB41000290B96908988847EC
:102730000A21FEF7D9FD099AA9F10109B9F1000FA3
:10274000C2F8008001DD0028E7DAF96908988847B7
:102750000499029800FB016655EA040004D004F0D5
:102760004041090002D006E0039898E0A40044EA42
:102770009574AD00B61E04F00041080002D16D1939
:102780006441761E159810F0240F03D04FF00B090A
:102790005C4803E04FF028096FF07D008246564503
:1027A00007DAAAEB06018944B9F1410F01DD4FF0C8
:1027B000410901200021A9F1010200F04CF9024673
:1027C00028400B462140084301D0012100E00021B0
:1027D000501E029143F1FF3128402140084301D0AF
:1027E000012000E000200299834651EA0B014FD0FE
:1027F000002108464FF00000039900F4400039B171
:1028000000EB80004FF4400100EBD07001EA600063
:102810008015012802DD4FF0FF3000E013D0401C8E
:1028200036D0029860B3BBF1000F0CD14A460120AC
:10283000002100F010F928402140084301D0012078
:1028400000E00020E0B101204A46002100F003F939
:10285000034640190A4661412D1A8C4111D3B9F142
:10286000400F09DD159810F0240F02D0AAF13406AC
:1028700003E0AAF1170600E0761C00254FF00044A3
:1028800006E05B1E42F1FF3220EA030521EA020462
:10289000CAF10100B04206DA1B49039808430190CF
:1028A000002000900EE0039AC4F3D321E80A0A4303
:1028B000164940EA44500A433146CDE900026846D1
:1028C00009F0D6FD159810F0240F0BD01598C0070D
:1028D00015D13868DDE90012031D3B600068C0E9CE
:1028E00000120CE002A8694609F0B6FD1598C00771
:1028F00005D13868029A011D3960006802604046BF
:10290000F0E6000002FCFFFF0000F07F0000F03F57
:102910002DE9FF4F92461D4685B04FF00041DDE99D
:10292000124BDDE914727F1E01EA4B50414940F021
:10293000FF4940EA0108002122F0200049280491C3
:1029400002D04E2828D04CE03BA0012607C88DE8D5
:102950000700A9690698641C88477F1E014606D4B3
:102960001DF8060018B121F0200181420BD0E96961
:1029700006988847032E34D0082E32D06FF001001D
:1029800009B0BDE8F08F761C032E01D0082EE0D1EF
:10299000601CCAF80000DCE7A9690698641C884737
:1029A0007F1E2AD420F02000412826D1A96906984C
:1029B000641C88477F1E20D420F020004E281CD1A4
:1029C000A9690698641C88477F1E48F4002849F4CA
:1029D0008009CAF8004001D4282806D0E969069881
:1029E00088475FEACB7012D022E0A9690698641C80
:1029F00088477F1E01D4002803DAE96906988847D2
:102A0000BCE72928F1D1641CCAF80040E9E71BF0B3
:102A1000240F07D028680499031D2B600068C0E9C3
:102A2000001805E02868021D2A600068C0F80090C0
:102A30002046A5E70000F07F494E46494E495459CB
:102A40000000000010B50446AFF300802046BDE84A
:102A50001040FDF7E0BCB2F120030AD5C2F120031B
:102A600001FA02F120FA03F300FA02F041EA03014D
:102A7000704700FA03F14FF0000070470149182039
:102A8000ABBEFEE72600020070475FEA400C08BFBD
:102A900091F0000F4FEA8C234FEAC12243EA5151D3
:102AA0004FEA1C5018BF00F5F0404FEA300018BF45
:102AB00041F000415FEA6C5C00F02980BCF1FF3F0F
:102AC00008BF40F080407047130C06BF12044FF05F
:102AD000100C4FF0000C130E04BF12020CF1080C86
:102AE000130F04BF12010CF1040C930F04BF9200EA
:102AF0000CF1020CD30F04BF52000CF1010C114673
:102B00004FF00002A0F11F00A0EB0C00704711F085
:102B1000004F08BF704731F000413FF4D5AF0B0CB8
:102B200006BF09044FF0100C4FF0000C0B0E04BF51
:102B300009020CF1080C0B0F04BF09010CF1040C85
:102B40008B0F04BF89000CF1020CCB0F04BF4900AE
:102B50000CF1010CCCF12003A0EB0C0022FA03F3E2
:102B600002FA0CF241EA030100F10100704720F083
:102B70007F4C80EA030023F07F47ACEB070303F5AB
:102B80007C5300F0004003F1FF032DE980494FEA38
:102B9000154B09B44FEA144325EA0B4E24EA0348C7
:102BA0000FF2042606EB132749083E785FEA32024B
:102BB00003FB0667C7F5000707FB06F64FEA543725
:102BC0004FEAD64606F1020607FB066CCCF1005C24
:102BD0004FEA1C472CEA074C07FB06F40CFB06F5F2
:102BE00004EB15464FEA961634BF00204FF0004024
:102BF0004FEAD13706FB07FC4FEA1C4C0CFB0BF7E6
:102C0000D21B03FB0CF761EB07010CFB0EF7B0EBDB
:102C1000074072EB17420CFB08F734BFA2EB0742E8
:102C2000B2EB074261EB17414FEA0C444FEA9107C0
:102C300006FB07FC4FEA1C4C0CFB0BF7B0EBC74044
:102C400072EB573203FB0CF734BFA2EBC742B2EB77
:102C5000C74261EB57310CFB0EF7B0EBC70072EBCC
:102C600057720CFB08F734BFA2EBC702B2EBC702E6
:102C700061EB5771039F4FEA816141EA921104EBC6
:102C8000CC044FEAD1374FEA826206FB07FC42EAE6
:102C900090124FEA80604FEA1C4C0CFB0BF7D21BE2
:102CA00003FB0CF761EB07010CFB0EF7B0EB0740E1
:102CB00072EB17420CFB08F734BFA2EB0742B2EBF2
:102CC000074261EB17414FEA8C554FEA910704EB3D
:102CD0009C2406FB07FC4FEA1C4C0CFB0BF7B0EBEB
:102CE000C74072EB573203FB0CF734BFA2EBC7426D
:102CF000B2EBC74261EB57310CFB0EF7B0EBC700EC
:102D000072EB57720CFB08F734BFA2EBC702B2EBB1
:102D1000C70261EB577115EB4C254FEA816141EA1F
:102D200092114FEA82624FEAD13742EA901206FBD3
:102D300007FC44F100044FEA80604FEA1C4C0CFB96
:102D40000BF7D21B03FB0CF761EB07010CFB0EF733
:102D5000B0EB074072EB17420CFB08F734BFA2EB55
:102D60000742B2EB074261EB174115EB1C154FEA26
:102D7000813141EA92414FEA823242EA90424FEA7F
:102D800080304FEA0C7644F1000448EA03434EEAEF
:102D90000B484FF0000EB2EB080C71EB030724BF99
:102DA000624639464EEB0E0E4FF0000B00185241B2
:102DB00049414BEB0B0BB2EB080C71EB03077BF1BA
:102DC000000B24BF624639464EEB0E0E4FF0000B4F
:102DD0000018524149414BEB0B0BB2EB080C71EB65
:102DE00003077BF1000B24BF624639464EEB0E0E03
:102DF00051EA020718BF46F0010616EB0E7655F1B0
:102E0000000254F1000103D5BDE88901BDE8008846
:102E1000BDE88901BDE80048B619524141EB010106
:102E2000A3F10103704780807F7E7D7C7B7A797877
:102E3000777676757473727171706F6E6E6D6C6C7F
:102E40006B6A6A6968686766666564646363626121
:102E50006160605F5F5E5E5D5D5C5C5B5B5A5A59A2
:102E6000595858575756565555555454535352520E
:102E70005251515050504F4F4F4E4E4D4D4D4C4C66
:102E80004C4B4B4B4A4A4A494949484848474747AF
:102E900047464646454545444444444343434342EC
:102EA000424242414141000046EA0646A3F57053C2
:102EB0004FEA164646EA42564FEAD22242EA4152C9
:102EC00010B54FEAD121A3F1010300F02FF820F053
:102ED000004000F1020C00F0004701EB00501146E9
:102EE000BCF5006F40EA070000D210BDBAF1000F38
:102EF0000AD01CB503B44FF004004FF004014FF0AA
:102F000000000FBCBDE810404FF00001BBF1010F05
:102F1000B9BF04484FF0FF310348002140EA0700E1
:102F200010BD00BFFFFFEF7F0000F07F002B9C462D
:102F300030D477002BD01CB54FEA370703B44FF0DD
:102F400010004FF01001BAF1000F06D0BCF1000FD5
:102F5000DCBF40F0080040F008014FF000000FBC5B
:102F6000BDE810400BF1010BBBF1010F08BF5FEA98
:102F7000170722BF12F1010211F101014FF00041C8
:102F800043F1000300F0004043EA00007047F9D32A
:102F90005708D0E746EA064613F1400F4FEA1646B7
:102FA0001FDD13F1200FDFBF16430A460021203337
:102FB0005B42BED0C3F1200746EA064602FA07F795
:102FC0004FEA164646EA0706C3F1200722FA03F243
:102FD00001FA07F721FA03F14FF0000342EA070272
:102FE000A7E746EA020646EA06464FEA164646EADA
:102FF0000106BCBF46EA0646360C4FF000034FF010
:1030000000024FF0000194E72DE9804C9A46934668
:1030100070B491E8380007C831EA400C48BF34EA80
:10302000430C03D5FFF7A3FDFFF780FFF0BCBDE81D
:10303000008C2DE9804C9A46934670B491E8380094
:1030400007C831EA400C48BF34EA430C03D5FFF708
:103050008EFDFFF729FFF0BCBDE8008C2DE9804C08
:103060009A46934670B491E8380007C810F0804F34
:1030700008BF13F0804F03D100F01AF8FFF756FF96
:10308000F0BCBDE8008C2DE9804C9A46934670B4A4
:1030900091E8380007C810F0804F08BF13F0804F48
:1030A00003D100F005F8FFF7FFFEF0BCBDE8008C8F
:1030B00020F07F4780EA030023F07F4C07EB0C03EE
:1030C000A3F57C5300F00040A3F1FE0392F0000F43
:1030D00000F0B38095F0000F00F077802DE90149F2
:1030E0004FEA11404FEA144621EA004800FB06FC73
:1030F00024EA064708FB06F607FB08F800FB07F77B
:1031000018EB06484CEB164C4FEA124B18EB0748ED
:103110004FEA15464CEB174022EA0B4E0BFB06FC20
:1031200025EA06470EFB06F607FB0EFE0BFB07F72C
:103130001EEB064E4CEB164C4FF000061EEB074EF6
:103140004CEB174B18EB0B0840F1000018EB0E0B83
:1031500058EB000840F100008F1A4FF000013CBF0F
:10316000C943661B14BFB5EB040C00213CBFC94327
:10317000F61B4FEA17444EEA8E0E27EA04454FEA43
:103180001C4704FB07622CEA074C05FB07F70CFB06
:1031900005F604FB0CFC16EB074642EB174216EB58
:1031A0000C4642EB1C421BEB060658EB0202414167
:1031B00046EA9E0601D5BDE80189B619524141EBA8
:1031C0000101A3F10103BDE801894FEA14454FEA6B
:1031D000114724EA054621EA074C05FB07F406FBE4
:1031E00007F70CFB06F105FB0CFC11EB074144EB68
:1031F00017444FEA124711EB0C4144EB1C4422EAFE
:10320000074C05FB07F206FB07F70CFB06F605FB70
:103210000CFC16EB074642EB174216EB0C4642EB52
:103220001C456A1854F1000148BF7047B619524155
:1032300041EB0101A3F10103704795F0000F37D076
:103240004FEA11424FEA144721EA024624EA074CAA
:1032500002FB07F106FB07F70CFB06F402FB0CFC74
:1032600014EB074441EB17414FEA154714EB0C44AC
:1032700041EB1C4125EA074C02FB07F506FB07F76B
:103280000CFB06F602FB0CFC16EB074645EB17455C
:1032900016EB0C4645EB1C42121951F1000148BFD8
:1032A0007047B619524141EB0101A3F10103704788
:1032B0004FEA14454FEA114724EA054621EA074C34
:1032C00005FB07F106FB07F70CFB06F24FF00006C3
:1032D00005FB0CFC12EB074241EB174112EB0C42D1
:1032E00051EB1C4148BF7047921841EB0101A3F11B
:1032F00001037047012002A106F0D6FAFAE70000A8
:103300004275734661756C745F48616E646C65727A
:10331000000000000020704700207047054900228F
:10332000054810B507F08CFB0449034807F07BFB08
:10333000002010BD2413002448060024240B002480
:1033400010B5054C0A46A16001460448FDF7FCFC97
:103350000120207010BD0000C4010024208F002433
:1033600070B50C4605460146054807F05CFB04486D
:1033700007F032FB21682846FFF7E2FF002070BD0E
:1033800048060024002070470A46094910B5D1F8C4
:10339000BC12D1F8141209B1012010BD0146044835
:1033A00007F04EFBBDE81040014807F0C3BB00002A
:1033B0004806002470B500240D4606460BE0291B84
:1033C000402906EB040000D34021FFF7DDFF052074
:1033D0000AF042F84034AC42F1D370BD10B560B190
:1033E00071B1084C491E0BD310F8013B5340DBB2BE
:1033F00034F8133083EA1222F4E74FF6FF7010BD61
:10340000104610BDA806030810B539B1044C491E7A
:1034100004D310F8013B5340E25CF8E7104610BDBE
:10342000A8050308014800F0B7BD0000840500248A
:1034300010B52A4A016891423AD0284A183291427E
:1034400036D0264A3032914232D0244A4832914214
:103450002ED0224A603291422AD0204A78329142BC
:1034600026D01E4A9032914222D01C4AA832914264
:103470001ED01B4A91421BD0194A1832914217D0D4
:10348000174A3032914213D0154A483291420FD038
:10349000134A603291420BD0114A7832914207D0E0
:1034A0000F4A9032914203D00D4AA832914211D175
:1034B000CAB20C4C1823103AB2FBF3F26FF30901B5
:1034C00002F00703032AE35CC36500D9091D816587
:1034D000084610BD21F0FF01F9E70000100002408E
:1034E00010040240BC04030810B501680123224CFB
:1034F000CAB2A1421BD0204C1434A14217D01E4C9A
:103500002834A14213D01C4C3C34A1420FD01A4C99
:103510005034A1420BD0184C6434A14207D0164C51
:103520007834A14203D0144C8C34A1420FD1142121
:10353000083AB2FBF1F1114A02EB810202660F4A2E
:1035400001F01F0180328B40C0E9192310BD1824FF
:10355000103AB2FBF4F20A4C2144A82900D80832F0
:10356000084901EB8201016606498031416602F09B
:103570001F018B40836610BD085402580058025842
:10358000F0FBFDBF0008024010B50279531E072B67
:1035900030D8194C0168A1421BD0174C1434A142F9
:1035A00017D0154C2834A14213D0134C3C34A142FF
:1035B0000FD0114C5034A1420BD00F4C6434A142B7
:1035C00007D00D4C7834A14203D00B4C8C34A1426F
:1035D00006D10A4901EB8201C1660849443105E080
:1035E000074901EB8201C1660549443101670121A8
:1035F0009940416710BD000008540258FC58025819
:10360000FC080240014610B500208B694FF0C074E1
:103610008A6A53B1B3F5005F15D072B1012A0CD09C
:10362000022A0AD0032A09D104E01AB1012A06D0DD
:10363000022A03D1C96AC90100D5012010BDC96A97
:10364000A142FAD010BD002AF7D0012AF2D0022AF6
:10365000F3D0032AF3D010BD2DE9F04F834E834FF2
:10366000DFF808C24836DFF80492DFF800A20CF158
:10367000180CDFF8F8B109F13009DFF8F0E10AF1D0
:10368000600A04680BF1780B856D0EF1900EBC4258
:103690006DD064456BD04C4569D0B44267D0544579
:1036A00065D05C4563D0744561D0DFF8C08108F116
:1036B000A80844455BD0DFF8B881444557D0DFF80F
:1036C000B08108F11808444551D0DFF8A48108F111
:1036D000300844454BD0DFF8988108F1480844454C
:1036E00045D0DFF88C8108F1600844453FD0DFF811
:1036F000808108F17808444539D0DFF8748108F1F9
:103700009008444533D0DFF8688108F1A8084445A3
:103710002DD0DFF86081444529D0DFF8588108F1C9
:103720001408444523D0DFF84C8108F128084445AB
:103730001DD0DFF8408108F13C08444517D0DFF880
:10374000348108F15008444511D0DFF8288108F190
:10375000640844450BD0DFF81C8108F17808444523
:1037600005D0DFF8108108F18C08444509D1D0E973
:103770001948C4F80480C46E1CB1D0E91C48C4F8D0
:1037800004800468BC422ED064452CD04C452AD01D
:10379000B44228D0544526D05C4524D0744522D06C
:1037A000324EA836B4421ED0314EB4421BD0304EF9
:1037B0001836B44217D02E4E3036B44213D02C4EA9
:1037C0004836B4420FD02A4E6036B4420BD0284E51
:1037D0007836B44207D0264E9036B44203D0244EF9
:1037E000A836B44215D190F85C4004F01F063F247F
:1037F000B440AC600468256825F4802525602EE07F
:103800009A600068C160BDE8F08F99600068C2608E
:10381000F9E7184EB4421BD0164E1436B44217D0F6
:10382000144E2836B44213D0124E3C36B4420FD058
:10383000104E5036B4420BD00E4E6436B44207D010
:103840000C4E7836B44203D00A4E8C36B442DAD1EC
:1038500090F85C4004F01F060124B4406C600468DA
:1038600063608368402B0368CFD1C9E71000024032
:103870001004024008540258704772B6FEE7002256
:10388000AFF300800E4B30B505465C7A0120002C6A
:1038900014D1587A1C54587A03EB800045605D7A45
:1038A00003F108002A54587A421C5A7230300870CA
:1038B0003A2048702F2088700020CC7030BD000066
:1038C0006C220024014801F099BB0000C8030024C9
:1038D000014801F093BB0000C803002430B5036821
:1038E000426B53F8844F4FF6FC718C4344EA8204D8
:1038F0001C60036853F8844F058F24F47F0444EA66
:1039000005441C60836B1A440368D3F888408C43D9
:1039100044EA8204C3F88840036853F8884F858FCF
:1039200024F4FE0444EA05441C60C36B02EB43022A
:103930000368D3F8A0408C4344EA8204C3F8A04053
:10394000036853F8A04FB0F8405024F4FE0444EA52
:1039500005441C60D0E9103403FB04220368D3F84B
:10396000B0408C4344EA8204C3F8B040036853F883
:10397000B04FB0F8485024F4FE0444EA05441C60FB
:10398000D0E9123403FB04220368D3F8AC408C4323
:1039900044EA8204C3F8AC40D0E9143403FB0422A7
:1039A0000368D3F8F0408C4344EA8204C3F8F04043
:1039B000036853F8F04FB0F8585024F47C1444EAEC
:1039C00005441C60836D02EB43030268D2F8C040DB
:1039D0008C4344EA8301C2F8C010016851F8C02F3B
:1039E000B0F85C3022F47C1242EA03420A600168BB
:1039F00051F8C02F90F8603022F07C5242EA036206
:103A00000A60416B234A02EB8101C166826B01EBC4
:103A100082020267C36B02EBC3024267D0E9103433
:103A2000634302EB83028267D0E91234634302EB03
:103A30008302C267D0E91434634302EB8302C0F807
:103A40008020836D02EBC302C0F88420C46D836EB6
:103A50005C4302EB8402C0F88820046E5C430E4B8A
:103A600002EB8402C0F890209A420AD9D0F89C1048
:103A700041F02001C0F89C10032180F8981001202B
:103A800030BD002200E004C1D0F890308B42FAD85B
:103A9000002030BD00AC0040FCD30040F0B5D1E9BF
:103AA00001650C692C430D68C6B145F080452C4377
:103AB00091F82070D1E9066535434E6946EA0766FC
:103AC0003543CE683543D0F88460806E584306EBAA
:103AD00080030020E3E802450C4D0FE044EA8544F2
:103AE000E6E71418165CE77846EA0766A778647874
:103AF0003F0447EA04242643001D40C3CC6805EB7D
:103B0000144424788442ECD8F0BD0000C4040308B7
:103B100000B589B0022100200090CDE9010101210A
:103B2000CDE9031005906946074801F069F908B12D
:103B3000FFF7A3FE044801F060FD034800220121C5
:103B400001F0E8F809B000BDC803002413460A4696
:103B5000402110B501F096F908B1002010BD0120F8
:103B600010BD10B501F018F908B1002010BD0120FA
:103B700010BD0000C9070BD00649CB6823F4E663EB
:103B8000CB60CB681343842242EA00200343CB601E
:103B90007047000000200052C9070BD00649CA68D0
:103BA00022F03002CA60CA680243CA60C86840F0A6
:103BB0008800C86070470000002000522DE9F047DF
:103BC0000025894604464FF0040801F00FFF164E09
:103BD000074607E0601C05D001F008FFC01BA042AB
:103BE00008D83CB1316938EA0100F3D0B9F1010FCE
:103BF00003D005E00320BDE8F08735690B48054098
:103C0000680006D00A4881692943816175610120F5
:103C1000F1E7B9F1010F05D13069C00302D54FF4C6
:103C2000803070610020E6E7002000520000EE17AF
:103C3000502200242DE9F84F044601F0D7FE0090F1
:103C400034B194F83500022805D080206065EBE09F
:103C50000120BDE8F88FCC4ECB4FCB491836DFF8AA
:103C600028833037DFF82093DFF81CA308F14808D9
:103C7000DFF814B309F1600920680AF1780A0BF142
:103C8000900B88422ED0B0422CD0B8422AD040456A
:103C900028D0484526D0504524D0584522D0BA4A8D
:103CA000A83290421ED0B94A90421BD0B74A18326F
:103CB000904217D0B54A3032904213D0B34A4832BE
:103CC00090420FD0B14A603290420BD0AF4A783266
:103CD000904207D0AD4A9032904203D0AB4AA8320E
:103CE000904209D1026822F01E02026020684269F7
:103CF00022F08002426103E0026822F00E020260BC
:103D000025688D4228464DD0B0424BD0B84249D0AC
:103D1000404547D0484545D0504543D0584541D00F
:103D2000994AA83290423DD0984A90423AD0974A58
:103D30001832904236D0954A3032904232D0934A6F
:103D4000483290422ED0914A603290422AD08F4A17
:103D50007832904226D08D4A9032904222D08B4ABF
:103D6000A83290421ED08A4A90421BD0884A143210
:103D7000904217D0864A2832904213D0844A3C326F
:103D800090420FD0824A503290420BD0804A643227
:103D9000904207D07E4A7832904203D07C4A8C32DF
:103DA000954204D1206E026822F480720260764946
:103DB0002068884228D0B04226D0B84224D040455E
:103DC00022D0484520D050451ED058451CD06E49C1
:103DD000A831884218D06D49884215D06B491831F6
:103DE000884211D06949303188420DD06749483145
:103DF000884209D065496031884205D063497831ED
:103E0000884201D061499031016821F001010160CF
:103E10000EE001F0EBFD0099401A052808D920209A
:103E20006065032084F83500002084F834000FE733
:103E30002868C007EDD1544A0121206890422ED055
:103E4000B0422CD0B8422AD0404528D0484526D090
:103E5000504524D0584522D04B4BA83398421ED011
:103E60004A4B98421BD0494B1833984217D0474BC6
:103E70003033984213D0454B483398420FD0434BD0
:103E8000603398420BD0414B7833984207D03F4B78
:103E90009033984203D03D4BA833984208D194F810
:103EA0005C30A06D03F01F053F23AB40836007E04B
:103EB00094F85C30A06D03F01F0301FA03F3436034
:103EC000206890424DD0B0424BD0B84249D04045D6
:103ED00047D0484545D0504543D0584541D02A4A5F
:103EE000A83290423DD0294A90423AD0274A18320F
:103EF000904236D0254A3032904232D0234A48325E
:103F000090422ED0214A603290422AD01F4A783205
:103F1000904226D01D4A9032904222D01B4AA832AD
:103F200090421ED01A4A90421BD0194A1432904235
:103F300017D0174A2832904213D0154A3C3290428B
:103F40000FD0134A503290420BD0114A6432904243
:103F500007D00F4A7832904203D00D4A8C329042FB
:103F60000BD1D4E919024260E06E30B1026822F44C
:103F700080720260D4E91C02426084F8351000208F
:103F800084F8340065E6000010000240100402408E
:103F900008540258406D70472DE9FC5F044600202C
:103FA00000904FF41651F9480068B0FBF1F0019011
:103FB000A56D2E682A68F64FDFF8D483DFF8D0A30A
:103FC000DFF8CCB308F1180820680AF1300ADFF8EE
:103FD000C4930BF1480BB84238D04146884235D0E3
:103FE000504533D0584531D0E949603188422DD011
:103FF000E7497831884229D0E5499031884225D077
:10400000E349A831884221D048451FD0E149183101
:1040100088421BD0DF493031884217D0DD49483112
:10402000884213D0DFF86CE30EF1600E70450DD0BE
:10403000D84B7833984209D0DFF858C30CF1900C74
:10404000604503D0D349A83188427DD194F85C10F3
:10405000082301F01F0103FA01F232424CD0B842AA
:1040600033D0404531D050452FD058452DD0C84988
:104070006031884229D0C6497831884225D0C44968
:104080009031884221D0C249A83188421DD048458C
:104090001BD0C0491831884217D0BE493031884200
:1040A00013D0BC49483188420FD0BA4960318842A8
:1040B0000BD0B8497831884207D0B6499031884250
:1040C00003D0B449A831884203D1016801F004014A
:1040D00002E0016801F0080171B1016821F00401FA
:1040E000016094F85C0000F01F0003FA00F2AA607F
:1040F000606D40F00100606594F85C00012100F003
:104100001F008140314241D02068B84235D040453F
:1041100033D0504531D058452FD09D4A603290421F
:104120002BD09B4A7832904227D0994A90329042C5
:1041300023D0974AA83290421FD048451DD0954AB7
:104140001832904219D000E0B3E1924A30329042E6
:1041500013D0904A483290420FD08E4A603290423B
:104160000BD08C4A7832904207D08A4A90329042E3
:1041700003D0884AA83290427ED1406910F0800F67
:1041800004D0A960606D40F00200606594F85C00A6
:10419000042100F01F00814031423FD02068B84226
:1041A00033D0404531D050452FD058452DD0784A96
:1041B0006032904229D0764A7832904225D0744AB3
:1041C0009032904221D0724AA83290421DD0484588
:1041D0001BD0704A1832904217D06E4A303290424B
:1041E00013D06C4A483290420FD06A4A60329042F3
:1041F0000BD0684A7832904207D0664A903290429B
:1042000003D0644AA83290424FD1006810F0020FE8
:1042100004D0A960606D40F00400606594F85C0013
:10422000102100F01F008140314259D02068B8426F
:1042300035D0404533D0504531D058452FD0544A21
:10424000603290422BD0524A7832904227D0504A66
:104250009032904223D04E4AA83290421FD0484517
:104260001DD04C4A1832904219D04A4A30329042FE
:1042700015D0484A483200E015E090420FD0454A38
:10428000603290420BD0434A7832904207D0414A84
:104290009032904203D03F4AA832904207D1006842
:1042A00000F0080006E0006870E70068B6E7006804
:1042B00000F00400A0B1A96020680168490304D59A
:1042C0000068000308D5A16C07E00168C90503D4A4
:1042D000016821F008010160216C09B1204688477E
:1042E00094F85C00202100F01F008140314278D01A
:1042F0002068B84233D0404531D050452FD0584582
:104300002DD0234A6032904229D0214A78329042FF
:1043100025D01F4A9032904221D01D4AA8329042A7
:104320001DD048451BD01B4A1832904217D0194A5D
:104330003032904213D0174A483290420FD0154A7B
:10434000603290420BD0134A7832904207D0114A23
:104350009032904203D00F4AA832904203D10068B5
:1043600000F0100002E0006800F00200A0B3A960B5
:1043700094F835000428206801680DD049037CD5E5
:104380000068000329D4616C28E00000AC00002420
:10439000100002401004024021F016010160206864
:1043A000416921F080014161206C08B9A06C20B105
:1043B0002068016821F00801016094F85C0000F0B9
:1043C0001F013F208840A860012084F835000020AC
:1043D00084F83400216D65E003E0E16B09B120460B
:1043E0008847606D00287DD0606DC00759D00420DB
:1043F00084F835002068B8422BD0404529D050457C
:1044000027D0584525D09E49884222D09C49183152
:1044100088421ED09A49303188421AD09849483192
:10442000884216D0484514D09649884211D0954903
:10443000183188420DD093493031884209D09149D2
:104440004831884205D08F496031884201D08D497A
:104450007831016821F00101016021680098019A1A
:10446000401C0090904202D80868C007F6D1086846
:10447000C00710D003200FE0FFE70168C905ACD4E6
:10448000016821F010010160012084F8350000204E
:1044900084F83400A1E7012084F83500002084F876
:1044A0003400E16C00291DD002B02046BDE8F05F69
:1044B0000847754988421DD073491431884219D084
:1044C00071492831884215D06F493C31884211D05A
:1044D0006D49503188420DD06B496431884209D012
:1044E000694900E084E07831884203D066498C3124
:1044F00088427DD101684FF0040894F85C6006F0B2
:104500001F0608FA06F818EA020FCDF8008047D017
:104510005FEA417844D500986860080403D5C80371
:104520003CD4A16CBEE7880638D42068B8422DD0B0
:1045300053494839884229D0504527D0584525D07D
:104540004F49884222D04E49183188421ED04C49EA
:10455000303188421AD04A494831884216D04845FD
:1045600014D04849884211D04649183188420DD0AC
:1045700044493031884209D0704507D0984205D06F
:10458000604503D03F499031884203D1016821F052
:10459000080102E0016821F004010160216C81E75B
:1045A0004FF0020808FA06F818EA020FCDF800806A
:1045B0004FD05FEA81784CD500986860080403D535
:1045C000C80344D4616C6DE7880640D42068B842C3
:1045D0002FD02B49483988422BD0504529D05845F7
:1045E00027D02749884224D025491831884200E045
:1045F00043E01ED02249303188421AD02049483148
:10460000884216D0484514D01E49884211D01D4911
:10461000183188420DD01B493031884209D070458D
:1046200007D0984205D0604503D0164990318842A2
:1046300003D1016821F0140102E0016821F00A01B0
:104640000160012084F83500002084F83400E16B1B
:1046500028E70823B34013420FD009070DD501689E
:1046600021F00E01016094F85C0000F01F010120B0
:1046700000FA01F1696060650EE7BDE8FC9F00008B
:104680007000024028040240085402582DE9F05FEF
:10469000044601F0ABF90646F4B3E24F0222DFF81C
:1046A00084830025DFF87C93DFF878A308F13008D5
:1046B000DFF870B309F1480920680AF1600A0BF1CC
:1046C000780BB84234D0D7491831884230D04045B1
:1046D0002ED048452CD050452AD0584528D0D14915
:1046E0009031884224D0CF49A831884220D0CE4989
:1046F00088421DD0CC491831884219D0CA4930317E
:10470000884215D0C8494831884211D0C649603125
:1047100088420DD0C44900E042E07831884207D099
:10472000C1499031884203D0BF49A83188427CD129
:1047300084F83520B84284F834502CD0B949183167
:10474000884228D0404526D0484524D0504522D024
:10475000584520D0B349903188421CD0B149A83186
:10476000884218D0B049884215D0AF4918318842E4
:1047700011D0AD49303188420DD0AB494831884223
:1047800009D0A9496031884205D0A74978318842CB
:1047900001D0A5499031016821F00101016009E0D3
:1047A0000120BDE8F09F01F021F9801B052801D907
:1047B000202015E120680068C007F4D12268116844
:1047C0009A480140D4E902031843D4E9043633433C
:1047D0001843A3691843E3691843236A184308433D
:1047E000616A042903D1D4E90B13194308439049A2
:1047F00009686FF30F01B1F1005F0FD36168A1F198
:104800002903052B08D9163B032B05D9083B012B9F
:1048100002D94F39032901D840F480101060206874
:10482000406920F00701606A00E01CE0042840EACB
:1048300001060BD1A06A0643E06A38B12046FEF7B4
:10484000E1FE18B1402060650120CBE020684661A0
:104850002046FEF7EDFD94F85C1001F01F023F21A9
:104860009140816056E0734988421BD0714B1433EC
:10487000984217D06F4B2833984213D06D4B3C337E
:1048800098420FD06B4B503398420BD0694B643336
:10489000984207D0674B7833984203D0654B8C33EE
:1048A00098427DD1884201D06249143184F8352084
:1048B00084F83450026860490A40A168402970D0E9
:1048C00080296FD00021E36841EAD301236941EADE
:1048D000D301636941EAD301A36941EAD301E369E2
:1048E00041EAD301236A41EA13111143016051499E
:1048F0002068494208441421B0FBF1F08000E065D3
:104900002046FEF795FD94F85C1001F01F0201218E
:10491000914041602068B84255D0424918318842E0
:1049200051D040454FD048454DD050454BD05845CB
:1049300049D03C499031884245D03A49A831884213
:1049400041D0394988423ED03749183188423AD05F
:1049500035493031884236D033494831884232D0E7
:104960003149603188422ED02F49783188422AD08F
:104970002D499031884226D02B49A831884222D037
:104980002C4988421FD02B49143188421BD0294919
:104990002831884217D027493C31884213D002E0A1
:1049A0001DE017E018E02349503188420BD021491F
:1049B0006431884207D01F497831884203D01D49AD
:1049C0008C31884228D12046FEF78EFDA0688028D1
:1049D0000BD00BE0102176E74FF4804173E74020C5
:1049E0006065032084F83500DAE66560216E207981
:1049F0000860D4E9190141606068401E072808D8A2
:104A00002046FEF7C1FDE06E0560D4E91C0141605F
:104A100002E0E566256765676565012084F8350075
:104A20000020BEE610000240100402403F8010FE4D
:104A30000010005C085402580F00FEFF2DE9F84FEB
:104A400004004FF00000009014D094F834000128C6
:104A500012D0012084F8340094F835500020012D44
:104A60000CD04FF40061616584F83400012000909F
:104A7000BDE8F88F0120FBE70220F9E7022584F862
:104A800035506065974D974E964F1835DFF854C2F4
:104A90003036DFF850824837DFF84892DFF844A21A
:104AA00008F16008DFF83CB209F1780920680AF1E2
:104AB000900A0BF1A80B604533D0A84231D0B04228
:104AC0002FD0B8422DD040452BD0484529D0504555
:104AD00027D0584525D0DFF810C2604521D0DFF837
:104AE00008C20CF1180C60451BD0DFF8FCC10CF1BA
:104AF000300C604515D0DFF8F0C10CF1480C604572
:104B00000FD0DFF8E4C10CF1600C604509D0DFF88C
:104B1000D8C10CF1780C604503D0DFF8CCC10CF1A2
:104B2000900CD0F800C02CF0010CC0F800C020465A
:104B3000FEF792FD6B49206888422CD0A8422AD00B
:104B4000B04228D0B84226D0404524D0484522D093
:104B5000504520D058451ED0634A90421BD0624A2F
:104B60001832904217D0604A3032904213D05E4AD9
:104B7000483290420FD05C4A603290420BD05A4A81
:104B80007832904207D0584A9032904203D0564A29
:104B9000A83290420CD1026822F01E0242F01602A6
:104BA0000260206C88B12068026842F008020BE0C5
:104BB000026822F00E0242F00A020260206C20B16C
:104BC0002068026842F004020260206888424BD0EC
:104BD000A84249D0B04247D0B84245D0404543D022
:104BE000484541D050453FD058453DD03E4A90427F
:104BF0003AD03D4A1832904236D03B4A3032904249
:104C000032D0394A483290422ED0374A60329042F0
:104C10002AD0354A7832904226D0334A9032904298
:104C200022D0314AA83290421ED0304A90421BD046
:104C30002E4A1432904217D02C4A2832904213D078
:104C40002A4A3C3290420FD0284A503290420BD030
:104C5000264A6432904207D0244A7832904203D0E8
:104C6000224A8C3290420DD1206E0268D20303D5C5
:104C7000026842F480720260E06E18B1026842F489
:104C8000807202602068884226D0A84224D0B042B8
:104C900022D0B84220D040451ED048451CD05045B7
:104CA0001AD0584518D01049884215D00E491831ED
:104CB000884211D00C49303188420DD00A49483120
:104CC000884209D008496031884205D006497831C8
:104CD000884201D004499031016841F0010101602E
:104CE0000098C5E610000240100402400854025823
:104CF00070B5044600F07AFE0546601C02D00448F8
:104D00000078044400F072FE401BA042FAD370BD4C
:104D1000A000002410B590F89830012B09D0022B88
:104D200007D0D0F89C1041F00201C0F89C1001207F
:104D300010BD03689C6D0C4203D1DC6D44F001048E
:104D400004E09C6D31EA04041ED00324DC658B056D
:104D500005D50368D3F8E0401443C3F8E0404B05A1
:104D600005D50368D3F8E4401443C3F8E440006871
:104D7000426D074B0B401A4342650648026842EAFF
:104D800091710160002010BDDC6D44F00204DDE78C
:104D9000FFFFCF3F14A8004070B5044690F898007C
:104DA000022804D0D4F89C0040F008000DE02068F0
:104DB000D0F8C03013F07C5F0BD0D0F8C4309B0229
:104DC0000CD5D4F89C0040F40070C4F89C0001207D
:104DD00070BDD4F89C0040F02000F6E7D0F8C40085
:104DE000C0F3044520462B46FEF758FE21680120FB
:104DF000A840C1F8D000C4F89400002070BD7047EE
:104E000010B590F89820012A09D0022A07D0D0F8CE
:104E10009C1041F00201C0F89C10012010BD0B68ED
:104E2000CA6883B10B69072A43EA427325D00C7A1A
:104E30004A6942EA84724968006F00EBC100C0E928
:104E40000032002010BD072A0DD00C7AD2064B6923
:104E500043EA84730C8A42EA0442C06E49681343F1
:104E600040F82130EDE70B8A4FF060548A6942EA3E
:104E70000343CA6944EA0222EFE78A69DBE7704725
:104E800070470000F0B590F898500024022D04D02F
:104E9000D0F89C1041F008012EE040294FF0004668
:104EA00005D041292CD0056D8D421CD945E00568FF
:104EB000D5F8A07017F4FE0F15D0D5F8A4707F06B2
:104EC00016D0D5F8A470FF0105D5D5F8A070B6EBC3
:104ED000D77F00D10124D5F8A450466FC5F305252E
:104EE0002C44456C27E0D0F89C1041F0200103E0F1
:104EF000D0F89C1041F48071C0F89C100120F0BDE6
:104F00000568D5F8B07017F4FE0FECD0D5F8B47082
:104F10007F06EDD0D5F8B470FF0105D5D5F8B07097
:104F2000B6EBD77F00D10124D5F8B450866FC5F316
:104F300005252C44C56C654302E0456DC66F4D43A5
:104F400006EB8506356815F080455560356824D038
:104F500025F0604515603568264F05F000559560D1
:104F6000356805F000451561B588ADB2D561756845
:104F700005F47025D560756805F480155561756870
:104F800005F4001595617568C5F3066515627568C9
:104F9000ED0F55620025083607E0C5F38A45D9E7CD
:104FA00016F805C003F805C06D1CD2F80CC007EB5D
:104FB0001C4C9CF800C0AC45F2D8402909D04129CE
:104FC0000BD0012220290CD200688A40C0F898201A
:104FD0000DE00068C0F8A84009E00068C0F8B840DB
:104FE00005E0006801F01F018A40C0F89C20002005
:104FF000F0BD0000C4040308704700002DE9FE4F17
:10500000B34F044638688007391D096800EA817B80
:105010002068016D426D01F470410A400292016DF9
:10502000426D01F00F0102EA010A016D426D01F0CB
:10503000F0010A400192016D426D01F0715102EAE6
:105040000108016D426D01F060710A400092416DEE
:10505000056D4FF00009CE43F10509D4E943C905B8
:1050600006D4B9150165C7F800902046FFF7C4FFC4
:10507000700510D4E84340050DD42068D0F8DC203A
:10508000D0F8E41011404FF480620265C7F8009038
:10509000204600F0D1FABBF1000F0BD08D490BEA8E
:1050A0000100216808654FEA9B7038605946204628
:1050B000FFF7A5FE029850B18649084021680865AF
:1050C0000298800F38600299204600F0B7FABAF1D2
:1050D000000F0BD07F490AEA0100216808654FEAFA
:1050E0009A7038605146204600F07CFA019850B121
:1050F00078490840216808650198800F3860019957
:10510000204600F079FA30050BD4E843000508D4B6
:1051100021684FF400600865C7F80090204600F051
:105120008EFAB00510D4E84380050DD42068D0F87D
:10513000D820D0F8E01011404FF400720265C7F893
:105140000090204600F079FA30030BD4E8430003C6
:1051500008D421684FF400200865C7F80090204665
:1051600000F03EFAF0030BD4E843C00308D42168F2
:105170004FF480300865C7F80090204600F05BFAD5
:1051800070030BD4E843400308D421684FF4802017
:105190000865C7F80090204600F04CFAB0030ED422
:1051A000E84380030BD421684FF400300865C7F84A
:1051B0000090D4F89C0040F08000C4F89C00009857
:1051C00050B144490840216808650098800F386054
:1051D00000992046FFF754FEB8F1000F0DD03D496D
:1051E00008EA0100216808654FEA98703860D4F831
:1051F0009C0040EA0800C4F89C00374920688842B7
:105200005CD160688168890758D0016A01F00F029B
:10521000416A1140026A476A02F0300207EA020757
:10522000026A436A02F4C07203EA0208026A456A2B
:1052300002F4FC4205EA0205026A466A02F4F02220
:10524000D0F8249006EA0206D0F820A003D001622C
:10525000204600F0ECF92FB160680762394620461D
:1052600000F0E7F96FEA090040060ED46FEA0A0081
:1052700040060AD46068C16BC26B090C402303620C
:1052800002F03F02204600F0D3F9B8F1000005D04B
:10529000616808624146204600F0C8F935B160688F
:1052A0000562D4F89C002843C4F89C0036B16068BD
:1052B0000662D4F89C003043C4F89C00D4F89C00EB
:1052C000002802D02046FFF7DAFDBDE8FE8F00007F
:1052D00010A80040FFFFCF3F00A000402DE9F041A3
:1052E00094B08D494C2204466846FBF772FD64B1C8
:1052F0008A4E2068B04202D100F58070606094F858
:1053000098004FF0000820B108E0012014B0BDE87B
:10531000F081204684F8998000F002F920688169C4
:1053200021F01001816100F061FB0327054604E0D4
:1053300000F05CFB401B0A2811D820688069000738
:10534000F6D42068816941F00101816100F04EFBD3
:1053500005460DE000F04AFB401B0A2808D9D4F8A6
:105360009C0040F00100C4F89C0084F89870CCE7E1
:1053700020688069C007EDD02068816941F0020192
:105380008161207C01282068816937D041F040018B
:105390008161607C01282068816932D021F48041DC
:1053A0008161A07C0128206881692DD041F4805161
:1053B000816120688169A26821F440711143816193
:1053C0002068816921F0A40181612068016921F0D0
:1053D00010010161E068012819D010B302281BD028
:1053E0002068816941F0800181612068016941F094
:1053F00010010161E06803280ED012E021F04001A5
:10540000C6E741F48041CBE721F48051D0E7206822
:10541000816941F0040103E02068816941F02001C5
:105420008161207E6FF0FF02E169A38A400602EBF2
:105430000121A0F100700843216A491E08431102AE
:1054400001EB034318432368D861A068B0F5407F9F
:1054500010D1D4E90A03401E02EB03221043226B51
:105460000B1303EB02121043A28C01EB0241084321
:105470002168C860206E30B12068D0F8C010626E1C
:105480001143C0F8C010D4E91701C842694609D0D9
:10549000206850F8C82FA36E22F0070251F823307D
:1054A0001A430260206C48B1206850F8BC2F636C2E
:1054B00022F0070251F823301A430260A06C50B169
:1054C000206850F8BC2FE36C22F0700251F82330B2
:1054D00042EA03120260206D50B1206850F8BC2FE0
:1054E000636D22F4E06251F8231042EA0121016069
:1054F0002068B04204D16068816821F003018160B6
:10550000C4F89480C4F89C80012084F89800204658
:10551000FEF7E4F9FAE60000D404030800A0004016
:1055200030B5B7B00446142130A8FBF7AEFCC0215B
:105530006846FBF7AAFC27492068884247D100212A
:105540004FF400400C460225CDE9000114200290E2
:10555000C020CDE903050520059028070891CDE975
:10556000065109911C90684601F0FEF908B1FEF75A
:1055700084F91948016841F480710160006800F401
:105580008070359014480C38016841F008010160C2
:10559000006830A900F0080035900320CDE93005FF
:1055A000CDE93240092034900C4800F019F900226E
:1055B0000521132000F0BCFA132000F0ABFA002202
:1055C0000521152000F0B4FA152000F0A3FA37B039
:1055D00030BD000000A00040EC440258000C02580E
:1055E00070470000C90704D000680249884200D112
:1055F00000BF704700A00040704790F89810012944
:1056000007D0D0F89C1041F00401C0F89C10012094
:105610007047022180F8981001688A6922F001021F
:105620008A610021C0F89C10084670477047704797
:1056300070477047704770477047704770477047B2
:105640002DE9F05F04462E480F460026017D012912
:1056500011D00121017580464FF0000AC0F818A052
:105660004CF2503B2079C00708D05846FEF7A6FA06
:1056700020B101263FE00220BDE8F09F2068DFF85E
:105680008490012806D04FF0FF303860A56840F2C2
:10569000047B2BE061682069FEF77EFA2079C00761
:1056A00029D001215846FEF789FA00B10126D9F820
:1056B0000C1021F00801C9F80C101CE022692846E2
:1056C0006168FEF757FA2079C0070BD001214CF230
:1056D0005030FEF773FAD9F80C10064621EA0B0198
:1056E000C9F80C100EB13D6005E06D1CD4E9021044
:1056F0000844A842E2D8304688F814A0BCE700006D
:1057000050220024002000520548C16841F00101E8
:10571000C160C068C00701D00020704701207047F9
:10572000002000522DE9F05F204F082615460C4658
:10573000387D012813D001203875A4F10061B1F53E
:10574000003F0DD282464FF00009C7F818904CF286
:10575000503B51465846FEF731FA18B122E002207C
:10576000BDE8F09FDFF84880D8F80C1041F0020146
:10577000C8F80C10BFF36F8FBFF34F8F01CD01C47A
:10578000761E16F0FF06F9D1BFF36F8FBFF34F8F70
:1057900051465846FEF712FAD8F80C2022F00202C1
:1057A000C8F80C2087F81490DAE700005022002493
:1057B000002000520748C168C90708D00649416067
:1057C00006494160C068C00701D001207047002031
:1057D000704700000020005223016745AB89EFCDE0
:1057E0002DE9F84F694C00224FF0B04A4FF0010B01
:1057F0004FF003084FF00F09C0E00BFA02F63340F8
:1058000073D00D7905F00305012D01D0022D15D1BE
:105810008768550008FA05FC27EA0C07D1F80CC088
:105820000CFA05FC4CEA070CC0F808C04568B54303
:105830000E79C6F3001696402E4346600D79ED436F
:10584000AD0708D0C668550008FA05F7BE438F6853
:10585000AF403743C7600D7905F00305022D11D124
:10586000D50800EB85073E6A5507ED0E09FA05FCE1
:1058700026EA0C06D1F810C00CFA05FC4CEA060C1E
:10588000C7F820C00668550008FA05F7BE430F792F
:1058900007F00307AF40374307604D6815F4403FFA
:1058A0006BD03B4D2E6846F002062E602D6822F02C
:1058B000030606F1B04605F002050095D6F8087417
:1058C00095074FEA157C09FA0CF5AF43314DA84214
:1058D00001D100252EE0304DA84201D1012529E05B
:1058E0002E4DA84202D1022524E046E02C4DA842CC
:1058F00001D103251EE02B4DA84201D1042519E05A
:10590000294DA84201D1052514E0284DA84201D116
:1059100006250FE0264DA84201D107250AE0254DB6
:10592000A84201D1082505E0234DA84201D109254F
:1059300000E00A2505FA0CF53D43C6F80854DAF8EC
:10594000005056464F689D43FF0200D51D43356009
:1059500075684F689D43BF0200D51D43756065683B
:105960004E689D43B60300D51D43656025684E68AB
:105970009D43F60300D51D432560521C0B6833FA86
:1059800002F57FF43AAFBDE8F88F000080000058C0
:10599000F44402580000025800040258000802585B
:1059A000000C025800100258001402580018025847
:1059B000001C0258002002580024025800690840C8
:1059C00000D001207047426921EA02030A4043EAFD
:1059D0000241816170470AB1816170470904FBE7A8
:1059E00001480068000C70470010005C01488068A6
:1059F00070470000A000002402488168027811442A
:105A000081607047A0000024032010B500F0B0F8BA
:105A100001F02CFE0F4A11681268C1F303230E49EE
:105A2000CB5C03F01F03D84002F00F02895C0B4AE5
:105A300001F01F0120FA01F11160094908600F20EF
:105A400000F010F808B1012010BD00F051F800205E
:105A500010BD00001844025848050308B000002497
:105A6000AC00002410B5102804468AB02DD20022C4
:105A700001461C2000F05CF81C2000F04BF8184890
:105A800004601848016841F001010160006809A93B
:105A900000F001000890684601F072FD0598B8B169
:105AA00001F0C0FD400010494FF08042B0FBF1F121
:105AB0000E48026040F2E732491E41600021C0E911
:105AC0000321816002F062FD28B101200AB010BDFF
:105AD00001F0A8FDE7E7054802F08AFDF6E70000BF
