:020000040800F2
:10000000F8970024E50400085F6F0008196D0008E8
:100010005D6F0008F532000831980008000000000C
:10002000000000000000000000000000250400089F
:10003000E53500080000000081040008077400088E
:10004000FF040008FF040008FF040008FF04000884
:10005000FF040008FF040008FF040008FF04000874
:10006000FF040008FF040008FF040008C133000873
:10007000FF040008FF040008FF040008FF04000854
:10008000FF040008FF040008FF040008FF04000844
:10009000FF040008FF040008FF040008FF04000834
:1000A000FF040008FF040008FF040008FF04000824
:1000B000A5750008FF040008FF040008FF040008FD
:1000C000FF040008FF040008FF040008FF04000804
:1000D000FF040008FF040008FF040008FF040008F4
:1000E000FF040008FF04000800000000FF040008EF
:1000F000FF040008FF040008FF040008FF040008D4
:10010000FF040008FF040008FF040008FF040008C3
:10011000FF040008FF040008FF040008FF040008B3
:10012000FF040008FF040008FF040008FF040008A3
:10013000FF040008FF040008FF040008FF04000893
:1001400000000000000000000000000000000000AF
:10015000FF040008FF040008FF040008FF04000873
:10016000FF040008FF040008FF040008FF04000863
:10017000FF040008FF040008FF040008FF04000853
:10018000FF040008FF040008FF040008FF04000843
:10019000FF040008FF040008FF040008FF04000833
:1001A000FF040008FF040008FF040008FF04000823
:1001B000FF040008FF040008FF040008FF04000813
:1001C000FF040008FF040008FF040008FF04000803
:1001D000FF040008616F0008FF040008FF04000826
:1001E000FF040008FF040008FF040008FF040008E3
:1001F000FF040008FF040008FF040008FF040008D3
:10020000FF040008FF040008FF040008FF040008C2
:10021000FF040008FF040008FF040008FF040008B2
:10022000FF040008FF040008FF04000800000000AD
:10023000FF040008FF04000800000000FF0400089D
:10024000FF040008FF040008FF040008FF04000882
:10025000FF040008FF040008FF040008FF04000872
:10026000FF040008FF040008FF040008FF04000862
:10027000FF040008FF040008FF040008000000005D
:10028000FF040008FF040008FF040008000000004D
:1002900000000000FF04000800F002F800F0B2F8CF
:1002A0000AA090E8000C82448344AAF10107DA45D1
:1002B00001D100F0A7F8AFF2090EBAE80F0013F071
:1002C000010F18BFFB1A43F00103184798BF000045
:1002D000B8BF00000A444FF0000C10F8013B13F0C7
:1002E000070408BF10F8014B1D1108BF10F8015B8F
:1002F000641E05D010F8016B641E01F8016BF9D182
:1003000013F0080F1EBF10F8014BAD1C0C1B09D1D8
:100310006D1E58BF01F801CBFAD505E014F8016B4A
:1003200001F8016B6D1EF9D59142D6D370470000DC
:100330000023002400250026103A28BF78C1FBD8EE
:10034000520728BF30C148BF0B6070476E2900F0CC
:100350007086702900F0C98766290BF02D86652903
:100360000BF02A8667290BF0278661290BF0268679
:1003700003681B0A28BF41F08001692900F0C2818F
:10038000642900F0BF81752900F0BC816F2900F05D
:100390005687782900F09587E92900F0F186E4294D
:1003A00000F0EE86F52900F0EB86EF2900F0538788
:1003B000F82900F094870368DB0928BF41F0800129
:1003C000632900F07286732900F07786E32901F033
:1003D0004586F32901F04A86002070471FB50BF0CF
:1003E000E3FD01F04DFA0400002000210BF0BEFDFA
:1003F000401C6060002000210BF0A2FDE0601FBDEA
:1004000010B510BD02F086F81146FFF7E7FF09F0BE
:10041000F9FE02F017FB03B4FFF7F2FF03BC02F092
:100420002DFB00002C4B19680868B0E8F04F80F3F2
:100430000988BFF36F8F4FF0000080F31188704779
:100440000000000008480068006880F308884FF04A
:10045000000080F3148862B661B6BFF34F8FBFF31C
:100460006F8F00DF00BF00BF08ED00E0DFF80C0079
:10047000016841F470010160704700BF88ED00E041
:10048000EFF30980BFF36F8F134B1A681EF0100F44
:1004900008BF20ED108A20E9F04F106009B44FF03A
:1004A000500080F31188BFF34F8FBFF36F8F0BF0B5
:1004B00011F84FF0000080F3118809BC1968086832
:1004C000B0E8F04F1EF0100F08BFB0EC108A80F3B8
:1004D0000988BFF36F8F7047A4000024EFF30580F5
:1004E000704700000948804709480047FEE7FEE7DB
:1004F000FEE7FEE7FEE7FEE7FEE7FEE7FEE7FEE7D4
:1005000004480549054A064B70470000C9740008B5
:1005100099020008F8910024F8970024F893002429
:10052000F893002453EA020C00F069802DE9F04BA7
:100530004FF00006002B1FBFB3FA83F503FA05F452
:1005400024FA05F65E4012BF1643B2FA82F502FAAB
:1005500005F4C5F120051EBF22FA05FC44EA0C048F
:10056000203556EA044C4FEA144418BF641C4FF07F
:1005700000084FF00009904271EB030C39D30029B9
:1005800019BFB1FA81F701FA07F6B0FA80F700FA5D
:1005900007F6C7F120071EBF20FA07FC46EA0C0643
:1005A0002037B6FBF4FCA7EB0507103F07F01F0B45
:1005B000CBF120060CFA0BFB2CFA06F644BFB3462F
:1005C0000026202FA4BF5E464FF0000B5BEA060C0E
:1005D00008BF4FF0010B19EB0B09ABFB027C48EB9A
:1005E0000608C01B06FB02CC0BFB03CC71EB0C0115
:1005F000C1E70B46024641464846BDE8F08B13B5BD
:100600004FF000004FF00001AFF30080BDE81C4048
:10061000704700001CB50C46064B7B4469460090B1
:10062000204600F020FD04460020694600F02EFD23
:1006300020461CBD6F0A00000FB41CB5084B06AA6B
:100640007B4469460090059800F00DFD04460020AB
:10065000694600F01BFD20461CBC5DF814FB000041
:10066000490A000070B5044685690068C10601D5D5
:10067000302600E02026C00707D070BDD4E9012154
:1006800030469047206A401C20626D1EF6D570BD32
:1006900070B5044685690078C00707D170BDD4E9FC
:1006A000012120209047206A401C20626D1EF6D553
:1006B00070BD70B50C460546012A05D02878800625
:1006C00000D5EA69002302E0012305E05B1C9342A8
:1006D00002D2E05C0028F9D1A869E618C01AA86126
:1006E000286A184428622846FFF7BCFF04E0D5E9D1
:1006F000012114F8010B9047B442F8D32846FFF7C4
:10070000C7FF70BD2DE9F041064600241068752929
:10071000314616A510D000F021FC002802DA404234
:1007200013A507E031688A0701D512A502E0490741
:1007300004D511A5012401E000F019FC00210A22D2
:1007400006F1240709E0B0FBF2FCB0FBF2F302FB78
:100750001C00303078541846491C0028F3D1234639
:100760002A463046BDE8F04100F00ABC0000000017
:100770002D0000002B000000200000002DE9F05F9C
:10078000894604464FF0000ADFF874B1FB44C0F814
:1007900020A02046E1688847002874D0252806D08C
:1007A000D4E901219047206A401C2062F1E700262D
:1007B0005F462046E16888472028054607DB312D43
:1007C00005D2781910F8200C08B10643F1E7B007FC
:1007D00001D526F00406C4F81CA00027C4F818A010
:1007E0002A2D09D0284609F03FF938B304EB8708D1
:1007F000303DC8F8185019E059F8041B204604EBA6
:1008000087029161E1688847012F054618D1E069A8
:10081000002820DA26F020061DE0D8F8180000EBAA
:10082000800005EB40003038C8F818002046E16829
:100830008847054609F018F90028EED1012F0AD0A3
:100840002E2D08D12046E16888477F1C0546022FDF
:1008500046F02006C4DBA069002803DA404246F0D7
:100860000106A061F00701D026F010066C2D0BD018
:10087000682D09D04C2D39D06A2D35D0742D35D046
:100880007A2D33D016E038E0E1682F4620468847BD
:10089000B842054609D16C2F26D04FF48060E1683C
:1008A000064320468847054604E06C2F1AD04FF4D3
:1008B000807006430DB3A5F14100192802D82035F8
:1008C00046F400664A462946204626604E46FFF713
:1008D0003DFD80B101280BD0F61D26F0070000F188
:1008E000080956E74020E4E78020D8E70020D6E753
:1008F00006F104094DE7284652E7206ABDE8F09F5B
:10090000B4B900000FB400B58DB010A909900091E2
:100910000B904FF0FF300A9000200C90064878446E
:100920000690064878446A4607900F9909A800F097
:1009300077FF0DB05DF814FB1F0F0000370F0000AC
:100940002DE9FF4F1C4691464FF0FF3581B0002145
:100950008A468846D4E90167A16902986D1C8847D8
:10096000216A834688470028F6D1BBF1FF3F0CD0AF
:10097000002F26F4C0661ADD700615D5BBF12B0FCB
:100980000AD0BBF12D0F0FD104E04FF0FF3005B0BE
:10099000BDE8F08F46F48066A16902986D1C884717
:1009A0007F1E8346002F02DDBBF1300F03D0B9F16B
:1009B000000F2AD025E0A1696D1C02987F1E46F425
:1009C00000768847002F834605DDBBF1780F06D0FF
:1009D000BBF1580F03D0B9F1000F10D011E0B9F1FD
:1009E000000F02D0B9F1100F0BD1A1696D1C029854
:1009F0007F1E26F4007688478346102000E00820FA
:100A000081464FEAE970009017E00A20F8E7434674
:100A1000AAFB0928DDF800C07F1E03FB098046F40D
:100A2000007605F101050AFB0C0112EB0B0A029896
:100A300041EBEB78A16988478346002F06DD4946E4
:100A4000584600F05DFC5FEA000BE0D5E1690298D2
:100A50008847B00502D46FF0010098E7F00718D17D
:100A6000700610D55146700505D50023D1EB030162
:100A700063EB080200E042462068031D2360006823
:100A8000C0E9001205E02068011D21600068C0E98E
:100A900000A828467BE72DE9FF5F1D464FF0FF3B8E
:100AA00091464FF000085F46D5E90146A9690198D3
:100AB0007F1C8847296A824688470028F6D1BAF108
:100AC000FF3F0CD0002E24F4C06419DD600614D55D
:100AD000BAF12B0F09D0BAF12D0F0ED103E0584611
:100AE00004B0BDE8F09F44F48064A96901987F1CBC
:100AF0008847761E8246002E02DDBAF1300F03D001
:100B0000B9F1000F26D032E0A969761E01987F1C4A
:100B100044F400748847002E824605DDBAF1780F50
:100B200006D0BAF1580F03D0B9F1000F10D01EE073
:100B3000B9F1000F02D0B9F1100F18D1A969761ED2
:100B400001987F1C24F4007488478246102002E03C
:100B5000082000E00A20814609E0A96908FB09088D
:100B6000761E01987F1C44F4007488478246002E4C
:100B700005DD4946504600F0C3FB0028EDDAE9697F
:100B800001988847A00502D46FF00100A8E7E007AC
:100B900025D1600613D5600502D5C8F1000000E03C
:100BA000404629680A1D2A600968220501D5087097
:100BB00015E0220701D5088011E008600FE02868E1
:100BC000011D29600068210502D580F8008006E03B
:100BD000210702D5A0F8008001E0C0F80080384667
:100BE0007EE72DE9FF5F4FF0000899461446464620
:100BF0009169D2E901A7DDF838B001988847054628
:100C000059EA0B0005D009E0A1690198761C8847D4
:100C10000546216A284688470028F5D1681C03D07C
:100C20005FEACA7005D015E04FF0FF3004B0BDE8B0
:100C3000F09F2068011D2160D0F800800AE05FEA83
:100C4000CA7001D108F8015BA169761C01987F1E6A
:100C500088470546002F1ADD681C18D0B9F1000F2F
:100C60000DD0E81705EBD060421120F01F0059F8B5
:100C700022102A1A012090400142E0D107E0BBF186
:100C8000000FDCD12846216A88470028D7D0E169C7
:100C900001988847BBF1000F07D1002E05DD5FEA00
:100CA000CA7002D1002188F80010A068B84203DDA4
:100CB000BBF1000F03D017B16FF00100B6E730466B
:100CC000B4E740EA0103024630B59B0710D14FF06C
:100CD000013400E008C208C91D1B9D4315EAC41F6A
:100CE000F8D013F0FF0102F8011B0DD01B0AF8E742
:100CF00011F8013B002B02F8013B05D011F8013B34
:100D0000002B02F8013BF3D130BD10B5431C02E0CB
:100D100010F8011B71B18107FAD14FF0013202C8FE
:100D20008C1A8C4314EAC211F9D0C01A0A0603D0F7
:100D3000C01E10BDC01A10BD0A0401D0801E10BD17
:100D40000902FCD0401E10BD032A40F2308010F092
:100D5000030C00F0158011F8013BBCF1020F624456
:100D600098BF11F801CB00F8013B38BF11F8013BE7
:100D7000A2F1040298BF00F801CB38BF00F8013B94
:100D800011F0030300F02580083AC0F0088051F804
:100D9000043B083A51F804CBA0E80810F5E7121D0F
:100DA0005CBF51F8043B40F8043BAFF30080D2072E
:100DB00024BF11F8013B11F801CB48BF11F8012BFA
:100DC00024BF00F8013B00F801CB48BF00F8012B1D
:100DD000704710B5203AC0F00B80B1E81850203AA7
:100DE000A0E81850B1E81850A0E81850BFF4F5AFCB
:100DF0005FEA027C24BFB1E81850A0E8185044BF55
:100E000018C918C0BDE810405FEA827C24BF51F8C1
:100E1000043B40F8043B08BF7047D20728BF31F8B5
:100E2000023B48BF11F8012B28BF20F8023B48BF06
:100E300000F8012B704702F0FF0343EA032242EA65
:100E4000024200F002B84FF000020429C0F0128004
:100E500010F0030C00F01B80CCF1040CBCF1020F6D
:100E600018BF00F8012BA8BF20F8022BA1EB0C0142
:100E700000F00DB85FEAC17C24BF00F8012B00F838
:100E8000012B48BF00F8012B70474FF0000200B55E
:100E9000134694469646203922BFA0E80C50A0E89D
:100EA0000C50B1F12001BFF4F7AF090728BFA0E84B
:100EB0000C5048BF0CC05DF804EB890028BF40F817
:100EC000042B08BF704748BF20F8022B11F0804F59
:100ED00018BF00F8012B70474FF0013C50F8042B6D
:100EE00051F8043B9A4215D1A2EB0C03934313EA49
:100EF000CC130BD150F8042B51F8043B9A4209D182
:100F0000A2EB0C03934313EACC13E7D04FF000009D
:100F1000704700BFD01A01BAB1FA81F101F018018F
:100F200022FA01F0CB40C1F12001DBB2C0B2C01AFD
:100F30002CFA01F3D11A914311EAC311E6D170479B
:100F400070477047704710B500F09EFC006810BDF8
:100F500010B5044600F098FC046010BD09684A050D
:100F600001D540B27047C905FCD500B27047096889
:100F70004A0501D5C0B27047C905FCD580B270479B
:100F80002DE9F0470D4699469246044600F12408A3
:100F90000168880604D5E06921F01001216000E0B5
:100FA0000120A84201DD471B00E00027A1697A1952
:100FB00002EB0900081AA0612078C00602D420467E
:100FC000FFF750FB002608E0D4E901211AF80600DB
:100FD0009047206A401C761C20624E45F4DB207846
:100FE000C0060AD52046FFF73DFB06E0D4E9012103
:100FF00030209047206A401C2062381EA7F101076C
:10100000F4DC07E0D4E9012118F805009047206AD4
:10101000401C2062281EA5F10105F3DC2046FFF7E5
:1010200037FB2078000602D50220BDE8F0870120BA
:10103000FBE711680268006A530501D508700AE0F1
:10104000D30501D5088006E0130603D5C217C1E910
:10105000000200E0086001207047000001694A1C9E
:1010600002610878704700B58FB0CDE901310021E9
:10107000059105497944CDE9031011466846FFF70B
:101080007DFB0FB000BD0000E5FFFFFF0A6802F81E
:10109000010B0A60704710B5436913B1AFF30080CC
:1010A00001E0FFF706FB012010BD127800F12401DA
:1010B0000A7000224A700122EDE711684FF0FF32FA
:1010C000E9E700002DE9FF5F15468A460446DFF890
:1010D000AC80F8440027D8E900103E46CDE9001066
:1010E00010E03AF816106A4602A801F0EFF9411C28
:1010F00007D02178890603D5E269391891420DD8C5
:101100000744761C2078800602D5E069B84205DDE8
:10111000AE42E6DB3AF816000028E2D1A069C01B17
:10112000A0612046FFF79EFAD8E90010CDE9001033
:10113000002017E03AF818106A4602A801F0C6F934
:10114000B0F1FF3F81460BD000250DF1080B05E003
:10115000D4E901211BF8050090476D1C4D45F7D3DC
:1011600008F10100B0428046E4DB206A3844206286
:101170002046FFF78DFABDE8FF9F000082B0000017
:101180002DE9F0418046D21D22F007020025D2E968
:101190000002F52915A614D0011E72F1000106DA2D
:1011A0000023D0EB030063EB020211A608E0D8F89D
:1011B00000108B0701D50FA602E0490701D50EA646
:1011C00001251146002408F1240704E000F060FB2B
:1011D00030323A55641C50EA0102F7D12B463246B0
:1011E00021464046BDE8F041FFF7CABE00000000BE
:1011F0002D0000002B0000002000000030B4002172
:1012000000F1240408E002F00705D208303542EA74
:101210004372DB086554491C52EA0305F3D10468A4
:10122000002310A2250707D5A40600D421B1C46964
:1012300001230DA2641EC46130BCFFF7A1BE10B52E
:10124000044621461068FFF792FE02462046BDE89C
:1012500010400023D2E7D21D22F00701D1E900237C
:10126000CCE700000000000030000000F0B40D46A4
:101270000188090502D5214C7C4402E01F4C7C44C6
:101280000E34002100F1240608E002F00F071209D5
:10129000E75D42EA03721B097754491C52EA0307CF
:1012A000F3D102780023120704D5702D06D009B1BE
:1012B000022311342246F0BCFFF762BE0123103432
:1012C000F8E770B504460D4621461068FFF74FFE5B
:1012D000024629462046BDE870400023C6E7D21DDD
:1012E00022F00703D3E90023C0E70368126843F044
:1012F000200303600823C3610023B7E7E4AE0000C6
:101300003A2800D2303820F02002412A01D3A2F13D
:101310003700884201D34FF0FF3070472DE9FF4F6F
:1013200006468BB00878FF2806D0491C2D2805D02A
:1013300000244FF0000908E000200CE00124F8E749
:1013400009EB8903491C00EB43090878FF28F7D112
:1013500014B1C9F100008146107800252C46AA4638
:1013600029462D2801D02B2804D1521C2D2813D01A
:10137000002082468B461078FF280FD04FF0000CDB
:101380000A21521CA5FB017804FB018105FB0C110D
:10139000C5194BEB0104EEE70120EAE700210846FE
:1013A0004FF00000BAF1000F02D000EB80004008BF
:1013B000C0F38157012F01DD4FF0FF370E9955EA39
:1013C000040009EB01080BD04FF0020918F5FA7F71
:1013D00016DA4FEACA70002F706008DD012007E0BE
:1013E0004FEACA70C6E900B00FB0BDE8F08F002028
:1013F000306000F049FAC0F800901821084616E065
:10140000B8F5FA7F18DD002F02DAF748784401E0DA
:10141000F6487844D0E90010C6E9001040EACA70E6
:10142000706000F031FAC0F80090142108460FB047
:10143000BDE8F04F0AF0BDBD002108464FF00000A6
:10144000B8F10001099002DAC7F1000200E03A4663
:1014500001DAC8F1000106A800F0C6FF06AB93E868
:10146000070003AB83E8070044F23E005BEA040197
:101470000090584604D144F21E012C465D4600916E
:10148000210C0904014306D10099240444EA1544BF
:101490002D041039009104F07F41014306D10099D9
:1014A000240244EA15642D020839009104F07041C9
:1014B000014306D10099240144EA15742D01091F46
:1014C000009104F04041014306D10099A40044EA90
:1014D0009574AD00891E009104F00041084304D1C9
:1014E00000986D196441401E00904FF001033A4688
:1014F0006846B8F1000FCDE9014503A902DD01F00E
:10150000C2FD01E001F095FDBAF1000F04460D4661
:1015100001D084F00044002108464FF000000999F2
:1015200040F2FF77484010F00C0F07D124F0004044
:10153000284303D0C4F30A50B84212D100F0A4F9F2
:10154000C0F80090C4F30A50B8420AD1A8487844C1
:10155000D0E90010C6E9001004F0004108437060B3
:1015600042E7C6E900543FE72DE9FF4F1F464FF021
:10157000000A4FF0FF38454691B0D7E90146CDF853
:101580003CA000F07DF9C0680168405C1090B9692A
:1015900012986D1C8847396A814688470028F6D121
:1015A000B9F1FF3F0AD0002E24F4D06411DDB9F167
:1015B0002B0F08D0B9F12D0F0BD102E0404615B02A
:1015C00013E744F48064B96912986D1C8847761E4D
:1015D0008146600504A901D52D2000E02B20002EB6
:1015E00001F1010B0DF130088DF810003FDDB9F16C
:1015F000690F08D0B9F1490F05D0B9F16E0F02D0CB
:10160000B9F14E0F1CD13B4601A8009580E850026D
:10161000DDE912126FF002000AF036FDC11CCED1D6
:101620000EE0B96912986D1C884781461398761EA2
:1016300044F4007405600F98401C002E0F9016DDD6
:10164000B9F1300FEDD0B9F1780F02D0B9F1580FE0
:101650000DD10F9801280AD13B46CDE90054DDE9B0
:101660001212001F02960AF00DFDC11CA7D110999D
:1016700089453ED144F0800406E01399681CAAF124
:10168000010A44F400740860B9696D1C1298761E52
:10169000884730288146F0D02BE01099894505D144
:1016A000200603D4761E44F0800418E0484608F073
:1016B000DBF908B3761E0DF123018B4544F4007469
:1016C00008D2A9F130000BF8010B200607D5AAF1CA
:1016D000010003E0200602D40AF101008246A005C1
:1016E00002D51399681C0860B96912986D1C884767
:1016F0008146002ED1DC53E0002E51DDB9F1650F9B
:1017000002D0B9F1450F4BD1A00549D5B9696D1C7F
:101710001298761E24F440748847002E81460CDD12
:101720002B2804D0B9F12D0F07D144F48074B96986
:1017300012986D1C8847761E8146E00501D52D2143
:1017400000E02B2108F8011BCDF8008021E0761E77
:101750000DF13901884544F400740CD2A9F1300030
:1017600010F0FF0088F8000002D10099884509D9DF
:1017700008F1010806E0E00501D51E4801E042F24B
:101780000F708246B96912986D1C8847814613987C
:101790000560002E04DD484608F066F90028D6D121
:1017A000F96912988847FF2053468BF8000088F8A3
:1017B000000000200A900B9004AA0CA90AA8FFF7C9
:1017C000ADFDA00502D46FF00100F8E614F0240F7F
:1017D00012D0E0071CD13868DDE90A12031D3B6016
:1017E0000068C0E9001213E07CAE00006EAE00009D
:1017F00032AD0000F1D8FFFF0AA9684608F0CCF826
:10180000E00705D13868009A011D39600068026060
:101810002846D4E6026811441378016018467047E0
:10182000D16005497944516104497944116200212C
:101830001161114600F01EBCEDFFFFFFED0000003E
:10184000426842B1016811F8013B23B1521EC0E960
:101850000012184670470121C160881E7047426817
:101860005AB1C368016843B983688B4205D0491EE9
:10187000521CC0E90012002070474FF0FF30704743
:1018800000487047B89100240048704798910024A0
:1018900030B5B0F10A024FEA900E71F100034EEA42
:1018A000817EB0EB0E0061EB91014FEA101E4EEA13
:1018B000017E10EB0E0041EB11114FEA102E4EEAA3
:1018C000016E10EB0E0041EB11214FEA104E4EEA73
:1018D000014E10EB0E0041EB1141401841F10001A7
:1018E0004FEAD00040EA41704FEAD10110EB800589
:1018F0004FEA810444EA907444EB01046D1944EB0F
:101900000404521BA3414FF0000348BF0A3200D524
:1019100030BD401C41F1000130BD10B5044600F05F
:101920001FFE0068005D00F0010010BD70472DE94A
:10193000FF4F0C461E464FF0FF378BB0D2E9000137
:10194000DDF860800A908A46C1F30A5505B93D4624
:10195000002108464FF00000BAF1000F00F44000EB
:1019600005DA00EB80004FF4400101EA50004FEA35
:101970009059B9F1010F00DDB9460A9850EA4A00C2
:101980000ED044F61050A5F2FF3545432F14B8F1A0
:10199000000F1ED07542291E1EDDC9F100021CE099
:1019A000B8F1010F4FF0000001D0302103E0F24305
:1019B00005E02154401CB042FBDB304600220021F0
:1019C00021540B99C1F80880C1E900200FB0BDE88F
:1019D000F08FBD1B6D1CDEE74A4600DA694206A89F
:1019E00000F002FD06AB93E8070003AB83E80700B5
:1019F00050460A9901F049F88DE80700A0F500501B
:101A00001F3800900398002D0ADD42F21F014A465C
:101A10000844002303A90390684601F0F5FA09E0A1
:101A2000A0F500504A461F38002303A903906846DA
:101A300001F014FB8DE807000004000C03D04FF008
:101A4000FF30410800E01046B8F1000F03D000223B
:101A5000009215461EE0751E05D4FFF719FF3032BF
:101A600062556D1EF9D5B3460122084302D000220B
:101A70007F1C04E02078302801D100227F1E002A3C
:101A8000099784D01DE0112D07DAFFF701FF3032EE
:101A900062556D1C50EA0102F5D1084302D000984E
:101AA000C8B10EE00021681E05E0235C625C63544F
:101AB0002254401E491C8142F7DBAB46A81B401E46
:101AC0000990002004F80B000B98099AC0F80880D0
:101AD000C0E9002B7AE711264FF0000857E72DE9FF
:101AE000F04F88460446D21D22F0070191B0D1E99B
:101AF0000001CDE90A0107F09CFE02460B98C00FD9
:101B000001D02D2007E02068810701D52B2002E0BD
:101B1000202101EAC000032A099001D0072A05DB31
:101B200003464146204600F023FD0BE12078800665
:101B300001D5E06900E00620B8F1650F814606D0C6
:101B4000B8F1660F18D0B8F1670F70D131E00020FE
:101B5000B9F1110F009001DB112301E009F101033C
:101B60000AAA01A90CA8FFF7E2FEDDE90C70002625
:101B700009F10105834647E001204B4600904FF0F4
:101B800000470AAA01A90CA8FFF7D1FEDDE90DB0B4
:101B90000C995D46002610B909F101000D18B9EB4A
:101BA000050003D4C0F1FF3609F10105A5EB0900DA
:101BB0002BE0B9F1010F01DA4FF001090020B9F172
:101BC000110F0090484601DD112300E003460AAAE8
:101BD00001A90CA8FFF7ABFEDDE90C704D4600260D
:101BE0008346207800070AD4AB4500DA5D4601A899
:101BF000012D04DD411911F8011C302907D04F4592
:101C000002DA17F1040F04DA012082460FE06D1E9C
:101C1000EEE7002F02DCED1B3E4403E0781CA842F7
:101C200000DD7D1CB81B00F1010A4FF00047207851
:101C3000000703D4AA4501DB4FF0FF3A0021B7F1BA
:101C4000004F0DF143088DF8431024D002202B23C0
:101C5000002F01DA7F422D230A21021EA0F101008C
:101C600000DC5FB197FBF1FC97FBF1F201FB1C7C00
:101C700017460CF1300C08F801CDEEE7A8F1010091
:101C800003702188090501D5452100E06521A0F1F7
:101C9000010800F8011C09980FA9A1EB0807FF1D16
:101CA00000B10120411901EBEA70A1693844081A1A
:101CB000401EA0612078C00602D42046FEF7D2FC68
:101CC000099828B1D4E901219047206A401C20627C
:101CD0002078C00622D52046FEF7C4FC1EE0002E68
:101CE00004DBB34502DD01A8805D00E03020D4E9CB
:101CF00001219047206A401C2062761CAAF1010055
:101D00005FEA000A0AD1FFF7BBFDC0680168405CCA
:101D1000D4E901219047206A401C2062281EA5F1C9
:101D20000105DCDC07E0D4E9012118F8010B90473C
:101D3000206A401C2062381EA7F10107F3DC204610
:101D4000FEF7A6FC032011B041E600002DE9F04F9C
:101D500004460D46D21D22F0070089B0D0E9009755
:101D60004846394607F065FD0246F80F01D02D239D
:101D700007E02068810701D52B2302E0202101EA3A
:101D8000C0038DF820300BB1012000E00020032AB1
:101D9000824601D0072A04DB2946204600F0E8FBF2
:101DA0003FE12078800601D40D2500E0E569C7F306
:101DB0000A560D2D49DA00214FEA175B08464FF00D
:101DC0000000002F00F4400007DA00EB80004FF421
:101DD000400100EBD07001EA60008115012901DDAE
:101DE0004FF0FF3100224FEA850CBCF1180F06D3EB
:101DF0001346ACF118004FF08052C24003E04FF49C
:101E0000801323FA0CF30CF10C0CBCF1200F04D35B
:101E1000ACF1200C09FA0CF001E007FA0CF00029F3
:101E20004FF0004801DD18B90FE00ED140450CD34A
:101E300019EB02095F4121B9404502D19F4329EACC
:101E40000209BBEB175F00D0761C2088000502D585
:101E50007B48784402E07A487844193808AA30234D
:101E600002F80A30037C0AF10101002E0AF1020A8D
:101E700053546A4602DC4FF0300101E04FF031016B
:101E80004FF001088DF8001002D0A6F2FF3603E0F3
:101E900059EA470100D06B4E002D02DC217809077A
:101EA00004D54FF002082E218DF80110C446002100
:101EB0000BE0C7F303433F01C35C491C6D1E02F8EE
:101EC0000830052908F1010801DA002DF1DC0021B4
:101ED0000CE000EB1973491C1B786D1E082902F8F1
:101EE00008304FEA091908F1010801DA002DF0DC89
:101EF00021688B0602D516E0A8F10108E04505DD52
:101F000002EB080313F8013C302BF5D0B8F1000FB9
:101F100009DD02EB080313F8013C2E2B03D109075E
:101F200001D4A8F10108002D05DD3E2102F80810BA
:101F30006D1E08F10108407C002E02F8080008F12F
:101F4000010804DA2D20764202F8080002E02B2076
:101F500002F808000A214FF47A70864208F101085D
:101F60000BDB96FBF0F3303302F8083096FBF0F30E
:101F700008F1010800FB136601E0642E0CDB64200D
:101F800096FBF0F3303302F8083096FBF0F308F1DB
:101F9000010800FB136601E00A2E06DB96FBF1F058
:101FA000303002F8080008F1010896FBF1F001FB5F
:101FB0001060303002F80800A16908F1010808EB50
:101FC000050202EB0A00081AA0612078C00602D4BC
:101FD0002046FEF747FB216A08AE01EB0A002062AB
:101FE00004E0D4E9012116F8010B9047BAF1010A87
:101FF000F7D22078C00602D52046FEF733FB6E46A6
:1020000009E016F8010B3E280FD0D4E901219047D2
:10201000206A401C2062B8F10108F2D22046FEF787
:1020200037FB09B00320BDE8F08F206A2844206206
:1020300003E0D4E90121302090476D1EEBD3F8E78F
:1020400045A3000002FCFFFF10B5436913B1AFF3D5
:10205000008001E0FFF736F8012010BD128800F182
:10206000240182840022C2840122EDE711684FF02E
:10207000FF32E9E72DE9F34F4FF0000A0C465646D0
:102080008DB001200C9001F10C000B9062690B984F
:1020900001219047051E2DD0252D2CD0216A88477F
:1020A000C0B162690B9801219047216A88470028D6
:1020B000F7D16269411E0B98904700E0761CA16938
:1020C0000D988847216A88470028F7D1E1690D9863
:1020D0008847DBE7A1690D988847A842074601D1E8
:1020E000761CD3E7E1690D9888477F1C02D1BAF1CD
:1020F000000F6FD06CE162690B9800273D463946AE
:1021000090472A2804D162690B9801219047012544
:10211000DFF8D08262690B9801219047A0F130016D
:102120000A290AD24745E5DC07EB870100EB4107A6
:10213000303FDFD445F01005ECE7E90601D46FF03D
:1021400000476C280AD04C2814D0682815D06A287B
:102150000DD074281CD07A281AD01DE062690B9823
:10216000012190476C2802D045F0040514E045F0A9
:1021700002050DE045F020050AE062690B98012197
:102180009047682802D045F0080505E045F4006551
:1021900062690B9801219047C4E9015765283DD039
:1021A00019DC58287AD00CDC452837D004DC2528E7
:1021B00026D041289ED131E046282FD0472899D1FA
:1021C0002CE05B2877D0612828D063287CD0642855
:1021D00023D15AE0F7E06F2848D008DC66281DD0EC
:1021E00067281BD0692821D06E2816D127E07028D7
:1021F00045D0732868D0752847D078280DD14DE098
:10220000A1690D988847252805463FF469AFE16923
:102210000D9888476D1C3FF46AAFD9E00D992346AD
:102220006A466FF0010009F02BFFC6E045F0400060
:1022300023464FF000026060A80736D43EE0E8076E
:102240007FF447AF2068011D21600068290501D592
:1022500006701BE7290701D5068017E7A90703D5F4
:10226000F117C0E9006111E706600FE745F0400093
:1022700023464FF008026060A80716D41EE040F61F
:102280000E0125EA0100606016E045F0400023469B
:102290004FF00A026060A80707D40FE045F0400045
:1022A0006060A80708D5234610220D996FF0010041
:1022B000FEF746FB81E007E0102223460D996FF000
:1022C0000100FEF7E8FB78E04FF0000963284F4675
:1022D000C8464B46CB4602D05B2807D039E0207970
:1022E000C00601D40120A060012732E06269D4F861
:1022F0000CB00B98012190475E2807D14FF00109DF
:1023000049466269D4F80CB00B989047216939B9F5
:1023100000210A4603AB43F82120491C0829FADBB7
:10232000D8B3216949B308F1010862690B9801210A
:1023300090475D28F4D1B9F1000F09D0002003A91E
:1023400051F82020D24341F82020401C0828F7DB18
:1023500003AB2069002820794FEA40701ED05B460D
:102360002246CDF80080CDE901970D9900286FF045
:10237000010020DAAFF300801FE0C11703AA00EBD1
:10238000D1614B1121F01F0102EB8302411A136846
:102390000120884003431360C7E719E00D992246E6
:1023A00000286FF00100009702DAAFF3008004E02C
:1023B000FEF717FC01E0AFF3008000280ADA401CAA
:1023C00006D10C9820B14FF0FF300FB0BDE8F08F70
:1023D0005046FAE7E90701D10AF1010A0644002054
:1023E0000C9053E6CCCCCC0C2DE9F0478146164638
:1023F0008AB0354878440DC88DE80D0032487844DD
:10240000801C03AC0DC884E80D0041F69B300844E5
:10241000372190FBF1F290FBF1F5A5F1800501FB6E
:1024200012041B3C02D56442012000E00020DFF8CA
:1024300098A080460027FA44AAF1BE0A0EE0E00701
:102440000AD03246684607EB470101230AEB8101B7
:1024500000F004FE8DE8070064107F1C002CEED114
:10246000194F7F44AE3F19E0E80715D007EB041081
:102470000DF1180A90E80E008AE80E00C068F042DC
:1024800001D1981908903246012306A903A800F04B
:10249000E5FD03AB83E807006D10641C002DE3D15C
:1024A0004FF0010332466946B8F1000F03A802D08D
:1024B00000F0AAFD01E000F0D1FDC9E90001C9F872
:1024C00008200AB0BDE8F087349E000070B51646BB
:1024D0000C46054600F044F8036893F80101012812
:1024E00006D0FF2C0FD8185D68B101202C7070BD8C
:1024F000D3F807013246214603F207130344284666
:10250000BDE8704018474FF0FF3070BD004870477D
:10251000989100247546FFF7F9FFAE46050069461D
:10252000534620F00700854618B020B5FDF7E8FFB8
:10253000BDE820404FF000064FF000074FF00008C4
:102540004FF0000B21F00701AC46ACE8C009ACE845
:10255000C009ACE8C009ACE8C0098D46704700006E
:1025600010B5FFF78DF9001D10BD00BF019A0000E6
:102570002DE9F0411F46044603260168072A01F4AD
:10258000006004DB08B116A505E016A503E008B15C
:1025900015A500E015A521F010002060A069C01E5F
:1025A000A0610FB1401EA0612046FEF75BF84FB15D
:1025B000D4E9012138469047206A401C2062C01CA3
:1025C000206206E0206AFAE7D4E9012115F8010B40
:1025D0009047761EF8D22046FEF75AF8BDE8F08103
:1025E0004E414E006E616E00494E4600696E6600B7
:1025F0002DE9FF4F1F464FF03C0987B04FF00042D6
:10260000DDE9141001F10108DDF858A002EA40509C
:102610000390002005908346054604460490B9695E
:10262000461E08988847AAF1010A0290BAF1000FE5
:102630003BDD02982E2815D01021FEF761FE002800
:102640002EDB4FF0010B0599014317D0B9F1000FB4
:102650000BDB4A46C11700F0FEF905430C43A9F114
:10266000040905E0012004900BE008B145F00105E4
:1026700001200590049820B9361D02E0049800B1AD
:10268000361FB969089808F101088847BBF1000FA7
:10269000AAF1010A0290C9D00999C1F80080C5E7E2
:1026A0000298702808D0502806D0F9690898884701
:1026B000BBF1000F14D04FE0002002900120BBF1CD
:1026C000000F049009D0B969089808F101088847FB
:1026D000AAF10109B9F1000F07DCF96908988847E8
:1026E0006FF001000BB0BDE8F08F2B2804D02D282F
:1026F0000CD14FF0FF300490B969089808F1010837
:102700008847A9F10109B9F1000FE6DD411CE4D0C9
:102710000A21FEF7F5FD0028DFDB029908F1010828
:1027200001EB810100EB41000290B96908988847EC
:102730000A21FEF7E5FD099AA9F10109B9F1000F97
:10274000C2F8008001DD0028E7DAF96908988847B7
:102750000499029800FB016655EA040004D004F0D5
:102760004041090002D006E0039898E0A40044EA42
:102770009574AD00B61E04F00041080002D16D1939
:102780006441761E159810F0240F03D04FF00B090A
:102790005C4803E04FF028096FF07D008246564503
:1027A00007DAAAEB06018944B9F1410F01DD4FF0C8
:1027B000410901200021A9F1010200F04CF9024673
:1027C00028400B462140084301D0012100E00021B0
:1027D000501E029143F1FF3128402140084301D0AF
:1027E000012000E000200299834651EA0B014FD0FE
:1027F000002108464FF00000039900F4400039B171
:1028000000EB80004FF4400100EBD07001EA600063
:102810008015012802DD4FF0FF3000E013D0401C8E
:1028200036D0029860B3BBF1000F0CD14A460120AC
:10283000002100F010F928402140084301D0012078
:1028400000E00020E0B101204A46002100F003F939
:10285000034640190A4661412D1A8C4111D3B9F142
:10286000400F09DD159810F0240F02D0AAF13406AC
:1028700003E0AAF1170600E0761C00254FF00044A3
:1028800006E05B1E42F1FF3220EA030521EA020462
:10289000CAF10100B04206DA1B49039808430190CF
:1028A000002000900EE0039AC4F3D321E80A0A4303
:1028B000164940EA44500A433146CDE900026846D1
:1028C00007F076F8159810F0240F0BD01598C00774
:1028D00015D13868DDE90012031D3B600068C0E9CE
:1028E00000120CE002A8694607F056F81598C007D8
:1028F00005D13868029A011D3960006802604046BF
:10290000F0E6000002FCFFFF0000F07F0000F03F57
:102910002DE9FF4F92461D4685B04FF00041DDE99D
:10292000124BDDE914727F1E01EA4B50414940F021
:10293000FF4940EA0108002122F0200049280491C3
:1029400002D04E2828D04CE03BA0012607C88DE8D5
:102950000700A9690698641C88477F1E014606D4B3
:102960001DF8060018B121F0200181420BD0E96961
:1029700006988847032E34D0082E32D06FF001001D
:1029800009B0BDE8F08F761C032E01D0082EE0D1EF
:10299000601CCAF80000DCE7A9690698641C884737
:1029A0007F1E2AD420F02000412826D1A96906984C
:1029B000641C88477F1E20D420F020004E281CD1A4
:1029C000A9690698641C88477F1E48F4002849F4CA
:1029D0008009CAF8004001D4282806D0E969069881
:1029E00088475FEACB7012D022E0A9690698641C80
:1029F00088477F1E01D4002803DAE96906988847D2
:102A0000BCE72928F1D1641CCAF80040E9E71BF0B3
:102A1000240F07D028680499031D2B600068C0E9C3
:102A2000001805E02868021D2A600068C0F80090C0
:102A30002046A5E70000F07F494E46494E495459CB
:102A40000000000010B50446AFF300802046BDE84A
:102A50001040FDF7E0BCB2F120030AD5C2F120031B
:102A600001FA02F120FA03F300FA02F041EA03014D
:102A7000704700FA03F14FF0000070470149182039
:102A8000ABBEFEE72600020070475FEA400C08BFBD
:102A900091F0000F4FEA8C234FEAC12243EA5151D3
:102AA0004FEA1C5018BF00F5F0404FEA300018BF45
:102AB00041F000415FEA6C5C00F02980BCF1FF3F0F
:102AC00008BF40F080407047130C06BF12044FF05F
:102AD000100C4FF0000C130E04BF12020CF1080C86
:102AE000130F04BF12010CF1040C930F04BF9200EA
:102AF0000CF1020CD30F04BF52000CF1010C114673
:102B00004FF00002A0F11F00A0EB0C00704711F085
:102B1000004F08BF704731F000413FF4D5AF0B0CB8
:102B200006BF09044FF0100C4FF0000C0B0E04BF51
:102B300009020CF1080C0B0F04BF09010CF1040C85
:102B40008B0F04BF89000CF1020CCB0F04BF4900AE
:102B50000CF1010CCCF12003A0EB0C0022FA03F3E2
:102B600002FA0CF241EA030100F10100704720F083
:102B70007F4C80EA030023F07F47ACEB070303F5AB
:102B80007C5300F0004003F1FF032DE980494FEA38
:102B9000154B09B44FEA144325EA0B4E24EA0348C7
:102BA0000FF2042606EB132749083E785FEA32024B
:102BB00003FB0667C7F5000707FB06F64FEA543725
:102BC0004FEAD64606F1020607FB066CCCF1005C24
:102BD0004FEA1C472CEA074C07FB06F40CFB06F5F2
:102BE00004EB15464FEA961634BF00204FF0004024
:102BF0004FEAD13706FB07FC4FEA1C4C0CFB0BF7E6
:102C0000D21B03FB0CF761EB07010CFB0EF7B0EBDB
:102C1000074072EB17420CFB08F734BFA2EB0742E8
:102C2000B2EB074261EB17414FEA0C444FEA9107C0
:102C300006FB07FC4FEA1C4C0CFB0BF7B0EBC74044
:102C400072EB573203FB0CF734BFA2EBC742B2EB77
:102C5000C74261EB57310CFB0EF7B0EBC70072EBCC
:102C600057720CFB08F734BFA2EBC702B2EBC702E6
:102C700061EB5771039F4FEA816141EA921104EBC6
:102C8000CC044FEAD1374FEA826206FB07FC42EAE6
:102C900090124FEA80604FEA1C4C0CFB0BF7D21BE2
:102CA00003FB0CF761EB07010CFB0EF7B0EB0740E1
:102CB00072EB17420CFB08F734BFA2EB0742B2EBF2
:102CC000074261EB17414FEA8C554FEA910704EB3D
:102CD0009C2406FB07FC4FEA1C4C0CFB0BF7B0EBEB
:102CE000C74072EB573203FB0CF734BFA2EBC7426D
:102CF000B2EBC74261EB57310CFB0EF7B0EBC700EC
:102D000072EB57720CFB08F734BFA2EBC702B2EBB1
:102D1000C70261EB577115EB4C254FEA816141EA1F
:102D200092114FEA82624FEAD13742EA901206FBD3
:102D300007FC44F100044FEA80604FEA1C4C0CFB96
:102D40000BF7D21B03FB0CF761EB07010CFB0EF733
:102D5000B0EB074072EB17420CFB08F734BFA2EB55
:102D60000742B2EB074261EB174115EB1C154FEA26
:102D7000813141EA92414FEA823242EA90424FEA7F
:102D800080304FEA0C7644F1000448EA03434EEAEF
:102D90000B484FF0000EB2EB080C71EB030724BF99
:102DA000624639464EEB0E0E4FF0000B00185241B2
:102DB00049414BEB0B0BB2EB080C71EB03077BF1BA
:102DC000000B24BF624639464EEB0E0E4FF0000B4F
:102DD0000018524149414BEB0B0BB2EB080C71EB65
:102DE00003077BF1000B24BF624639464EEB0E0E03
:102DF00051EA020718BF46F0010616EB0E7655F1B0
:102E0000000254F1000103D5BDE88901BDE8008846
:102E1000BDE88901BDE80048B619524141EB010106
:102E2000A3F10103704780807F7E7D7C7B7A797877
:102E3000777676757473727171706F6E6E6D6C6C7F
:102E40006B6A6A6968686766666564646363626121
:102E50006160605F5F5E5E5D5D5C5C5B5B5A5A59A2
:102E6000595858575756565555555454535352520E
:102E70005251515050504F4F4F4E4E4D4D4D4C4C66
:102E80004C4B4B4B4A4A4A494949484848474747AF
:102E900047464646454545444444444343434342EC
:102EA000424242414141000046EA0646A3F57053C2
:102EB0004FEA164646EA42564FEAD22242EA4152C9
:102EC00010B54FEAD121A3F1010300F02FF820F053
:102ED000004000F1020C00F0004701EB00501146E9
:102EE000BCF5006F40EA070000D210BDBAF1000F38
:102EF0000AD01CB503B44FF004004FF004014FF0AA
:102F000000000FBCBDE810404FF00001BBF1010F05
:102F1000B9BF04484FF0FF310348002140EA0700E1
:102F200010BD00BFFFFFEF7F0000F07F002B9C462D
:102F300030D477002BD01CB54FEA370703B44FF0DD
:102F400010004FF01001BAF1000F06D0BCF1000FD5
:102F5000DCBF40F0080040F008014FF000000FBC5B
:102F6000BDE810400BF1010BBBF1010F08BF5FEA98
:102F7000170722BF12F1010211F101014FF00041C8
:102F800043F1000300F0004043EA00007047F9D32A
:102F90005708D0E746EA064613F1400F4FEA1646B7
:102FA0001FDD13F1200FDFBF16430A460021203337
:102FB0005B42BED0C3F1200746EA064602FA07F795
:102FC0004FEA164646EA0706C3F1200722FA03F243
:102FD00001FA07F721FA03F14FF0000342EA070272
:102FE000A7E746EA020646EA06464FEA164646EADA
:102FF0000106BCBF46EA0646360C4FF000034FF010
:1030000000024FF0000194E72DE9804C9A46934668
:1030100070B491E8380007C831EA400C48BF34EA80
:10302000430C03D5FFF7A3FDFFF780FFF0BCBDE81D
:10303000008C2DE9804C9A46934670B491E8380094
:1030400007C831EA400C48BF34EA430C03D5FFF708
:103050008EFDFFF729FFF0BCBDE8008C2DE9804C08
:103060009A46934670B491E8380007C810F0804F34
:1030700008BF13F0804F03D100F01AF8FFF756FF96
:10308000F0BCBDE8008C2DE9804C9A46934670B4A4
:1030900091E8380007C810F0804F08BF13F0804F48
:1030A00003D100F005F8FFF7FFFEF0BCBDE8008C8F
:1030B00020F07F4780EA030023F07F4C07EB0C03EE
:1030C000A3F57C5300F00040A3F1FE0392F0000F43
:1030D00000F0B38095F0000F00F077802DE90149F2
:1030E0004FEA11404FEA144621EA004800FB06FC73
:1030F00024EA064708FB06F607FB08F800FB07F77B
:1031000018EB06484CEB164C4FEA124B18EB0748ED
:103110004FEA15464CEB174022EA0B4E0BFB06FC20
:1031200025EA06470EFB06F607FB0EFE0BFB07F72C
:103130001EEB064E4CEB164C4FF000061EEB074EF6
:103140004CEB174B18EB0B0840F1000018EB0E0B83
:1031500058EB000840F100008F1A4FF000013CBF0F
:10316000C943661B14BFB5EB040C00213CBFC94327
:10317000F61B4FEA17444EEA8E0E27EA04454FEA43
:103180001C4704FB07622CEA074C05FB07F70CFB06
:1031900005F604FB0CFC16EB074642EB174216EB58
:1031A0000C4642EB1C421BEB060658EB0202414167
:1031B00046EA9E0601D5BDE80189B619524141EBA8
:1031C0000101A3F10103BDE801894FEA14454FEA6B
:1031D000114724EA054621EA074C05FB07F406FBE4
:1031E00007F70CFB06F105FB0CFC11EB074144EB68
:1031F00017444FEA124711EB0C4144EB1C4422EAFE
:10320000074C05FB07F206FB07F70CFB06F605FB70
:103210000CFC16EB074642EB174216EB0C4642EB52
:103220001C456A1854F1000148BF7047B619524155
:1032300041EB0101A3F10103704795F0000F37D076
:103240004FEA11424FEA144721EA024624EA074CAA
:1032500002FB07F106FB07F70CFB06F402FB0CFC74
:1032600014EB074441EB17414FEA154714EB0C44AC
:1032700041EB1C4125EA074C02FB07F506FB07F76B
:103280000CFB06F602FB0CFC16EB074645EB17455C
:1032900016EB0C4645EB1C42121951F1000148BFD8
:1032A0007047B619524141EB0101A3F10103704788
:1032B0004FEA14454FEA114724EA054621EA074C34
:1032C00005FB07F106FB07F70CFB06F24FF00006C3
:1032D00005FB0CFC12EB074241EB174112EB0C42D1
:1032E00051EB1C4148BF7047921841EB0101A3F11B
:1032F00001037047FEE70020704700207047000080
:1033000005490022054810B504F0BCFE04490348F5
:1033100004F0ABFE002010BD2C1200245005002448
:103320002C0A002410B5054C0A46A1600146044849
:10333000FDF70AFD0120207010BD0000B40100243B
:103340000C8E002470B50D4604460146054804F075
:103350008CFE044804F062FE29682046FFF7E2FF75
:10336000002070BD5005002400207047094A10B5A8
:10337000D2F8BC22D2F814220AB1012010BD0A46AC
:103380000146044804F07EFEBDE81040014804F008
:10339000EFBE00005005002470B500240D4606461F
:1033A0000BE0291B402906EB040000D34021FFF766
:1033B000DDFF052006F058FF4034AC42F1D370BD6C
:1033C000014800F035B900008C040024294A016846
:1033D00091423AD0274A1832914236D0254A3032AB
:1033E000914232D0234A483291422ED0214A603253
:1033F00091422AD01F4A7832914226D01D4A9032FB
:10340000914222D01B4AA83291421ED01A4A9142C0
:103410001BD0194A1832914217D0174A30329142C4
:1034200013D0154A483291420FD0134A603291426C
:103430000BD0114A7832914207D00F4A9032914214
:1034400003D00D4AA832914211D1CAB21823103AC2
:10345000B2FBF3F26FF30901032A02F00703074AF4
:10346000D25CC26500D9091D81650846704721F00C
:10347000FF01F9E7100002401004024004C10008F7
:1034800030B5224A012301689142CAB21BD01F4CB9
:103490001434A14217D01D4C2834A14213D01B4C28
:1034A0003C34A1420FD0194C5034A1420BD0174CE0
:1034B0006434A14207D0154C7834A14203D0134C98
:1034C0008C34A1420CD11421114C083AB2FBF1F119
:1034D0000F4A803201F01F0504EB8101AB4010E080
:1034E0000C4D1824103A0D44B2FBF4F1A82D00D86D
:1034F0000831094A01F01F0402EB8101064AA3408A
:103500008032603080E80E0030BD00000854025860
:1035100000580258F0FBFDBF0008024010B50279C8
:10352000531E072B2DD8174C0168A1421BD0154CF8
:103530001434A14217D0134C2834A14213D0114C9B
:103540003C34A1420FD00F4C5034A1420BD00D4C53
:103550006434A14207D00B4C7834A14203D0094C0B
:103560008C34A14203D10849074C443102E0074999
:10357000064C443104EB8202C0E91B210121994031
:10358000416710BD08540258FC580258FC0802401C
:1035900010B583694FF0C074826A0146002053B1B0
:1035A000B3F5005F15D072B1012A0CD0022A0AD0FF
:1035B000032A09D104E01AB1012A06D0022A03D154
:1035C000C96AC90100D5012010BDC96AA142FAD05B
:1035D00010BD002AF7D0012AF2D0022AF3D0032A24
:1035E000F3D010BD704772B6FEE70022AFF3008043
:1035F0000E4B70B505465C7A0120002C14D15E7A22
:1036000003F108009C555E7A03EB860675605D7ACF
:103610002A54587A421C5A723A232F2230300870AA
:103620004B7020468A70CC7070BD00005821002479
:103630002DE9FC5F0446F74E0020DFF8D8830090A8
:103640004FF41652F44808F11808A56DDFF8C4933A
:10365000DFF8C0A3016809F1300920680AF1480ABF
:10366000B1FBF2F1B04201912F68D5F800C0DFF84C
:10367000ACB335D04146884232D0484530D0504571
:103680002ED058452CD0E5491831884228D0E3493E
:103690003031884224D0E1494831884220D0E04985
:1036A00088421DD0DE491831884219D0DC493031BA
:1036B000884215D0DA494831884211D0DFF860E3FA
:1036C0000EF1600E70450BD0D54A7832904207D08B
:1036D000D34B9033984203D0D149A83188427DD151
:1036E00094F85C20082102F01F0201FA02F23A422B
:1036F0004AD0B04232D0404530D048452ED0504517
:103700002CD058452AD0C54A1832904226D0C34AF8
:103710003032904222D0C14A483290421ED0C04A34
:1037200090421BD0BE4A1832904217D0BC4A303269
:10373000904213D0BA4A483290420FD0B84A603211
:1037400090420BD0B64A7832904207D0B44A9032B9
:10375000904203D0B24AA832904203D1026802F0EC
:10376000040202E0026802F008026AB1026822F074
:103770000402026094F85C0000F01F008140A96020
:10378000606D40F00100606594F85C00012100F07C
:103790001F008140394240D02068B04234D04045BB
:1037A00032D0484530D050452ED058452CD09B4A79
:1037B0001832904228D0994A3032904224D0974A09
:1037C0004832904220D0964A90421DD0944A1832F6
:1037D000904219D0924A3032904200E0AFE113D0CB
:1037E0008F4A483290420FD08D4A603290420BD0BF
:1037F0008B4A7832904207D0894A9032904203D067
:10380000874AA83290427DD1406910F0800F04D0E1
:10381000A960606D40F00200606594F85C000421CE
:1038200000F01F00814039423ED02068B04232D0C3
:10383000404530D048452ED050452CD058452AD050
:10384000764A1832904226D0744A3032904222D0C2
:10385000724A483290421ED0714A90421BD0704A40
:103860001832904217D06E4A3032904213D06C4AD0
:10387000483290420FD06A4A603290420BD0684A78
:103880007832904207D0664A9032904203D0644A20
:10389000A83290424ED1006810F0020F04D0A96007
:1038A000606D40F00400606594F85C00102100F049
:1038B0001F008140394258D02068B04234D0404582
:1038C00032D0484530D050452ED058452CD0534AA0
:1038D0001832904228D0514A3032904224D04F4A78
:1038E0004832904220D04E4A90421DD04C4A183265
:1038F000904219D04A4A3032904215D0484A483254
:10390000904200E014E00FD0454A603290420BD064
:10391000434A7832904207D0414A9032904203D0D5
:103920003F4AA832904207D1006800F0080006E044
:10393000006872E70068B7E7006800F00400A0B113
:10394000A96020680168490304D50068000308D510
:10395000A16C07E00168C90503D4016821F00801E2
:103960000160216C09B12046884794F85C00202151
:1039700000F01F008140394279D02068B04232D037
:10398000404530D048452ED050452CD058452AD0FF
:10399000224A1832904226D0204A3032904222D019
:1039A0001E4A483290421ED01D4A90421BD01C4AEB
:1039B0001832904217D01A4A3032904213D0184A27
:1039C000483290420FD0164A603290420BD0144ACF
:1039D0007832904207D0124A9032904203D0104A77
:1039E000A832904203D1006800F0100002E00068A5
:1039F00000F00200B0B3A96094F8350004282068F4
:103A000001680FD049037ED5006800032BD4616C98
:103A10002AE00000100002409C00002470000240D8
:103A20001004024021F0160101602068416921F074
:103A300080014161206C08B9A06C20B12068016848
:103A400021F00801016094F85C303F21012003F06F
:103A50001F0300229940A96084F8350084F83420BF
:103A6000216D65E003E0E16B09B120468847606D98
:103A700000287DD0606DC00759D02068042184F8EB
:103A80003510B0422BD0404529D0484527D050456D
:103A900025D0584523D09D49884220D09B491831D4
:103AA00088421CD099493031884218D098498842C0
:103AB00015D097491831884211D095493031884244
:103AC0000DD093494831884209D0914960318842EC
:103AD00005D08F497831884201D08D4990310168F5
:103AE00021F00101016020680099019A491C0091B0
:103AF000914202D80168C907F6D10068C00710D00A
:103B000003200FE0FFE70168C905ACD40368012179
:103B1000002223F01003036084F8351084F8342069
:103B2000A1E7012084F83500002084F83400E16C1E
:103B300000291DD002B02046BDE8F05F0847754956
:103B400088421DD073491431884219D071492831F7
:103B5000884215D06F493C31884211D06D495031AF
:103B600088420DD06B496431884209D0694900E030
:103B700084E07831884203D066498C3188427DD117
:103B800094F85C800427016808F01F0807FA08F71A
:103B900017EA0C0F009746D04F0744D500980F0442
:103BA000686003D5C8033CD4A16CC1E7880638D44B
:103BB0002068B0422DD055496039884229D0484507
:103BC00027D0504525D0584523D05049884220D091
:103BD0004E49183188421CD04C493031884218D0A7
:103BE0004B49884215D04A491831884211D048497A
:103BF000303188420DD046494831884209D070455D
:103C000007D0904205D0984203D04149A83188425C
:103C100003D1016821F0080102E0016821F00401EC
:103C20000160216C84E7022707FA08F717EA0C0FF6
:103C300000974ED08F074CD500980F04686003D5CD
:103C4000C80344D4616C73E7880640D42068B0424E
:103C50002FD02E49603988422BD0484529D0504575
:103C600027D0584525D02949884222D027491831E4
:103C700088421ED025493031884200E044E018D007
:103C80002349884215D022491831884211D0204951
:103C9000303188420DD01E494831884209D07045E4
:103CA00007D0904205D0984203D01949A8318842E4
:103CB00003D1016821F0140102E0016821F00A013A
:103CC0000160012184F83510002084F83400E16B94
:103CD0002EE7082202FA08F212EA0C0F14D00907A4
:103CE00012D5016821F00E01016094F85C100120EA
:103CF000002201F01F0100FA01F16960606584F89B
:103D0000350084F8342012E7BDE8FC9F88000240AB
:103D100010040240085402582DE9F05F044600F0F8
:103D200011FB002C07467DD0E34E022120684FF0A6
:103D30000308DFF888934FF00005DFF884A3B04252
:103D4000DFF880B334D0DC4A1832904230D0484596
:103D50002ED050452CD058452AD0DA4A18329042FD
:103D600026D0D84A3032904222D0D64A48329042A9
:103D70001ED0D54A90421BD0D34A1832904217D059
:103D8000D14A3032904213D0CF4A483290420FD0BD
:103D9000CD4A603290420BD0CB4A7832904207D065
:103DA000C94A9032904203D0C74AA83290427DD18E
:103DB00084F83510B04284F834502ED0BE49183102
:103DC00088422AD0484528D0504526D0584524D08E
:103DD000BC491831884220D0BA49303188421CD0C1
:103DE000B8494831884218D0B749884215D0B649F9
:103DF0001831884211D0B449303188420DD0B249CF
:103E00004831884209D0B0496031884205D0AE4976
:103E10007831884201D0AC499031016821F001012C
:103E2000016008E027E100BF00F08CFAC01B052804
:103E300001D920211CE120680068C007F4D104F1F9
:103E400008002168D4E9053C8E4685C809681043FE
:103E5000D4E907281F43636A38439C4F40EA0C00AB
:103E60001043394040EA0800042B40EA010003D126
:103E7000D4E90B1211430843954909686FF30F0108
:103E8000B1F1005F0FD36168A1F12902052A08D9B9
:103E9000163A032A05D9083A012A02D94F390329CB
:103EA00001D840F48010CEF8000000E023E0206844
:103EB000676A4069042F20F0070047EA00070DD128
:103EC000D4E90A01074349B12046FFF761FB28B155
:103ED00040206065012184F83510CCE020684761FE
:103EE0002046FFF773FA94F85C203F2102F01F028E
:103EF0009140816054E0774A90421BD0754B143357
:103F0000984217D0734B2833984213D0714B3C33EF
:103F100098420FD06F4B503398420BD06D4B6433A7
:103F2000984207D06B4B7833984203D0694B8C335F
:103F300098427DD184F8351084F83450664B01687E
:103F4000A26801EA030E402A73D0802A72D00022B0
:103F5000D4E90378D4E9053142EAD70242EAD80825
:103F60005C4AD4E9077C48EAD30848EAD10141EA2F
:103F7000D701524241EA1C11142341EA0E010160AB
:103F800020681044B0FBF3F08000E0652046FFF7A6
:103F90001DFA94F85C20012102F01F02914041605B
:103FA0002068B04257D044491831884253D0484520
:103FB00051D050454FD058454DD0424918318842D4
:103FC00049D040493031884245D03E494831884245
:103FD00041D03D4988423ED03B49183188423AD0D1
:103FE00039493031884236D037494831884232D059
:103FF0003549603188422ED03349783188422AD001
:1040000031499031884226D02F49A831884222D0A8
:10401000304988421FD02F49143188421BD02D4986
:104020002831884217D02B493C31884213D002E016
:104030001DE017E018E02749503188420BD0254990
:104040006431884207D023497831884203D021491E
:104050008C31884229D12046FFF712FAA0688028C7
:104060000CD00CE0102273E74FF4804270E740213F
:10407000616584F835800120BDE8F09F6560216EA0
:1040800020790860D4E9190141606068401E072862
:1040900008D82046FFF742FAE06E0560D4E91C011B
:1040A000416002E0E566256765670120656584F883
:1040B00035000020E0E70000100002404000024010
:1040C0005800024070000240100402403F8010FE81
:1040D0000010005C085402580F00FEFF70B5044643
:1040E00000F030F90546601C02D004480078044412
:1040F00000F028F9401BA042FAD370BD90000024C4
:104100002DE9F84F03247D4D00234FF001094FF0B6
:10411000B04B4FF00F0AE9E009FA03F73A4076D0C6
:104120000E7906F00306012E01D0022E18D1D0F828
:1041300008C04FEA430ECE6804FA0EF82CEA080CC9
:1041400006FA0EF646EA0C068660D0F804C00E7930
:104150002CEA070CC6F300169E4046EA0C064660A1
:104160000E79F643B6070BD0C6684FEA43088F684E
:1041700004FA08FC26EA0C0607FA08F73743C7607A
:104180000E7906F00306022E12D1DE080F694FEAFF
:10419000437C00EB8606B646366A4FEADC6C0AFAC8
:1041A0000CF807FA0CF726EA08063743CEF8207019
:1041B0000F7906684FEA430807F0030704FA08FC82
:1041C00007FA08F726EA0C06374307604E6816F42C
:1041D000403F1CD04A4E376847F0020737603668C8
:1041E0009F0706F00206009623F0030606F1B0468C
:1041F000B6463F0FD6F80864DFF808810AFA07FCD4
:10420000404526EA0C0603D14FF0000C41E06CE07B
:10421000DFF8F4C0604502D14FF0010C39E0DFF85F
:10422000ECC0604502D14FF0020C32E0DFF8E0C094
:10423000604502D14FF0030C2BE0DFF8D8C0604599
:1042400002D14FF0040C24E0DFF8CCC0604502D16D
:104250004FF0050C1DE0DFF8C4C0604502D14FF0FF
:10426000060C16E0DFF8B8C0604502D14FF0070C2D
:104270000FE0DFF8B0C0604502D14FF0080C08E055
:10428000DFF8A4C0604502D14FF0090C01E04FF007
:104290000A0C0CFA07FC4CEA060CCEF808C44F686E
:1042A000DBF80060FF0226EA020600D516435F46EF
:1042B000CBF80060D1F804C0DBF804605FEA8C2C16
:1042C00026EA020600D516437E606E684F6826EA2D
:1042D0000206BF0300D516436E602E684F6826EABB
:1042E0000206FF0300D516432E605B1C0A6832FAF3
:1042F00003F67FF411AFBDE8F88F0000800000588E
:10430000F444025800000258000402580008025801
:10431000000C0258001002580014025800180258ED
:10432000001C025800200258002402580AB1816182
:1043300070470904FBE7000001480068000C704763
:104340000010005C01488068704700009000002465
:10435000024881680278114481607047900000240F
:10436000032010B500F0B0F801F034FE0F4A1049F8
:1043700014681368C4F3032203F00F038A5CC95C5A
:1043800002F01F0201F01F01D0400A4A20FA01F199
:104390001160094908600F2000F010F808B10120F1
:1043A00010BD00F051F8002010BD00001844025864
:1043B00034C10008A00000249C00002410B510287F
:1043C00004468AB02DD2002201461C2000F05CF881
:1043D0001C2000F04BF8184804601848016841F0B0
:1043E00001010160006809A900F001000890684619
:1043F00001F07CFD0598B8B101F0C8FD40001049FE
:10440000002240F2E733B0FBF1F10E484FF0804458
:104410000460C0E90332491EC0E9011202F03FFA0C
:1044200028B101200AB010BD01F0B0FDE7E7054852
:1044300002F068FAF6E7000094000024E84402580D
:1044400040420F0004050024074882B0016841F093
:1044500002010160006800220F2100F002000090BC
:10446000901E02B000F010B8F4440258002809DB96
:10447000410900F01F028900012001F1E021904074
:10448000C1F80001704700000E4BF0B41B680D46E8
:10449000C3F30223C3F10706042E00D90426191D15
:1044A000072901D2002300E0DB1E012404FA06F1F3
:1044B0009C40491E2940641E994014402143F0BC91
:1044C00005F0CFB90CED00E0064900F0070210B589
:1044D0004FF6FF040868044B204040EA02201843CE
:1044E000086010BD0CED00E00000FA05BFF34F8F2F
:1044F0000548064A016801F4E06111430160BFF319
:104500004F8F00BFFDE700000CED00E00400FA054E
:1045100001680123C0F80035002280F8F42488697E
:10452000044A40F000608861486D104348650020EF
:1045300070470000030000107047006841620020CF
:104540007047F0B503685D6A39B19F6A4C1E002060
:104550004FF4827605EB17450BE045EA024098627E
:1045600010E0471C06EB800053F800C0F8B205EBE2
:104570001C45A042F5D34FF4807000EB810045EA62
:1045800002421A500020F0BDD0F8080504F085B8AA
:1045900001EBC10200EB8202D0F80805926C03F037
:1045A000D8BF01EBC10200EB8202D0F80805D2F8B7
:1045B000882204F02AB8D0F8080504F070B80A067A
:1045C00001F00F0101EBC10100EB810101D53C318C
:1045D00001E001F51F71006804F05ABF01F00F02FD
:1045E0000B0670B502EBC20104464FF001004FF01C
:1045F000000504EB810103D581F83D003C3103E067
:1046000081F87D5201F51F710A7094F8BC24012ACB
:1046100008D084F8BC04206804F056FC002084F81C
:10462000BC5470BD022070BD70B54268044601F0F4
:104630000F00904201D9012070BD01F00F024FF030
:1046400000050B0602EBC2014FF0010204EB8101F1
:1046500003D581F83D203C3103E081F87D5201F51E
:104660001F718D70087094F8BC04012808D084F87C
:10467000BC24206804F098FD002084F8BC5470BD70
:10468000022070BD01F00F0101EBC10100EB8100C0
:10469000D0F8900270472DE9F04101F00F06044672
:1046A0000D064FF0010006EBC6014FF0000504EBCC
:1046B000810103D581F83D003C3103E081F87D5252
:1046C00001F51F714F788A600B710E7007B14E8330
:1046D000022B00D14D7194F8BC24012A09D084F832
:1046E000BC04206804F03EFB284684F8BC54BDE8B6
:1046F000F0810220FBE770B501F00F05002405EB07
:10470000C50100EB810101F5227181E81C0001F86F
:104710000B4C01F80C5DC368012B00D1CA61027B10
:10472000006804F099FD002070BD70B50D46416829
:10473000044605F00F00884201D9012070BD29060A
:104740004FF000064FF0010207D500EBC00104EB6B
:10475000810181F83D203C3107E005EBC50104EB08
:10476000810181F87D6201F51F718A70087094F8EB
:10477000BC04012807D084F8BC24206804F040FD64
:10478000280702D007E0022070BD217B04F2C4425A
:10479000206804F0DDFC002084F8BC6470BD70B5B6
:1047A00001F00F04002504EBC401012600EB810198
:1047B000483181E82C0001F80B6C01F80C4DC368FE
:1047C000012B00D1CA61027B006804F045FD002086
:1047D00070BD00002DE9FC5F05680446284604F022
:1047E000F8FE00287ED1206804F01FFF002879D051
:1047F000D5F80808C0F30D20C4F8FC04206804F0C4
:1048000014FF800704D52068416901F0020141616D
:10481000206804F00AFFC10604F2C440009034D5B9
:104820002068816921F0100181612F6A07F00F0172
:10483000C7F3434001EBC101022804EB810606F5F2
:104840001F7602D0062811D01AE047F6F070074212
:1048500016D0C7F30A12F1681746284604F0E9FE9D
:10486000F16870693944F160384408E00099082221
:10487000284604F0DEFE7069C7F30A11084470612F
:104880002068816941F010018161206804F0CDFE4B
:1048900000034FF0000A4FF0020B4FF001097CD5E6
:1048A0002068002604F0A0FE074674E0F80770D0E8
:1048B0002068F1B204F0B1FE8046C00707D005EBD6
:1048C0004611C1F8089B3146204602F04FFB5FEAD3
:1048D000087025D505EB46110820C1F8080BFC49E6
:1048E000206800E042E2026C00EB461001928A422E
:1048F000D0F8081B05D9090403D54FF40041C0F8CE
:10490000081B204600F026FBF1490198884207D990
:10491000E068012804D120680121009A04F018FC05
:104920005FEAC86004D505EB46111020C1F8080BFA
:104930005FEA88701CD56869000605D5D5F80408BB
:1049400040F48061C5F8041806EBC60004EB800053
:1049500090F87F1200F51F70012905D180F803A09F
:104960002046F1B200F008FA05EB4611C1F808BB89
:104970005FEA886004D505EB46112020C1F8080BDA
:104980005FEA884005D505EB46114FF40050C1F8A9
:10499000080B7F08761C002F88D1206804F045FEA4
:1049A00040036FD5206804F018FE0026074667E034
:1049B000F80763D02068F1B204F01DFE8046C007FE
:1049C00023D0D5F8342806F00F0C05EB461309FA6E
:1049D0000CF08243C5F83428C3F80899E068012830
:1049E0000FD106EBC60004EB8000D0E91112114490
:1049F000816436B9E06C20B920680121009A04F086
:104A0000A7FB2046F1B2FFF7C3FD5FEA087004D5AB
:104A100005EB46110820C1F808095FEAC86004D513
:104A200005EB46111020C1F808095FEA486004D57B
:104A300005EB46114020C1F808095FEA887016D5D9
:104A40003146284604F098FD06EBC60004EB8000D2
:104A500090F83F103C30012905D180F803A0204692
:104A6000F1B200F085F905EB4611C1F808B95FEA2B
:104A7000086003D53146204602F0DEFA7F08761C36
:104A8000002F95D1206804F0D0FD002811DAD5F868
:104A9000040820F00101C5F8041894F8F404012872
:104AA0003BD0204600F03AFA2068416901F000410D
:104AB0004161206804F0B9FD00050BD5D5F8080860
:104AC000C00702D0204600F06DFA2068416901F469
:104AD00000614161206804F0A8FD00010AD520684A
:104AE000416901F00061416194F8F404E0B12046AD
:104AF00000F058FA206804F098FDC00472D5D5F88B
:104B0000040820F00101C5F804182068102104F001
:104B100033FD00214FF67F322DE00021204684F83E
:104B2000F4A4FFF709FDBFE784F8F4942068406D12
:104B30000121C0F38300C4F8F8042046FFF7FCFC11
:104B4000D8E700BF05EB4110C0F80829D0F80039BC
:104B500023F40013C0F80039C0F8082BD0F8003B4C
:104B600023F40013C0F8003BD0F8003B43F000638F
:104B7000C0F8003B491C60688842E3D8D5F81C089F
:104B800040F00111C5F81C18206B68B1D5F88408F5
:104B900040F00B01C5F88418D5F8440840F00B012B
:104BA0002846C5F844180DE0D5F8140842F22B0148
:104BB0000843C5F81408D5F8100840F00B01284642
:104BC000C5F81018D0F8000820F4FE61C5F80018E8
:104BD000217B2068009A04F0BBFA2068416901F447
:104BE00080514161206804F020FD800417D52068C1
:104BF00004F0F8F8206804F0DFFC206101F0A4F96B
:104C0000217C2368CAB20146184604F073FD204691
:104C100000F06EF92068416901F40051416120689B
:104C200004F003FD000707D5204600F07BF920685B
:104C3000416901F008014161206804F0F6FC0006BA
:104C400016D5A869012620F08001A9610DE000BFFA
:104C500006EBC60004EB800090F87F02012803D128
:104C60002046F1B2FFF7ABFC761C6068B042EFD88B
:104C7000206804F0DAFCC00221D501264F4616E078
:104C800006EBC60105EB461004EB8101D0F80009E4
:104C900091F84020012A09D1002807DAF0B281F802
:104CA0003F7040F080012046FFF789FC761C606869
:104CB000B042E5D82068416901F480114161206863
:104CC00004F0B3FC800234D501204B4629E00000FB
:104CD0000A30544F00EBC00205EB401104EB820296
:104CE000D1F8001B92F88062012E19D1002917DA41
:104CF00094F8FC6401F4803106F00106B1420FD152
:104D000082F87F32A96941F08002AA6169690906C7
:104D100006D4D5F8040840F40070C5F8040803E090
:104D2000401C61688142D5D82068416901F40011B6
:104D30004161206804F079FC400007D52046FFF768
:104D400023FC2068416901F080414161206804F042
:104D50006CFC40070AD520684568680702D52046E4
:104D6000FFF729FC2068416829434160BDE8FC9FAA
:104D7000D0F8080503F0EABCD0F8080503F0FABC47
:104D80002DE9F04104008AB005D094F8BD04002557
:104D9000266820B108E001200AB0BDE8F081204675
:104DA00084F8BC5400F066F8032084F8BD04F06B6E
:104DB000C00500D4E560206804F0C4F904F11001D6
:104DC000684628228846FCF704F894E80F0004F0AF
:104DD00017F80227D8BB2068002104F04AFC002005
:104DE000012610E000EBC001421C04EB810181F8B8
:104DF0003D6081F840504D648D64CD6481F83C0085
:104E0000A1F85600D0B261688142EBD8002011E0D1
:104E100000EBC001421C04EB810181F87D5281F856
:104E20008052C1F88452C1F88852C1F88C5281F87E
:104E30007C02D0B261688142EAD8282241466846A5
:104E4000FBF7C7FF94E80F0004F0C0F810B184F836
:104E5000BD74A0E7606A84F8385084F8BD64012806
:104E600002D12046FFF754FB206804F0A1F800208F
:104E700092E7000010B586B0044614216846FCF79E
:104E800004F81849206888422AD100F0CDF8164865
:104E9000016841F00101016000680A23022200F06C
:104EA0000100059000204FF4C05100916946CDE902
:104EB0000120CDE903030D48FFF722F90A4808381D
:104EC000016841F00061016000680022052100F0E6
:104ED000006005906520FFF7D7FA6520FFF7C6FA56
:104EE00006B010BD00000840E0440258000002581F
:104EF00070B504460069012570B1022801D0FEF7A3
:104F000072FBD4F80805294603F0A3FCD4F8080581
:104F1000BDE8704003F057BC0025F2E7D0F8080563
:104F200003F080BCD0F8080503F086BC10B5044639
:104F300090F8BC0401280BD0012084F8381084F8C4
:104F4000BC04206804F0C4FB002084F8BC0410BD3D
:104F5000022010BDD0F8082500F2C441104603F02D
:104F600084BC10B590F8BC1404460068012909D02F
:104F7000012184F8BC14C16BC90509D4A16A0129B7
:104F800002D005E0022010BD816B41F480318163C5
:104F9000206804F0CCFA206803F0FCFF002084F8BD
:104FA000BC0410BD10B50446D0F8080503F09FFC02
:104FB0002068D0F8001E41F00101C0F8001E206AF0
:104FC000002804D00248016841F00601016010BDCC
:104FD00010ED00E0134970B50A68D243520705D5B9
:104FE000096801F00701814213D118E00A6822F034
:104FF000070202430A60FFF7A5F90A4D4FF47A76DB
:105000000446083D07E000BFFFF79CF9001BB042D3
:1050100001D9012070BD2868C0438004F4D4002069
:1050200070BD00000C4802580248016841F08071D0
:10503000016070470C48025810B500F085FF054923
:105040000968054AC1F30211515C01F01F01C84013
:1050500010BD00002044025834C10008494930B551
:10506000484C0B1D0A68143409681D68246802F056
:105070000303C5F30012C1F30531C4F3CC040029C6
:1050800014FB02F200EE102AF8EE400A75D03F4AF7
:105090009FED3D1AB7EE000A6BB1DFED3D1A012B13
:1050A00001D0022B64D002EE101A1168F8EE422AE9
:1050B00081EEA22A21E0334C283C23689B0612D5BE
:1050C000344B246801EE901A1168C4F3C104F8EE61
:1050D000612AE34001EE903AC1F30801F8EE611A4B
:1050E00081EEA22A0BE001EE901ADFED2B2A00BF21
:1050F000F8EE611A116882EEA12AC1F3080101EEEF
:10510000901A1168F8EE611A40EE811A71EE800A69
:1051100062EE200AC1F3462101EE101AB8EE411AE0
:1051200031EE001AC0EE811ABCEEE11A80ED001AD1
:105130001168C1F3064101EE101AB8EE411A31EEC2
:10514000001AC0EE811ABCEEE11A80ED011A116856
:10515000C1F3066101EE101AB8EE411A31EE000AF1
:1051600080EE801ABCEEC10A80ED020A30BD04E078
:1051700001EE901ADFED092ABAE7002101604160D3
:105180008160F3E72844025800000039384402588F
:105190000024744A0090D0030024744C20BCBE4B01
:1051A000494930B5484C0B1D0A681C3409681D6814
:1051B000246802F00303C5F30022C1F30551C4F3D0
:1051C000CC04002914FB02F200EE102AF8EE400A8B
:1051D00075D03F4A9FED3D1AB7EE000A6BB1DFED87
:1051E0003D1A012B01D0022B64D002EE101A116877
:1051F000F8EE422A81EEA22A21E0334C283C2368B3
:105200009B0612D5344B246801EE901A1168C4F342
:10521000C104F8EE612AE34001EE903AC1F30801BF
:10522000F8EE611A81EEA22A0BE001EE901ADFED92
:105230002B2A00BFF8EE611A116882EEA12AC1F391
:10524000080101EE901A1168F8EE611A40EE811A19
:1052500071EE800A62EE200AC1F3462101EE101AB7
:10526000B8EE411A31EE001AC0EE811ABCEEE11A16
:1052700080ED001A1168C1F3064101EE101AB8EE74
:10528000411A31EE001AC0EE811ABCEEE11A80ED2F
:10529000011A1168C1F3066101EE101AB8EE411A45
:1052A00031EE000A80EE801ABCEEC10A80ED020ADF
:1052B00030BD04E001EE901ADFED092ABAE70021C3
:1052C000016041608160F3E7284402580000003922
:1052D000404402580024744A0090D0030024744CC7
:1052E00020BCBE4B2DE9FE4F0546DFF8E48350F8A5
:1052F000081B0024F64FC943019005F128002646FB
:1053000008F12408009008011DD4A86E50B1B0F532
:10531000801F0CD0B0F5001F0ED0B0F5401F1ED07E
:1053200001240FE0386840F40030386017E001983D
:10533000022101F0FDFE03E00098022101F088FF48
:1053400004000CD026462888C043C00523D4A86D8D
:1053500005281ED2DFE800F00C11161B1B00AA6EF8
:10536000D8F8001021F440111143C8F80010EAE702
:10537000386840F40030386009E00198002101F0FD
:10538000D7FE03E00098002101F062FF044674B1EB
:1053900000E0012426462888C043800528D4E86D13
:1053A00080281ED00CDC90B140280ED114E0AA6DEC
:1053B000D8F8001021F007011143C8F80010EAE7FF
:1053C000C02813D0B0F5807F10D001240FE03868DA
:1053D00040F40030386009E00198002101F0A8FE97
:1053E00003E00098002101F033FF04469CB12646FB
:1053F0002888DFF8DC92C04309F12C0940052CD441
:10540000D5F8A800B0F5800F20D00DDCA0B1B0F524
:10541000001F0FD115E0EA6DD8F8001021F4E071FB
:105420001143C8F80010E3E7B0F5C00F13D0B0F592
:10543000000F10D001240FE0386840F400303860CD
:1054400009E00198002101F073FE03E000980021BB
:1054500001F0FEFE04467CB126462888C0430005C4
:105460002DD4D5F8AC00B0F1007F21D00EDCA8B16E
:10547000B0F1807F10D116E0D5F8A820D9F800103F
:1054800021F460011143C9F80010E6E7B0F1407F54
:1054900013D0B0F1806F10D001240FE0386840F4D1
:1054A0000030386009E00198002101F041FE03E07E
:1054B0000098002101F0CCFE044674B1264628680D
:1054C000C04380011FD4E86CD8B110280FD0202829
:1054D00012D0302815D0012414E0D5F8AC20D9F82A
:1054E000001021F0E0611143C9F80010E7E73868C7
:1054F00040F40030386004E00198022101F018FE09
:10550000044674B126462888C043C0042BD4286EB4
:10551000B0F5005F20D00DDCA0B1B0F5805F0FD1F9
:1055200015E06B48EA6C2030016821F0300111432E
:105530000160E8E7B0F5405F13D0B0F5804F10D0C0
:1055400001240FE0386840F40030386009E0019829
:10555000002101F0EDFD03E00098002101F078FE4C
:1055600004468CB126462888C043800429D4686E3E
:10557000B0F5403F23D010DC08B3B0F5803F14D025
:10558000B0F5003F0FD115E02A6ED8F8001021F4D5
:10559000E0411143C8F80010E5E7B0F5802F0ED0C8
:1055A000B0F5A02F0BD001240AE00198012101F0F1
:1055B000BFFD03E00098012101F04AFE044694B1CA
:1055C00026462888C04340042AD4D5F8B000B0F15C
:1055D000405F23D010DC08B3B0F1805F14D0B0F18D
:1055E000005F0FD115E06A6ED8F8001021F4E021B9
:1055F0001143C8F80010E4E7B0F1804F0ED0B0F1CD
:10560000A04F0BD001240AE00198012101F090FD88
:1056100003E00098012101F01BFE044674B1264608
:105620002888C04300041FD4286FD8B1B0F1805F30
:105630000ED0B0F1005F10D0012414E0D5F8B020F6
:10564000D9F8001021F0E0411143C9F80010E7E754
:10565000386840F40030386004E00198012101F01E
:1056600067FD044674B126462868C043C0011ED4B5
:10567000A86CD0B101280ED0022811D0032814D074
:10568000012413E02A6FD8F8001021F04051114393
:10569000C8F80010E8E7386840F40030386004E0EB
:1056A0000198022101F044FD0446ACB12646286869
:1056B000DFF81CB0C043ABF11C0B400252D40548CC
:1056C000016841F480710160FEF73CFE824611E002
:1056D0002C44025800480258FA48AA6C016821F08C
:1056E000030111430160E2E7FEF72CFEA0EB0A0084
:1056F000642835D8F4480068C005F5D58CBBDFF8C0
:10570000C4A3B5F8B4100AF1240ADAF8000001F4D1
:10571000407100F44070884211D0DAF80010DAF8D5
:10572000002021F4407142F48032CAF80020DAF8F7
:10573000002022F48032CAF80020CAF80010D5F800
:10574000B400B0F5807F1AD1FEF7FCFD029012E0A4
:10575000FEF7F8FD0299411A41F2883081420AD9D8
:10576000032426462878DFF85CA3C0430AF1080A20
:10577000C00721D03CE0DAF800008007E8D5D5F872
:10578000B410C1F30120032858460DD0016821F45C
:105790007C510160B5F8B420DAF80010C2F30B02B6
:1057A0001143CAF80010DDE7C84A036802EA111283
:1057B00023F47C511143ECE7E86F182816D005DC80
:1057C000A0B1082808D0102804D10AE020280DD064
:1057D00028280BD001240AE00198012101F0A8FC3F
:1057E00003E00098012101F033FD044664B1264630
:1057F0002878C04380071ED4A86F062819D2DFE896
:1058000000F0160C11161616EA6FDAF8001021F0E7
:1058100038011143CAF80010EAE70198012101F0AC
:1058200087FC03E00098012101F012FD04467CB1E1
:1058300000E0012426462878C04340071FD4D5F84D
:105840009400062819D2DFE800F0160C111616167F
:10585000AA6FDAF8001021F007011143CAF800100E
:10586000E9E70198012101F063FC03E000980121C0
:1058700001F0EEFC0446A4B100E00124264628789D
:10588000C04380062BD4D5F89000B0F1405F24D0FF
:1058900011DC10B3B0F1805F15D0B0F1005F10D112
:1058A00016E0D5F89420D9F8001021F00701114333
:1058B000C9F80010E3E7B0F1804F0ED0B0F1A04F6F
:1058C0000BD001240AE00198002101F031FC03E033
:1058D0000098022101F0BCFC044694B126462878C9
:1058E000C04340062BD4D5F89C00B0F5406F24D0BF
:1058F00011DC10B3B0F5806F15D0B0F5006F10D18A
:1059000016E0D5F89020DAF8001021F0E0411143BC
:10591000CAF80010E3E7B0F5805F0ED0B0F5A05FE5
:105920000BD001240AE00198002101F001FC03E002
:105930000098022101F08CFC044694B12646287898
:10594000C04300062BD4D5F8A000B0F5C04F24D03A
:1059500011DC10B3B0F5005F15D0B0F5804F10D159
:1059600016E0D5F89C20D9F8001021F4E05111433D
:10597000C9F80010E3E7B0F5004F0ED0B0F5204FA6
:105980000BD001240AE00198002101F0D1FB03E0D3
:105990000098022101F05CFC044654B126462878A8
:1059A000C04300071ED4D5F88400B0F5805F0AD04C
:1059B0000FE0D5F8A020D9F8001021F46041114380
:1059C000C9F80010EBE70098022101F041FC00B19A
:1059D0000126D5F88420DAF8001021F44051114353
:1059E000CAF800102878C043C00613D4D5F8980030
:1059F000B0F5807F05D10098022101F029FC00B1AB
:105A00000126D5F89820D9F8001021F440711143EF
:105A1000C9F800102868C043000316D4D5F8A400C4
:105A200038B1B0F5803F09D0B0F5003F0BD001246C
:105A30000AE00198002101F07BFB03E000980221BD
:105A400001F006FC04468CB126462868C04340039A
:105A500022D4D5F88800B0F5801F11D0B0F5001F12
:105A600013D0B0F5401F15D0012414E0D5F8A420C0
:105A7000D9F8001021F440311143C9F80010E4E7CF
:105A8000386840F40030386004E00098012101F0EB
:105A9000DFFB04465CB126462868C043C00323D41C
:105AA000286DA8B1B0F5803F17D001241BE0D5F8D0
:105AB0008820DAF8001021F440111143CAF80010D0
:105AC000EAE700004C44025800480258CFFFFF00AC
:105AD000386840F40030386004E00198022101F099
